:110000000100000C00FE7FF048327B23C6643C9869F6
:110001000319495CFF2AE8944A6633487374B0DC5199
:110002000346E87CCD3D1B58BA625558EC238E1F2915
:110003000341B71EFB79E2A9E3507ED7AB2EB141F28F
:11000400035BD062C2122008547545E146515F007CFE
:110005000100000C00FE7FF0880216231B1F16E9E88C
:1100060003140E0F763352255A1190CDE766EF438DC1
:11000700037FDCC2331BEFD79F109CF92E0DED726373
:11000800034E6AFB6625E45D3241A7C4C96B68079A4A
:11000900033F2DBA317C83E458519B500D431BD7B71C
:11000A000100000C00FE7FEFD062BBD95A436C612517
:11000B0003721DA3172443A858628C895D333AB1053A
:11000C000375A2A8D408EDBDAB2D1D5AE96763845EB7
:11000D00030B03E0C6189A769B79838CB24353D0CDFB
:11000E00032CA886110836C40E54E49EB471F32454FD
:11000F000100000C00012FF2283A95F874081386416C
:1100100003737B8DDC6CEAF0871E7FF5217C3DBD3D52
:11001100033006C83E614FD4A122221A704516DDE98B
:1100120003440BADFC05072367419AC2415577F8E1C9
:11001300037724C67E5C482A973804823E77465F017C
:1100140001012FF400012FF2005E884ADC51EAD36B0F
:1100150001FE7FF400FE7FEFC8580BD78F153EA4383C
:1100160001FE7FF400FE7FEFC070A64E2A6A2342ECF2
:110017000100000C00FE7FEFB81D4ED43B725A06FB60
:11001800037A6D8D3C4B588F542CD89A3257E4CCAF18
:110019000338437FDB7644A45C542289EC6DE91B18D0
:11001A0003579478FE749ABB4332FFF902684A481A25
:11001B000379A1DEAA75C6C33A3DC240FB1BA026FAE2
:11001C0001FE7FF400FE7FEFB070C6A529520EEDD123
:11001D0001FE7FF400FE7FEFA84F4EF00523F9C13CA1
:11001E0001FE7FF400FE7FEFA0275AC794393865752C
:11001F0001FE7FF400FE7FEF98180115BE235BA861E7
:1100200001012FF400012FF200354FE9F915B5AF5C4D
:1100210001012FF400012FF2080D34B6A810233C99D8
:110022000100000C0000A295E03F6AB60F61574095AE
:1100230003579BE4F1310C50B37E0C57B177AE35EBEB
:110024000325A70BF71DBABF005FF87E052F305DEFDF
:11002500031381823A5DB70AE54AD084E91F48EAA1FB
:110026000315014ACB5F5E7FD0100F8FCA6590700BA7
:110027000100A2940000A295E8098A3148799D024707
:110028000100000C0000D5CBF042C296BD168E121FFE
:11002900035DC79EA8540A471C1EBA5D23661E3F1E5F
:11002A0003613EFDC50BF72B147BD3EE7B51D9C56416
:11002B00030A0382C508F2B15E11447B7342963E5AB1
:11002C000368EB2F634962813B1A32234B3B0FD37924
:11002D000100A2940000A295E060B6DF7006A5EE6412
:11002E000100A2940000A295E8143306247FFFCA11A1
:11002F000100D5D40000D5CBF071EA1109100F59DCBD
:110030000100A2940000A295E07FB7E0AA06EB5BD491
:110031000100A2940000A295E86F6DD9AC094211F2B9
:110032000100D5D40000D5CBF8762721104C04A8AF06
:110033000100D5D40000D5CBF814E17E333222E7CDCC
:1100340001012FF400012FF20068EBC5502DF6D648CB
:1100350001012FF400012FF2004A2AC31539EE015CA3
:110036000100000C0000A2962057FC4FBB0CC1016FBA
:110037000326F324BA7F01579B43F1842260EF011909
:11003800035FB8370B50801EE149DA307D7055A5F55D
:11003900036AA78F7F7672BD230488AC1A5FB8011C46
:11003A00037D5E18F85F3534A46FC75AF86A5F702971
:11003B0001012FF400012FF2087DE67713555C55B5BD
:11003C000100000C0000D5CB8014FCE74E6A3DD3E8DF
:11003D0003532999381FBFE8E071C9129809DAF632CD
:11003E000359ADEA3D288F1A345092CA791D545C4D3D
:11003F0003097E1B4E510882772A155DBC1D9F6E5F8A
:1100400003415E286C7C58FD051CA0C5FA53584BCB67
:110041000100000C00012E586045E6D4865C10FE21AA
:11004200034BD8591A78DF6A550E7FFA2B3C5991AA7C
:11004300036C80EC70379E21B539B7AAA22B0D8DBEF7
:11004400034C9B09046AA7B75C0069E3732C27173B2C
:11004500033DD150943DB012B31DF029D35675FF36FA
:110046000100D5D40000D5CB905B25ACE2175DFCF061
:1100470001FE7FF400FE7FEF98053B0A9E34FD6B4F5F
:1100480001FE7FF400FE7FEFA056438D15519E314985
:1100490001FE7FF400FE7FEFA817A1B5824DF72E4E71
:11004A0001FE7FF400FE7FEFB05D888A082A082C70D2
:11004B0001FE7FF400FE7FEFB819E21BB275E0858AE2
:11004C0001FE7FF400FE7FEFC05399C65420EE134896
:11004D0001FE7FF400FE7FEFC80B37E80A2157F6BC9E
:11004E0001FE7FF400FE7FF06057D2F10E0BFFAE186A
:11004F0001FE7FF400FE7FF0502E48F04449D0FEAC04
:110050000100000C00013012405551B9F324F6AB8E6A
:11005100032A31B62D1849C29B634C574C24E99DD7CC
:110052000369E7F3E52A6DE8067DFF9D0900754342D1
:11005300037AB49DAF759F82CD1816F8C437DF223367
:11005400030F819E7F57C7D42D61E74EA3597B4D84EE
:11005500010130140001301260631B64D478B5E77671
:1100560001012FF400012FF2206E534CDE1A0DDE3210
:1100570001FE7FF400FE7FF06046263DEC260D8C4ABB
:1100580001FE7FF400FE7FF088746F2E306FDE8AF622
:110059000100000C00FE7FF12049C0E82314D5368543
:11005A00033F06ECB23B594807230F856C6EAA85FB11
:11005B000325413BEC17180B0B6CAA23043F7C2FF4A4
:11005C000311CCA8BA4D32AB86579328B95D205E20DB
:11005D00035CB44A0516CF80F13F07ACC36B47F63E3F
:11005E0001FE7FF400FE7FF1183FCFAED90F856867A1
:11005F0001FE7FF400FE7FF1182E22FBB729934699FB
:1100600001FE7FF400FE7FEFD0744939A34FA0D2E3A4
:1100610001012FF400012FF22868B867D33F7F5DD9D1
:1100620001012FF400012FF20032794FF75454945EBB
:1100630001012FF400012FF2082123D5F2135B811033
:110064000100A2940000A295E0094927A80DCDF8F654
:1100650001FE7FF400FE7FF0402E8A639424E60401AD
:110066000100A2940000A295E82A6AD9BE0BAAC1B4DE
:110067000100D5D40000D5CBF8779D85444AB26E7887
:1100680001FE7FF400FE7FF0405451CF496181EF6971
:1100690001FE7FF400FE7FF12014217E23710757D011
:11006A0001FE7FF400FE7FF120424479DA1A9A9E69F1
:11006B0001FE7FF400FE7FF118368DB37E6A3B714C36
:11006C0001FE7FF400FE7FF1181F461B5129BACF25E3
:11006D0001FE7FF400FE7FF06051BF6B487E0F63840C
:11006E0001FE7FF400FE7FF12072E3413A116AE494BE
:11006F0001FE7FF400FE7FF08800B13A316442959929
:1100700001FE7FF400FE7FEFD025973E320EAD6F5724
:1100710001FE7FF400FE7FEFE05C49EAEE064AF49B64
:110072000100000C0000D5C8807E448DE95A9CC3E57D
:11007300036EBE42080C058DF51AFE36253CA88ECFBC
:110074000326A02C5E541C81530CBE5BE93102BBE206
:11007500030697D2D206D68AB267906F6010DB9DAA26
:11007600035895F5FA38A5D0543A966CD063F37E8534
:1100770001FE7FF400FE7FF0604B7937354A10B4E813
:1100780001FE7FF400FE7FF0884C2A71662E534A8276
:1100790001FE7FF400FE7FF06071C1AF983D00B9D9EF
:11007A0001FE7FF400FE7FF1104E0B9A87434BAE755A
:11007B0001FE7FF400FE7FF1104C5028701DE8725A7F
:11007C0001FE7FF400FE7FEFD008F8B73F0CA6B46207
:11007D000100000C0000AA8628763CB68015B713291D
:11007E000369D3947C2539DFA53DA970441CDCE2DEEE
:11007F00032C106A57684EED592DB88089706B674EF6
:110080000320F4BDAD639DEFAC545EE5D304A660518E
:11008100032771AC801C4A08EC501F97866B0572954A
:1100820001012FF400012FF2284E647FE40E0BB88593
:1100830001FE7FF400FE7FEFF064212B8C5C17530C90
:1100840001012FF400012FF200335A1DF128677B7C03
:1100850001FE7FF400FE7FF0481D91467C316032BB55
:1100860001FE7FF400FE7FF11013CDFCFC471745E41A
:1100870001FE7FF400FE7FEFE030AADFDA30EADA61C2
:1100880001012FF400012FF2005E636063215641AF35
:1100890001FE7FF400FE7FEFC846B24DBC75B52783EB
:11008A0001FE7FF400FE7FEFC067A70B695953172F53
:11008B0001FE7FF400FE7FEFB852AC7DFF00C4C3AF1E
:11008C0001FE7FF400FE7FEFB06C053B164F294393C5
:11008D0001FE7FF400FE7FEFA8425EB207334A6F1F78
:11008E0001FE7FF400FE7FEFA05C03D76D66A48D1198
:11008F0001012FF400012FF20013916F2D0435D38D40
:1100900001012FF400012FF20857C5BB4F1803D08976
:110091000100A2940000A295E04F3A06D459A377B684
:110092000100A2940000A295E848AEB0630024E135C4
:110093000100D5D40000D5CBF0271210C7217B22E470
:110094000100D5D40000D5C8806DC45E8317304A678A
:110095000100000C0000D5C850556B69ED7083619660
:11009600037148254517D78639539F7F122817E7ECF1
:11009700036A1B45E5567BD50A141D2302407168D8AF
:1100980003327FAC775A60650973BBD7F81876589DD8
:11009900035E963896775BA7C16F38E6D146111BA5E2
:11009A000100000C00011E80C0769A091F4695AE9593
:11009B000346BA8FCA7835626C777A4EAA3F48B982D2
:11009C00034C187C90541F28CD665ACA496835B2AEA8
:11009D0003298A92BA6FE95EAC7F65FD1677C9FD6852
:11009E0003613183F2634102B44B697C7A51A27AA630
:11009F000100D5D40000D5C87021A2ECCA4D5C489996
:1100A0000100D5DC0000D56870155EC4C265D2A137E8
:1100A100027148254517D78639539F7F122817E7ECE7
:1100A200026A1B45E5567BD50A556B69ED70836196EC
:1100A30002327FAC775A60650973BBD7F81876589DCE
:1100A400025E963896775BA7C121A2ECCA4D5C48994A
:1100A50003550B880834CC3ACF6EBB1F2A6FBF29CBBA
:1100A6000352A311C344EF6B804E5562614C672FC94E
:1100A700030438250359B76E2812FCDE5E4A1D606EBC
:1100A8000341ED20D70E6B3F6A4252C2DA6A92EF4C96
:1100A9000100000C00012E5B2041531DED06353CD2A8
:1100AA0003519EB94C39DF2579683CAAD3313C7C99F5
:1100AB00031F9EC3223410ED56126E008B34DFBC003E
:1100AC0003496FB218680EA5D1023C049A5BDA35D4B8
:1100AD00033D1A2DD97F618FCD4A9554FE392EDBE44F
:1100AE0001012E5400012E5B2009815DA35204A19101
:1100AF0001012FF400012FF2001C7E3C011C2201FFE4
:1100B00001012E5400012E5B287635AA2A5E74C4D91B
:1100B1000100A2940000A295E03B3EBE153822CB017E
:1100B2000100000C0000A291F06CE0044379F0D62F0C
:1100B30003622D81022AB265877975E8EE73154115BD
:1100B400033D2066137993B66244B3FA611C0CA67CA2
:1100B500037BCFBAFC17859F723BAB699E713153693F
:1100B60003621AF47173CFE1653AA1058163DE60CDFE
:1100B7000100000C0000D56A30617C843E7B541FAB84
:1100B8000347C7C97146F8284B2A79EC49338125CFBB
:1100B900033D2DD2752E17ECA74FA327CE1873983A66
:1100BA00031AF7F0EA4DA32C7E53B2564F75509D762B
:1100BB00032FD0AD811978EBEB6EC686640E0D31FF34
:1100BC000100D5740000D56A304BDD53FD569951FEC4
:1100BD000100A2940000A295E04C54E2C30788BD9BB8
:1100BE000100A2940000A295E847CAA56748249DBFF6
:1100BF000100000C0000A291901F0E5D0D026BAAE9C9
:1100C00003763B8C4E4CFB8D322C02FE8C0129517EEA
:1100C100037775797C1626FB8C62A5D5BD718FABF94A
:1100C2000365CA235B51CB0DA43957756A3E6DA1C72E
:1100C30003257D63F470EC11B27B9B743C13E2100244
:1100C4000100D5740000D56A30732090725FB298161E
:1100C5000100A2940000A295E03CE732EC22F13DF358
:1100C6000101301C0000A29250792B84010FA85F4DCB
:1100C700022A31B62D1849C29B5551B9F324F6AB8E85
:1100C8000269E7F3E52A6DE8067DFF9D09007543425C
:1100C900027AB49DAF759F82CD631B64D478B5E77607
:1100CA00020F819E7F57C7D42D61E74EA3597B4D8479
:1100CB00035BFD421076574F8B6ECE91F04FC4D6002A
:1100CC00031565AC9919FB2650178F7B672421DFCF5C
:1100CD00031036B29F1D206B8E5024DE5B168EFE17EC
:1100CE00031495E50A0F5BCF617934D3D401C65E98DB
:1100CF000100D5D40000D5CBF0530386D17525F2BCF1
:1100D0000100A2940000A295E00CE8E1A74E9EFB0D61
:1100D1000100A2940000A295E8090802BE3266459B7F
:1100D2000100D5D40000D5CBF037E203AB2586D60E8D
:1100D3000100000C000178640874C93698487814014A
:1100D400033746A5F2682DFED6186928D6047195E52D
:1100D500037FBD7A3E0490B7C5606ED7F62D9DF57D3C
:1100D6000354B596215992A02E4303A21619B8A08EA0
:1100D7000352C774022BB5B1C629EF532D71D601AFA0
:1100D8000101787400017864106223436366D385C98A
:1100D90001FE7FFC0000AAF060596F6D8A5749361FEE
:1100DA00021D91467C316032BB5451CF496181EF692E
:1100DB000246E87CCD3D1B58BA2E48F04449D0FEACC4
:1100DC000241B71EFB79E2A9E371C1AF983D00B9D9D1
:1100DD00025BD062C2122008547545E146515F007C26
:1100DE0003605138DE2622AD0C73BC6770280E68970B
:1100DF00034BA9831A06D71A2B6799755618333C897F
:1100E000031F404301116E09070CFC73211421971B57
:1100E1000371DCE0FD7906328B4B683D0D076E41D81A
:1100E2000100A2940000A29600072BBC16766D98C25D
:1100E3000100000C000170BFC020E45CA44B232EE38C
:1100E400033CF930926863E8D2159C74CF4AD3AFD2FA
:1100E500034A872C355D5CE761768961984365174BD2
:1100E6000351194ED144E2ED6C1CD484D521D062550D
:1100E700032C7C62C21A54D7BC02219B33773BFBDDBD
:1100E8000100000C000162234833537CED27514ADE9D
:1100E9000338BF53E5226F5320570716135293BFEFB6
:1100EA00031B7585AB612DBDDD5A0201C72A9C34E21A
:1100EB000302121A816C2CFC882109CDA4577F5A4D1E
:1100EC000329262D1A557FB7EE6D1BCF1C4CE5CA5330
:1100ED000100000C000165E2106C8B44662006E424CE
:1100EE000341D7467971E5621E20CC134C095FC93B9A
:1100EF000369215DFB7ABF196A4E42B6A843F8E1ACA9
:1100F000032E129658059F04465E4DB9682C06DCF313
:1100F100033E5E582B257D4626030DF30600A6564782
:1100F2000100A2940000A295F85AA8580E68FA8D0D33
:1100F3000101623400016223403BD615EB0A045AB273
:1100F400010165F4000165E2083DE8306C7631573A57
:1100F5000100A2940000A295F8058DF53B0ACDFAC041
:1100F6000100A2940000A291A81F5784545B0DAD2A5A
:1100F7000100000C000164EEB80BE2C8BA7B14914E03
:1100F800033CEBD7C760EE9C166F0939F8154291F6A8
:1100F900034A0FFA115E4462086385489E00E4B973A5
:1100FA00030C56F86064D177225F3272DB7616D70425
:1100FB0003232FCF4D1EA210317924CA0A0CFD4EA713
:1100FC000100A29C000164F2400C2A5C5B5F94DC035E
:1100FD00025BFD421076574F8B6ECE91F04FC4D600F9
:1100FE00021565AC9919FB2650792B84010FA85F4D1A
:1100FF00021036B29F1D206B8E5024DE5B168EFE17BB
:11010000021495E50A0F5BCF617934D3D401C65E98A9
:1101010003780702226163ED0D237BBCA0162EB70D87
:11010200036C31E7CD2BB7929B0C600E477D94F75D63
:1101030003379A5B5653B735D558A2A4873A6F0E78FE
:110104000310A30D9C0A66E486297848704CDCED4CF7
:11010500010164F4000164EEB81187C70F5476DE98D6
:110106000100A2940000A291900EA697F270BA39EB63
:110107000101787400017864101AFD9053558BB10D74
:11010800010164F4000164EEB827FADEFA78BB805A7B
:11010900010164F4000164F2400FA085B004E5DCB596
:11010A0001FE7FF400FE7FEFA0331C42501B1493C201
:11010B0001FE7FF400FE7FEFA814802F5D2774A209F7
:11010C0001FE7FF400FE7FEFB000B2172A532C34A509
:11010D0001FE7FF400FE7FEFB83B2125A30AC68FFBCD
:11010E0001FE7FF400FE7FEFC064996E1357A37D4706
:11010F0001FE7FF400FE7FEFC86F00529A0805B331ED
:1101100001FE7FF400FE7FEFC84377313216AC4B23EB
:1101110001FE7FF400FE7FEFC00E04E6CE31A9DB764E
:1101120001FE7FF400FE7FEFB851B7667559A4BA713B
:1101130001FE7FF400FE7FEFB0340BF64D69454021BC
:1101140001FE7FF400FE7FEFA875F562281C618271F0
:1101150001FE7FF400FE7FEFA02FE5D02530E1B1CFC1
:1101160001FE7FF400FE7FEF98676B35803193C8F956
:1101170001012FF400012FF20077933F626CB4EE9C3B
:1101180001012FF400012FF2005B727F19514E5CB07F
:1101190001012FF400012FF2084FF4CC6D404EAF4A83
:11011A000100A2940000A295E04A16874F55FEE0D14C
:11011B000100A2940000A295E803C5E07C60C2D273F2
:11011C000100D5D40000D5CBF811CAC74A126CADE990
:11011D0001FE7FF400FE7FEF9863822DC06C11685A4A
:11011E0001FE7FF400FE7FEFA0178E240D5556A87BAE
:11011F0001FE7FF400FE7FEFA80D83863671B82AEDBD
:1101200001FE7FF400FE7FEFB03D69565B2299DCBC96
:1101210001FE7FF400FE7FEFB824D48BDB542DA5B5FE
:1101220001FE7FF400FE7FEFC01C67CB3D40E294529B
:1101230001FE7FF400FE7FEFC877DA4A571230F102FE
:1101240001012FF400012FF20047CF16C4527FA04CD6
:1101250001012FF400012FF2081DCDF795564580C821
:110126000100A2940000A295E0508ED8976A9126B557
:110127000100A2940000A295E86810481262FB86803C
:110128000100D5D40000D5CBF04B9275D24F0CEEDB44
:1101290001FE7FF400FE7FF110632099E02463975665
:11012A0001FE7FF400FE7FEFE870A42016161BC2437E
:11012B0001012FF400012FF2002E0D767138B59EFFD0
:11012C0001FE7FF400FE7FF11052E2024D0CE344B567
:11012D0001012FF400012FF2006F49CD8A4DC5D90779
:11012E0001FE7FF400FE7FEFE8672417E15FF6CA094F
:11012F0001FE7FF400FE7FEFE02EF32EA632766A55A5
:1101300001FE7FF400FE7FEFC84CC1263B08BBEB1DDF
:1101310001FE7FF400FE7FEFC037524CF070CC332FBC
:1101320001FE7FF400FE7FEFB83AF6A2203C5EA902EF
:1101330001FE7FF400FE7FEFB01CB9A5811F7F42E270
:1101340001FE7FF400FE7FEFA8268CB37F102362F8C3
:1101350001FE7FF400FE7FEFA03D75BC473E30D969D6
:1101360001FE7FF400FE7FEF986DEF52111112DBB6CF
:1101370001012FF400012FF20017A03BB9005CA9417F
:1101380001FE7FF400FE7FEF9024F5D0186780C1227D
:1101390001012FF400012FF2085800E34B1673EFC8A0
:11013A000100A2940000A295E005B9B1FD7AD7FCA20B
:11013B000100A2940000A295E8633516040E759D1A71
:11013C000100D5D40000D5CBF01A8762F47F41D049A8
:11013D0001012FF400012FF200557E05153BA0794BDE
:11013E000100000C0000A297206A0DCE487237AA96D4
:11013F000318C45E156B431F255B1FBC2D33DFCCE842
:11014000032973F88F2C70EDAE13CD8DCB563A1A5C13
:110141000351F792465BC9A82744296C6D3A86D44578
:110142000300BF783F22643EA93AE37D8645440FE529
:110143000100AAFC0000D5D04058C05B8A38D82E7173
:1101440002605138DE2622AD0C73BC6770280E6897A5
:11014500024BA9831A06D71A2B6799755618333C8919
:11014600021F404301116E0907596F6D8A5749361FC0
:110147000271DCE0FD7906328B4B683D0D076E41D8B4
:11014800031C0D44752CB6A6A41E41098A5398582C34
:11014900032BF876EE0675ADBA41D646BC3694A76A45
:11014A000370837C027E4A57150C12AC7F6798F0398B
:11014B0003170EB52B2DFBCB8C42B8AC67246348EA56
:11014C000100A2940000A297203830D6B66D48CF8713
:11014D000100000C0000D5D03064A1C46431723BF5BF
:11014E00030D3BE41C4CDA15E711F69861369956AB63
:11014F00036F3E54901464BE1E7BDD66900DFB5C5BAA
:110150000332A5C7A83A54101166BBB7E52816830226
:11015100037C2A56CD7AB86EE14423C7775F5C6E4D35
:110152000100D5D40000D5D03802A0048706CB1B609C
:1101530001012FF400012FF2007323808A05157276B2
:110154000100D5D40000D5D0701786C9741C2427A1F9
:1101550001FE7FF400FE7FEF884FB7A02A096CF728CF
:1101560001FE7FF400FE7FEF803459648F3ADF331D51
:110157000100000C00FE7FEF786AF2BB3A481B1739A2
:1101580003561673940921145C19E2BFCC66D021CADF
:11015900033137975E2DDAA7917B34DFE83CD22B79CE
:11015A00030D3715DE7350925777263B8A755B5ED648
:11015B000375F096DF76DEE9187013CDB7188BFB19A3
:11015C0001FE7FF400FE7FEF70691417697BF45B8EEF
:11015D0001FE7FF400FE7FEF48009AE0DD1818832F32
:11015E000100000C00FE7FEF385052810821857A573D
:11015F00035C64AD752CDD5B395FD4B15404ABE597AA
:110160000346C01B05566EC29B6F9EA0D1247FC4AEB1
:110161000351A3A284376863BC7A9638434FE12F6167
:11016200032E8E9F47767425960118C6C07F7E4A1547
:1101630001FE7FF400FE7FEF5821DF319E6687F34D59
:1101640001FE7FF400FE7FEF5017CFC87D5D66DC652D
:1101650001FE7FF400FE7FEF3800E3DFE6595B37F3ED
:1101660001FE7FF400FE7FEF38017EC0C47173BB22AE
:1101670001FE7FF400FE7FEF3051D141CC12F9357A90
:1101680001FE7FF400FE7FEF28567D27636F5DE2EF86
:1101690001FE7FF400FE7FEF20461BC83413DDA79DF6
:11016A0001FE7FF400FE7FEF181C8A8ACF0E73DFE04F
:11016B0001FE7FF400FE7FEF106E2E2D5345DC439D78
:11016C0001FE7FF400FE7FEF086DAC7768746AE2E400
:11016D00010164FC00FE7FEE807A61D75B164A148231
:11016E00023CEBD7C760EE9C166F0939F8154291F632
:11016F00024A0FFA115E4462086385489E00E4B9732F
:11017000020C56F86064D177225F3272DB7616D704AF
:110171000227FADEFA78BB805A7924CA0A0CFD4EA706
:11017200032E19DD00756D30D01806546B1FA332673B
:11017300034EC868C44239DC03505E5E012EFDBCE602
:110174000358D7F9D7024DBF76307C7DAA403C23E69C
:110175000358CAE6D942933C4F533559604F4AC8FF94
:110176000100000C00FE7FEE281EE6AF0D5670E3ED82
:110177000364E4C3CD169CAD8D5CAB38C63B7139DDE9
:110178000351A6E915174BDE99299F67302AC1076AEA
:110179000311ADB5F43575FED11F2BEA4E03254A326C
:11017A0003638FDBD11098CF6E1B2B9E9D3150E85CA8
:11017B0001FE7FF400FE7FEF48128D98B75F61383235
:11017C0001012FF400012FF200430A16621F9D5C1836
:11017D0001012FF400012FF2084557D5D872D2B57967
:11017E0001FE7FF400FE7FEE181E22BCB23565F1C87A
:11017F0001FE7FF400FE7FEE103D096BBF0BD6D5B5A7
:1101800001FE7FF400FE7FEE08787AA59C70BB99830F
:1101810001FE7FF400FE7FEE00221A0CCD1B7CA0ED57
:1101820001FE7FF400FE7FEF583965EB663AA88B3C9E
:110183000100000C0000A21DB826BAF2314B13A15A8B
:11018400037C6489B653AE65DE701E8A0D41E690CF59
:1101850003663BFE9531E0986F527F603D7E13D01338
:1101860003517DF4875EBE0EAB41FCF274294614F72A
:11018700034AC9F3E20CC0A7826E9DEAD04450AA0084
:110188000100000C00018894582970CC7849CA1341A0
:11018900034244B8DE76490B01058D717E64C2DDD522
:11018A000311C5ABEF5A4744BE36B19CBF645EC5ABDA
:11018B0003010236EF68D8526B1DC4B1114C6E372B7C
:11018C0003653CDC22103B27163C8CC13842E8C7BEC8
:11018D000100A2140000A21DB8156827FB6350AC3500
:11018E000101889400018894704748C06A254D9EA943
:11018F0001018894000188947818C6B4F2040BAD5517
:1101900001FE7FF400FE7FEF505D175EF24ED5A13771
:1101910001018894000188946856CDFABB78466DAF08
:110192000101889400018894705C5B6C3A5D094B841F
:1101930001018894000188946052A4773B13BAE84320
:11019400010188940001889458646A232A6E022D010E
:1101950001FE7FF400FE7FEF5030D85A556F0463F1AD
:1101960001FE7FF400FE7FEF586D651B8D31ED2BAFB0
:1101970001FE7FF400FE7FEF607DA042A3475553AB7D
:1101980001FE7FF400FE7FEE007417684F0E9E141562
:1101990001FE7FF400FE7FEE0813D4A2F22764C9079A
:11019A0001FE7FF400FE7FEE10222FC865047C27FA48
:11019B0001FE7FF400FE7FEE183D4B955A5B4A22B56B
:11019C0001FE7FF400FE7FEE282231759037A58EEF9C
:11019D0001FE7FF400FE7FEE88495C0EA50A4A062B0F
:11019E0001FE7FF400FE7FEE8854E56D646EB4295541
:11019F0001FE7FF400FE7FEE807E337D351F8C83ABB6
:1101A00001FE7FF400FE7FEF481059DF710CF19F389B
:1101A10001012FF400012FF20007BD1DCF0A91E1DCFE
:1101A2000100000C00007BCB281236898D6271086236
:1101A300036272919F127DED1D7EA94A2B20D49DA3DB
:1101A4000334ADB5824CB58EA4483966AA667FC8318D
:1101A5000327FFB15A048BE57339629FFA71F94ADC6A
:1101A600032CBE76705D86CF11142AC06C5FA54049BB
:1101A7000100000C00007BBCB869EF467468ABEFB087
:1101A80003129B95F2309FB9AB326C3C7658A36FCA58
:1101A9000340F9991C052192AD782FF3752B8FA02561
:1101AA00030FB3748908A75F957670D60848B6B6EB7C
:1101AB0003297BFD380D9A50ED2B27BF4D0E5CBEB449
:1101AC0001FE7FF400FE7FEE9071B563E3741A191EA4
:1101AD0001FE7FF400FE7FEF003E6AF2872D7CB919C7
:1101AE000100000C00FE7FEE48666AA3E132089E8CC8
:1101AF00035EC714FC39333BAD5BAC6C9C460FE42B40
:1101B000036B9F782308A29A692FFF2A9F477304AC88
:1101B1000300D28DDE059E3AC45A0E9A9F1C3F31CE61
:1101B200037C0F10CC25EF81D55D38CAEA05F4208C7A
:1101B30001FE7FF400FE7FEF0004B670625117412305
:1101B40001FE7FF400FE7FEE902E326D9A5EB19210B5
:1101B50001FE7FF400FE7FEF001FE7D17D52CBAB2E11
:1101B6000100000C00007BB3F01A6760EF5E52C405C4
:1101B7000344BD67E6325102D30048644761E90D1E26
:1101B80003111817CF76C8B5683D9579BA0ACD4C1190
:1101B9000362682D8B436F111A3ACC76B1588B1C7C2B
:1101BA000344419EF93837F1DF3299B71B7EA75F5A5B
:1101BB0001FE7FF400FE7FEF004A35BF85344702AC69
:1101BC0001FE7FF400FE7FEF005FDD549A38FD730E74
:1101BD0001FE7FF400FE7FEE4803E1A864672FE0A8FE
:1101BE0001FE7FF400FE7FEF0048C0A8000717B226AC
:1101BF0001FE7FF400FE7FEF00632808EF656A762B5F
:1101C00001FE7FF400FE7FEE904511160D2A27DE1108
:1101C10001FE7FF400FE7FEF0002A68FC834F52A23DA
:1101C20001007BB400007BB3F04815A966796F453015
:1101C30001FE7FF400FE7FEF0020A0C5E25BD772BB87
:1101C40001FE7FF400FE7FEF00533A7CFD5A7ED21587
:1101C50001FE7FF400FE7FEE480B726EDC365EFC5A53
:1101C60001FE7FF400FE7FEF003FB97188382EA874D7
:1101C70001FE7FF400FE7FEE8878B6E4960B1595B1B4
:1101C80001FE7FF400FE7FEF085FE6C53F3CAE14FEFB
:1101C90001FE7FF400FE7FEF1066FE776541123F79EC
:1101CA0001FE7FF400FE7FEF184C68ED9045BECE3CF0
:1101CB0001FE7FF400FE7FEF207690CBA17CBC5FD349
:1101CC0001FE7FF400FE7FEF282B85F5C444D209395B
:1101CD0001FE7FF400FE7FEF301B4796986572CF1BC2
:1101CE0001FE7FF400FE7FEF384E78488738AD4C182C
:1101CF0001FE7FF400FE7FEF5045EA996E441FBAF4AA
:1101D0000101889400018894700792A9DB03D92C7DD1
:1101D10001018894000188946829180EE27C90111319
:1101D2000101889400018894784E7F1C4D5C76D65239
:1101D3000101889400018894583CA6D1B943754DB760
:1101D40001FE7FF400FE7FEF380DF690130FDE3B47EF
:1101D50001FE7FF400FE7FEF502457647B066F06E92D
:1101D6000100A2140000A21DB802ABAB373D5EC8AB4D
:1101D700010188940001889458477DB4704FD5720BFB
:1101D8000101889400018894582CF0838B3E238E2743
:1101D9000100A2140000A21DB81BB4DBCD659DCFA3FC
:1101DA0001FE7FF400FE7FEF58619F753B29BD8A9727
:1101DB0001FE7FF400FE7FEF5069321F162D96B71487
:1101DC0001FE7FF400FE7FEF38124A2DF82A26C8283B
:1101DD0001FE7FF400FE7FEF7060C94A46069D9E7A4F
:1101DE0001FE7FF400FE7FEF781D701BFF4A12EC3299
:1101DF0001FE7FF400FE7FEF802B66AC1259F1277978
:1101E00001FE7FF400FE7FEF884FBE108E60602E62AD
:1101E1000100D5D40000D5D0700D1CD93912552B1071
:1101E2000100D5D40000D5D0505CF24B455F91BE568B
:1101E3000100D5D40000D5D0581B15D96C7B469A2371
:1101E4000100000C0000A2966021DCDBA0220655C4AC
:1101E500032822BCA746182E755CE60F5E4B9A663826
:1101E6000358625C6D2357E57479311D4C6599B6895F
:1101E7000329F583EF6486395B6580D91B392BA6B360
:1101E8000323BC16C202026EC5569BC2B274087021A3
:1101E9000100D5D40000D5D07868E13F8E51C07F5345
:1101EA0001FE7FF400FE7FEF9030B213905EDD588CF2
:1101EB000100D5D40000D5D04840009C033BCFA3D10F
:1101EC000100D5D40000D5D0687C3FA80056E57D3DF3
:1101ED000100D5D40000D5D0401E1C83A178EBD301DD
:1101EE000100D5D40000D5D07869B6E9D9210E8FA8F2
:1101EF0001012FF400012FF20062E8072506A846311D
:1101F00001012FF400012FF200063FEC9A6C291F4CEC
:1101F1000100000C0000AAE31850138A7A3035708986
:1101F20003243DE0AA746B6F6A50AF58A726AF4D2D09
:1101F300035D4CAEF87A723B4528B1BBF27237784452
:1101F40003594F93D161402F4E20913E410DFEC28848
:1101F500030180DEB14A3F068C4DFF5E8B151F37A388
:1101F6000100AAF40000AAE3206C04B4E01D08283724
:1101F7000100AAF40000AAE328685B8A2D64F087E26C
:1101F8000100AAF40000AAE3381575811C521274068D
:1101F9000100AAF40000AAE33005FF178A53FB087529
:1101FA000100D5D40000D5D0780CA75DBC6AE2EC3CED
:1101FB000100D5DC0000D5688878D07D083AF676B752
:1101FC00026EBE42080C058DF56DC45E8317304A67DD
:1101FD000226A02C5E541C81530CBE5BE93102BBE27D
:1101FE00020697D2D206D68AB267906F6010DB9DAA9D
:1101FF00025895F5FA38A5D0543A966CD063F37E85AB
:110200000361A5C3E40FADB8F86B6FD84E497FD5B084
:110201000301E5313D1B37F4123DEB451A0A577FD600
:11020200032936B69A5E194EEC04C9BB1B22766F7E60
:11020300037338868F05377D7E03B69ECD77361526E4
:110204000100A2940000A2966041751BB25F3D3B7050
:110205000100D57C0000D5C88029D0A5DF442DC35276
:110206000278D07D083AF676B76B6FD84E497FD5B06E
:110207000201E5313D1B37F4123DEB451A0A577FD6FB
:11020800022936B69A5E194EEC04C9BB1B22766F7E5B
:11020900027338868F05377D7E03B69ECD77361526DF
:11020A00036EBE42080C058DF56DC45E8317304A67CD
:11020B000326A02C5E541C81530CBE5BE93102BBE26D
:11020C00030697D2D206D68AB267906F6010DB9DAA8D
:11020D00035895F5FA38A5D0543A966CD063F37E859B
:11020E000100D5D40000D5D0707BE319E54A2CDADC98
:11020F000100D5D40000D5D07030DD951056D4389873
:110210000100D5D40000D5C8906C17FCD64FA4B5A168
:110211000100D5D40000D5C8905787D52419248B5115
:110212000100000C0000000000132F561F67358E1DD0
:1102130003691ABF5A7247C47D570FD06B1D86D5F533
:11021400031B7E7B170069DFFC225091100B912ED8B2
:110215000373A2668C147F4B240F47CDA512B4903D71
:110216000336BEF0DA7DFA51CE5429ABEF52DFA1FC9B
:11021700010000140000000000170D654E6E7417AC45
:1102180001000014000000000079DD6BB3613A402A47
:110219000100001400000000007A2446F32ABB00C43F
:11021A000100D57C0000D5C87070B7627716D2FD9AF5
:11021B0002550B880834CC3ACF6EBB1F2A6FBF29CB43
:11021C000252A311C344EF6B804E5562614C672FC9D7
:11021D00020438250359B76E2812FCDE5E4A1D606E45
:11021E000241ED20D70E6B3F6A155EC4C265D2A1377E
:11021F00037148254517D78639539F7F122817E7EC66
:11022000036A1B45E5567BD50A556B69ED708361966B
:1102210003327FAC775A60650973BBD7F81876589D4D
:11022200035E963896775BA7C121A2ECCA4D5C4899C9
:110223000100D5DC0000D568B02240F4B26E5AD2BECB
:11022400026EBE42080C058DF529D0A5DF442DC352BB
:110225000226A02C5E541C81535787D52419248B5142
:11022600020697D2D206D68AB267906F6010DB9DAA74
:11022700025895F5FA38A5D0543A966CD063F37E8582
:110228000378D07D083AF676B76B6FD84E497FD5B04B
:110229000301E5313D1B37F4123DEB451A0A577FD6D8
:11022A00032936B69A5E194EEC04C9BB1B22766F7E38
:11022B00037338868F05377D7E03B69ECD77361526BC
:11022C000100D5740000D568B035704AD1559060DBAA
:11022D000100D5D40000D5D05052F720C63EAB2035B4
:11022E000100D5740000D568987547B1D64A3C4F0E7A
:11022F000100D5D40000D5D05875B191D359841CB3E1
:110230000100D5D40000D5C8706953F85F6E0367D744
:110231000100D5D40000D5D0603C339A5B24C258B1BA
:110232000100D5D40000D5D0785340FFA91336705DA3
:1102330001012FF400012FF200347B3FD30D5AB75143
:1102340001012FF400012FF2086C89B8967E1219C8B6
:110235000100A2940000A295E025F1C1C1743CE6FA42
:110236000100A2940000A295E820530E7B144C9480F1
:110237000100D5D40000D5CBF055C3594C69DCF55B2A
:110238000100A2940000A291900CFC2ACF28BA7A134B
:110239000100000C00017863F0772B796C1E022BE920
:11023A000313B3BDBC4C48815272C4649F7CD9432118
:11023B00033A4BE92A01C7A2F4153B9D137D07B61B64
:11023C00036C4DFAA40C7C501F393B50765F0E41DB9D
:11023D000340F78FF37F9F698A7244B23950B1BE087B
:11023E0001012FF400012FF2002D8148897DB18352E6
:11023F0001012FF400012FF20821BE2F841E0491CD4D
:110240000100A2940000A295E01A0ED87136D2D033E3
:110241000100A2940000A295E873C7EB1A03EBCDCC90
:110242000100D5D40000D5CBF01C82652D2C73E35D62
:110243000100A2940000A291903AFA746F3A84911634
:110244000101787400017863F037D3B7904E384ED3F7
:1102450001012FF400012FF2084D0F54A34B4004EE89
:110246000100A2940000A295E025CCB2794ED6F7988A
:1102470001012FF400012FF20004DAF4543B24F23CAC
:110248000100A2940000A295E810F7A584771FA68D56
:110249000100D5D40000D5CBF051EF357776BF101722
:11024A000101787400017864107F707E017470936A79
:11024B0001012FF400012FF208212EAD8512752537EF
:11024C000100A2940000A295E00B784ED658017DB81E
:11024D000100A2940000A295E8063D10510F641CA275
:11024E000100D5D40000D5CBF022BF757E3BD800007E
:11024F000100A2940000A291A056CAED2B5D44069520
:110250000101787400017863F80E9EA4BB2B7C55686C
:1102510001012FF400012FF2005BADF95F76BC5A5613
:1102520001FE7FF400FE7FEF982A84F0F77B37AFBB74
:1102530001FE7FF400FE7FEFA065A9E3330C2F554028
:1102540001FE7FF400FE7FEFA8718093785E1E8AB75A
:1102550001FE7FF400FE7FEFB05D27C5EC5D8F08B829
:1102560001FE7FF400FE7FEFB84E913C517EBDB63D67
:1102570001FE7FF400FE7FEFC05A098B2756BF33F6A5
:1102580001FE7FF400FE7FEFC8696DA7C9728FACB14B
:1102590001FE7FF400FE7FF1102545A7C9495A99DCB2
:11025A0001FE7FF400FE7FEFF00055EFC657F93E9895
:11025B0001012FF400012FF20046E7011133A737F704
:11025C000100D5D40000D5D0783344C4D65E2C28EE19
:11025D0001012FF400012FF200247D7CEF43D60C21F7
:11025E000100D5DC00FE7FF0600CD5DB9535569F99FC
:11025F000240009C033BCFA3D11E1C83A178EBD3019A
:110260000275B191D359841CB352F720C63EAB2035E8
:11026100027C3FA80056E57D3D3C339A5B24C258B1DF
:11026200023344C4D65E2C28EE30DD951056D438982C
:11026300031D91467C316032BB5451CF496181EF69A2
:110264000346E87CCD3D1B58BA2E48F04449D0FEAC38
:110265000341B71EFB79E2A9E371C1AF983D00B9D945
:11026600035BD062C2122008547545E146515F007C9A
:1102670001FE7FF400FE7FF0606BED4A53127E6585D8
:1102680001FE7FF400FE7FF1103F754C7B610FA1D633
:1102690001FE7FF400FE7FF110257273DB3B192CFD32
:11026A0001FE7FF400FE7FF06011ACAB8C2486D4C70B
:11026B0001FE7FF400FE7FF06020A658BB49CC7C9049
:11026C0001FE7FF400FE7FF0880CE40C804A226C5670
:11026D0001FE7FF400FE7FEFD0249E15AC11096D6860
:11026E0001012FF400012FF2283314792F444E323E1F
:11026F0001012FF400012FF2003CC28C6E68CBAF2D30
:1102700001FE7FF400FE7FF050529FF4EC75A18AC21B
:11027100010164FC0001301250469BE822618ED516C2
:1102720002780702226163ED0D0FA085B004E5DCB5BA
:11027300026C31E7CD2BB7929B0C600E477D94F75DF2
:1102740002379A5B5653B735D558A2A4873A6F0E788D
:110275000210A30D9C0A66E486297848704CDCED4C86
:11027600032A31B62D1849C29B5551B9F324F6AB8ED3
:110277000369E7F3E52A6DE8067DFF9D0900754342AA
:11027800037AB49DAF759F82CD631B64D478B5E77655
:11027900030F819E7F57C7D42D61E74EA3597B4D84C7
:11027A000100000C00012FEED81826E4112104219166
:11027B00034676956C7492AC4139797F44686F963DA0
:11027C000319198108290F0F320F777C5F582340F826
:11027D00030C013BE205ADA63478C999B462E5FD994C
:11027E00032A4BBBE03E11D7572D0869EF46ECA72A4F
:11027F0001012FF400012FF2305D60351002600995F5
:1102800001011E9400011E80C01A22C17E6B2BB8C2CF
:1102810001FE7FF400FE7FF0506CC2B66A60CD4385FA
:110282000100A2940000A2973058BE66CD335E9E8DC6
:110283000101301400013012403128443A4B85829EDA
:1102840001FE7FF400FE7FF0506AA1C37E33F518DBD3
:110285000100A2940000A2919829D6CF995F346FC03D
:1102860001FE7FF400FE7FF12801FA1091784DF0C846
:1102870001FE7FF400FE7FF1307AC3AA455B33EE614D
:1102880001FE7FF400FE7FF13800715079083C585126
:110289000100000C00FE7FF1402ABD0C5A464E2FA8F1
:11028A000348AE393E7726E87974E8D1E3081D416A15
:11028B000309F9D75E0F02B952224002E833D9F200C2
:11028C0003426157DF57034E2014A7358562B83E2BC5
:11028D00033A63884D7E8245E413E082660DE6DA7D9D
:11028E0001FE7FF400FE7FF148643A57E65DB6B5A4F0
:11028F0001FE7FF400FE7FF150663468775604A66D48
:1102900001FE7FF400FE7FF15860F812BD313894CE33
:11029100010130140001301240616963363974ED1F77
:110292000100A2940000A2961029AA94C70C266F907D
:1102930001FE7FF400FE7FF1581E9366AA1443B0FA60
:1102940001FE7FF400FE7FF15015BA4F243683B3E299
:1102950001FE7FF400FE7FF1481FB4268245866D3548
:1102960001FE7FF400FE7FF140026C64AE07E7C514F0
:1102970001FE7FF400FE7FF138164CE71415CE9F92CD
:1102980001FE7FF400FE7FF13014CF2CF857AA92EAC1
:1102990001FE7FF400FE7FF1287285E29D5CF31B7DEF
:11029A0001FE7FF400FE7FF0A0488A890A4EB7487CA6
:11029B0001FE7FF400FE7FF04879C31DD838F855CAAB
:11029C0001013014000130126033380AF862A2EA917C
:11029D0001012FF400012FF22032FB27C00136513C11
:11029E0001FE7FF400FE7FF0487B6C7DC616F0A060F8
:11029F0001FE7FF400FE7FF0A877B7C5CC36A4C6E286
:1102A00001FE7FF400FE7FF0A808AA435839112B9074
:1102A10001FE7FF400FE7FF0A070A00F054F5E12A446
:1102A20001013014000130126012F962FE642D3F9D8A
:1102A30001012FF400012FF220198D0EDE56B3223AEC
:1102A4000100000C00007BCAB81DF1DEFB06552335A5
:1102A5000354154A491900C91C1F3DAB446CA927774D
:1102A600034C38D414084467D225A17D41033ED49327
:1102A70003097AB90E0E2279443E8ECE6E7F33FBD483
:1102A800031439D7FC72583F677AA0799A206B596E33
:1102A90001007BB400007BBCA8571020515FD7A3E99B
:1102AA0001FE7FF400FE7FF0B010214BE1335D34EAA9
:1102AB0001FE7FF400FE7FF1205F7F5E861CB1657ED0
:1102AC0001FE7FF400FE7FF06843AC9E235DB028FC19
:1102AD0001FE7FF400FE7FF1201A5FC05D7BA207F78F
:1102AE0001FE7FF400FE7FF0B0399D6BA1684B2F6E7E
:1102AF0001FE7FF400FE7FF120529E34BD0DECACAF09
:1102B0000100000C00007BB40075D245B21ED708D2F4
:1102B100031E0B04A61FABCD90163114813461142199
:1102B20003401726FE56BD656142838D6518AB7E41AB
:1102B300033695094A060640670B03BDA81727474F1F
:1102B4000371A8D22C06C7F1B72748933169F23E34AA
:1102B50001FE7FF400FE7FF0A07044C6EF4A748FDA29
:1102B600010130140001301260086DCA9064D45037C0
:1102B7000100000C00FE7FF0C026EBF1661E71BBD872
:1102B80003710FF095562DB0C248410413197F628519
:1102B900036C5EC54443B2BC580F51A8370FE6F967C1
:1102BA0003063649BD469D7C4F2DF1FE0E0C0A92D49A
:1102BB000351A139F7634901224C21B9D25CF3AF1E2A
:1102BC0001FE7FF400FE7FF04857A77A5E0A919453B2
:1102BD0001012FF400012FF22849504C8A1159860A58
:1102BE0001012FF400012FF200399513795BCE15E46C
:1102BF0001FE7FF400FE7FF0484202DE0940A2661B79
:1102C00001012FF400012FF22868EECF6F5F1421F3A3
:1102C10001012FF400012FF200026E31F45024128842
:1102C20001007BD400007BCB2866D6F07911BFDA2CF2
:1102C30001007BB400007BBCB8600B0BF05335B5BDAB
:1102C40001FE7FF400FE7FF0B80DFD09FE5F40489109
:1102C50001FE7FF400FE7FF118549A864D2B6202647C
:1102C60001FE7FF400FE7FF088263BC0440EAB038619
:1102C70001FE7FF400FE7FF1187DE33AA2193C97D92D
:1102C80001FE7FF400FE7FF0B84733872D2A961DE3A0
:1102C90001FE7FF400FE7FF11800C89AA6066433C7C0
:1102CA0001007BB400007BB3F036313FB342CB78B047
:1102CB0001FE7FF400FE7FF1187E997B572BBA481FF5
:1102CC0001FE7FF400FE7FF1180F42BB0E2E287A142B
:1102CD0001FE7FF400FE7FF1187619AB873FE85440AC
:1102CE0001FE7FF400FE7FF088494F6145155AEAC45D
:1102CF0001FE7FF400FE7FF118288FA9D67103CB06AB
:1102D00001FE7FF400FE7FF0B853F1AC3A29A05A67D2
:1102D10001FE7FF400FE7FF118629CAFC075C5A230AB
:1102D20001007BB400007BB3F05D00657F7BD9479958
:1102D30001FE7FF400FE7FF1182433ECAC266F657CBD
:1102D40001FE7FF400FE7FF11824FC87522CD399434D
:1102D50001FE7FF400FE7FF11867C8000273DA33254A
:1102D60001FE7FF400FE7FF0881382482219F4EEFABC
:1102D70001FE7FF400FE7FF12041AAC2361033BD58DB
:1102D80001FE7FF400FE7FF12001931676667D97A5D6
:1102D90001FE7FF400FE7FF06816EE013A4AC47BF114
:1102DA0001FE7FF400FE7FF12007F1CC4103A5E689F7
:1102DB0001FE7FF400FE7FF120319226A862C31166E5
:1102DC0001FE7FF400FE7FF0B02757C8D83FC376E507
:1102DD0001FE7FF400FE7FF12066BDA96E63F7639188
:1102DE0001007BB400007BB4001201EF1873E262B926
:1102DF0001FE7FF400FE7FF0A03ED5885B37385BB817
:1102E00001013014000130126032AFBB817927D00E89
:1102E10001FE7FF400FE7FF0C04CA4AA7B4A59FF7244
:1102E20001FE7FF400FE7FF0485CD867D311A5DA5E88
:1102E30001012FF400012FF2304355FF792241168E7C
:1102E40001011E9400011E80C00E1A7B6A5B6BFC9592
:1102E50001FE7FF400FE7FF04811C061F368888ED767
:1102E60001012FF400012FF230748373595841D0D98B
:1102E70001011E9400011E80C03446EA3E43D45A746C
:1102E8000100000C00007BCB602603721D183E4DCF28
:1102E90003213238B314ABD1E855D6498C19E5D4D7A2
:1102EA0003475B8D694A46009E511E308F11EE239951
:1102EB000314A000105C154BDF162C56A1140037E438
:1102EC000323915793342E9F3170D89FB82645DA6EDC
:1102ED000100000C00007BBCC04886F0FD01FB648160
:1102EE000368573DB154097C8E42491A9B23F2ED9214
:1102EF0003488CEFE864BD4D420C7B7C6900453D882A
:1102F000032891A7B7658E78553F8B06387CD3DA26CC
:1102F100037F744D2C364460A9151227F67E67F143AD
:1102F20001FE7FF400FE7FF0B850927DBC4832844209
:1102F30001FE7FF400FE7FF1181AD87E5A5E5EDAE3BF
:1102F40001FE7FF400FE7FF0882F787E6A3A7426C26D
:1102F50001FE7FF400FE7FF11855BE58D95E057E5586
:1102F60001FE7FF400FE7FF0B81E4549D66000E2D6C6
:1102F70001FE7FF400FE7FF11842383768485820879E
:1102F8000100A29C00007335C829C95E8B4EB3B3D2E5
:1102F90002579BE4F1310C50B37E0C57B177AE35EB14
:1102FA000225A70BF71DBABF005FF87E052F305DEF08
:1102FB0002063D10510F641CA20B784ED658017DB8E6
:1102FC0002058DF53B0ACDFAC0100F8FCA6590700BB4
:1102FD00033371011408286448489D5E1072564E737C
:1102FE00036DB6DC9D043C50906F2A289A5C02A8CB04
:1102FF00033A80B1396D7E5D3A5A6A9A0F6D2B29CACD
:110300000347EDADCF589625E03DBDA78602B3357BBA
:1103010001FE7FF400FE7FF118365D3648080EA44ADE
:1103020001FE7FF400FE7FF11815A55E795DCCFD2318
:1103030001FE7FF400FE7FF118291C25DB7C1246F9DF
:1103040001FE7FF400FE7FF0887EDC07D83E4A7E62E0
:1103050001FE7FF400FE7FF12028A566630CFE3234E1
:1103060001FE7FF400FE7FF1201AFBB4D7406F33481C
:1103070001FE7FF400FE7FF0680A25DD711C71DC14A4
:1103080001FE7FF400FE7FF1200E622E0176DC76235A
:1103090001FE7FF400FE7FF0A848E2DF3A645AD35D2B
:11030A0001FE7FF400FE7FF1284B9614B52C48812C0F
:11030B0001FE7FF400FE7FF1302CA8251362A5B77493
:11030C0001FE7FF400FE7FF138482E5C33784B15EDFE
:11030D0001FE7FF400FE7FF14041BA11A821673BC880
:11030E0001FE7FF400FE7FF1481B46A9F3204343A073
:11030F0001FE7FF400FE7FF1503D2B62C648E8AA043F
:1103100001FE7FF400FE7FF15827AD79A963E45EDB2E
:110311000100A2940000A2961051861B3E1A57F4D4F3
:110312000100A2940000A296106E0A3C4C6DF7F752AE
:1103130001FE7FF400FE7FF1587C6C6A4D64D46D75E8
:11031400010130140001301240454F4987492F40D320
:1103150001FE7FF400FE7FF15810E55E3C7577C1FF64
:110316000101301400013012583D8D834F581D7974F7
:110317000100000C00013012C005BBDF8250688F61FC
:110318000371CFCB2A32E9614A6D1B29EA4775F12A64
:11031900033702170C1FE7FDE462BC9B1D12130ECABA
:11031A00034795778D3EE017A95AFBB8CE4818FF02D5
:11031B00032CEA53F507971193199F1A4061ED6C6200
:11031C0001FE7FF400FE7FF1682956BE426C6B7F08AB
:11031D000101301C00FE7FF2D06EA607C9359ABFDBF5
:11031E000271CFCB2A32E9614A05BBDF8250688F6108
:11031F00023702170C1FE7FDE462BC9B1D12130ECAB5
:11032000024795778D3EE017A95AFBB8CE4818FF02D0
:11032100022CEA53F507971193199F1A4061ED6C62FB
:11032200032B1281DB2FECC4B7787C7E767F8B66053B
:1103230003534BFE3A42D4C8D63D18E954032FFB4F2E
:11032400030A4ABA00456855DA53988AB040672824C3
:1103250003577B64A52A52A07A7350896E6D07551EB2
:1103260001FE7FF400FE7FF17032771D73726B9F7C45
:1103270001FE7FFC00013012C07157351D0C0AB9BDA2
:11032800022B1281DB2FECC4B7787C7E767F8B660536
:1103290002534BFE3A42D4C8D66EA607C9359ABFDBEA
:11032A00020A4ABA00456855DA53988AB040672824BE
:11032B0002577B64A52A52A07A7350896E6D07551EAD
:11032C000371CFCB2A32E9614A05BBDF8250688F61F9
:11032D00033702170C1FE7FDE462BC9B1D12130ECAA6
:11032E00034795778D3EE017A95AFBB8CE4818FF02C1
:11032F00032CEA53F507971193199F1A4061ED6C62EC
:1103300001FE7FFC00007BCE40367236F11E418912F0
:11033100020B726EDC365EFC5A5BAC6C9C460FE42B95
:11033200026B9F782308A29A692FFF2A9F477304AC05
:110333000200D28DDE059E3AC45A0E9A9F1C3F31CEDE
:11033400027C0F10CC25EF81D55D38CAEA05F4208CF7
:110335000347984755000D4A5813A1CB501318EFF0B1
:110336000335A80A343081F5953805771F363E4F1EA9
:1103370003606EBA4C72E29E7835C9B52460BA8C0FE8
:110338000335B7674F3783120E63EA875E33BAB887D7
:110339000101301400013012F84002214F7CEB67E9C9
:11033A0001FE7FF400FE7FF1582D09766D5466CC8E4D
:11033B0001FE7FF400FE7FF15039F8C96F06DDEA014A
:11033C0001FE7FF400FE7FF1480E7D93FF78351F1E81
:11033D0001FE7FF400FE7FF14044EFCAF01676A8313D
:11033E0001FE7FF400FE7FF1385808BAE15E0EEF86BA
:11033F0001FE7FF400FE7FF130100E3200144D3EA40A
:1103400001FE7FF400FE7FF128409027954A16F3C8FD
:110341000101301400013012C020FEE1E23CF9924179
:1103420001FE7FF400FE7FF05054B99A6972B0F990C0
:1103430001FE7FF400FE7FF04848DB7B1432B31ADFF2
:110344000101301400013012E0304DE52E5FBC914DB6
:110345000100A2940000A291A0270CDD9D4212EFC3EA
:1103460001FE7FF400FE7FF0582DEAC79E464399D4FD
:1103470001FE7FF400FE7FF058261FE6BD567EFDA213
:110348000100000C00012FF2803C968EEE7A5C2CC0E5
:11034900031E46A6365539A68D452B748D1AA57E747D
:11034A000315C9CE227909B0E12EF2BD1877D929E16F
:11034B000336034322505DD0B23226399A36C8B004F4
:11034C0003261879D8545DC5820B824A6D28B43CB208
:11034D0001FE7FF400FE7FEFD078BE8AE704ABAAB041
:11034E0001FE7FF400FE7FF0881FCB688446BE9A7350
:11034F000100AAF40000AAE30054D9439B4DB6302211
:1103500001012FF400012FF2887D0C325673D616DF7E
:1103510001FE7FF400FE7FF0586A2EEC02306CA5CDD0
:1103520001012FF400012FF2902F5A608F4B12244189
:110353000100000C00012E58C00494071C7A04E15AD1
:1103540003730E923B2623685B73FD2EC11A5DD53F51
:11035500037681390D5CA8CFB1512685432911D55D28
:1103560003310695332D2D69A051C6120F1C99B2E5AD
:11035700036851527F3523A65015583DCC35B23FE33B
:1103580001FE7FF400FE7FF0603D2A961A02D9D6731A
:1103590001FE7FF400FE7FF0503A36C87076AFED5258
:11035A000101301400013012F82465B473271C93206B
:11035B0001FE7FF400FE7FF06853C01502722EB76168
:11035C0001FE7FF400FE7FF06058541C1F6C3398BB78
:11035D0001FE7FF400FE7FF08872B1F15E5F422AF6F5
:11035E0001FE7FF400FE7FEFD043D876A108540053FF
:11035F0001FE7FF400FE7FF050208146525A1A12623D
:1103600001012FF400012FF2905187DB8507477C03B0
:1103610001012FF400012FF288073A1B696F98CE82A0
:1103620001FE7FF400FE7FEFC803AAF5C02CC3649C93
:1103630001FE7FF400FE7FEFC00D1E045E66FA2D0CC5
:1103640001FE7FF400FE7FEFB87A1244E60B5FE17F72
:1103650001FE7FF400FE7FEFB044E3E4185F1FF682E0
:1103660001FE7FF400FE7FEFA80BD98829377412A10D
:1103670001FE7FF400FE7FEFA046CC5AFC2A2603FF4D
:1103680001FE7FF400FE7FEF9827E2962A6DFE7AA0C0
:1103690001FE7FF400FE7FEF907F7A0A650E7FC0F36D
:11036A0001FE7FF400FE7FEF8873AB318660079C78CC
:11036B0001012E5400012E58C07D3496746741B7E1BB
:11036C0001012E5400012E58C83BE1A1B26AECADA19A
:11036D000100733C0000A295E023099F0E7D68836314
:11036E000229C95E8B4EB3B3D2489D5E1072564E733F
:11036F00026DB6DC9D043C50906F2A289A5C02A8CB93
:11037000023A80B1396D7E5D3A5A6A9A0F6D2B29CA5C
:110371000247EDADCF589625E03DBDA78602B3357B4A
:1103720003579BE4F1310C50B37E0C57B177AE35EB99
:110373000325A70BF71DBABF005FF87E052F305DEF8D
:1103740003063D10510F641CA20B784ED658017DB86B
:1103750003058DF53B0ACDFAC0100F8FCA6590700B39
:110376000100A2940000A291E0780AB2000A03CC1A05
:110377000100000C0000D54510721CF6E61563AD9A15
:11037800037483A41C6674CE0F14F2B48A3700DAFEB0
:1103790003242A804F09A6BE2442DA63282BF7B6BD86
:11037A00033189544E441C355C561DBABC41225D86F3
:11037B0003529BF64F65D42AFE666E3B1131035EB376
:11037C0001FE7FF400FE7FEF9032A392C86C8196EE62
:11037D000100A2940000A295E021E326AE19E54AA958
:11037E000100A2940000A295E862C7D1605DC4C86075
:11037F0001012E5400012E58C805D1706E5B2D4BC350
:110380000100D5540000D545100FD53C8810CC9E29CD
:110381000100A2940000A295E06EF9A1312538EA227B
:110382000100A2940000A295E825BF52B325FA7C3060
:110383000100D5540000D545100C3420C268D4DF5880
:110384000100A2940000A2919045B444FB305EA112F5
:110385000100000C00017864681BD1FFB77180FE98EC
:110386000357EF39A95508507D2404F1CA5FEE351498
:110387000379B6E0B7652DBE2B328A2B633DC364A7CC
:11038800037F1308D50D0CCCF52A44FB951B9A0765F9
:110389000312DE3D63548C1B88795ECFC503E50120D9
:11038A000100D57C0000A2A89800C1AB6B22B379EC1D
:11038B000278D07D083AF676B76B6FD84E497FD5B0E8
:11038C00027547B1D64A3C4F0E3DEB451A0A577FD6FB
:11038D00022936B69A5E194EEC04C9BB1B22766F7ED5
:11038E00027338868F05377D7E35704AD1559060DB85
:11038F000347EC640E0B180C656558B9B26FBB4C9CE7
:1103900003174C2D287E8AA82415B5C8CC61A8F24D27
:1103910003710645A0432F3700275D374847AACE3A57
:1103920003231D6C14111B067C392BCCD2150B376A26
:110393000100AA9C0000E3861855A797774EDE6B23CD
:110394000269D3947C2539DFA53DA970441CDCE2DED6
:11039500022C106A57684EED592DB88089706B674EDE
:1103960002763CB68015B71329545EE5D304A660519F
:11039700022771AC801C4A08EC501F97866B05729532
:1103980003792366B97F64700563CA689F3AD555A303
:110399000378C33FCA3DCD5F9839E85E78063033AEFD
:11039A00033E8F0B033BC1EAFE190E71124D4F5B539C
:11039B000303AE4F0C3DC0216A32A815052E4A579F58
:11039C0001FE7FFC0000ECD16065574159550C4E9222
:11039D00020E7D93FF78351F1E44EFCAF01676A831F4
:11039E00022D09766D5466CC8E39F8C96F06DDEA01E8
:11039F00022956BE426C6B7F0814A7358562B83E2B76
:1103A000023A63884D7E8245E432771D73726B9F7C7E
:1103A100031CB71CCC33910E31428AC8900CB478A28C
:1103A20003489C459B73011BB64FE3AFA255E2E99FFC
:1103A3000348A8B32D35DC5B3E66FDF01B32AFCD832D
:1103A400032EFFC1F715DEA628167A3623037E08D05D
:1103A5000100A21C0001593DA8352FF5A60EA1E5F2C4
:1103A600027C6489B653AE65DE701E8A0D41E690CF36
:1103A70002663BFE9531E0986F527F603D7E13D01315
:1103A80002517DF4875EBE0EAB41FCF274294614F707
:1103A900021BB4DBCD659DCFA36E9DEAD04450AA0053
:1103AA00035BF1414539C2D1E37B33C6E04E3E66B8C0
:1103AB0003680D29830DAEA0C20A0051B60E99564AA8
:1103AC00037305E21C2165C6474C5977B52C0D49EFF2
:1103AD00033E1CE314222920B06E98127F7FBA5ABEE8
:1103AE0001FE7FF400FE7FEF9013FFCCB36AC5664C5E
:1103AF0001FE7FF400FE7FEF907AFDBCCE1D7533CF3A
:1103B00001FE7FF400FE7FEF9830DA180C33EF69F21B
:1103B10001FE7FF400FE7FEFA05FD9DA0449CE101A66
:1103B20001FE7FF400FE7FEFA81509CFAA586FF60D53
:1103B30001FE7FF400FE7FEFB063483662346137524A
:1103B40001FE7FF400FE7FEFB86D48881842FA8D9DE7
:1103B50001FE7FF400FE7FEFC07AF728DA0F5405526C
:1103B60001FE7FF400FE7FEFC86DFD0AF630B9CB99D9
:1103B7000100D5DC00FE7FF0086DB765B46ED6AEAD32
:1103B800020D3BE41C4CDA15E711F69861369956ABF8
:1103B900026F3E54901464BE1E7BDD66900DFB5C5B3F
:1103BA000232A5C7A83A54101166BBB7E528168302BB
:1103BB000202A0048706CB1B6064A1C46431723BF5B6
:1103BC000302D67B6010C3EF0E25FE88C23D55701427
:1103BD00032E3922DE0B3C6F6E7FF4962A7DD4382EB7
:1103BE00031A0251820E882A3F2EAE503B62288CD0F0
:1103BF00032391F9E9046692F82BF69CEB662E9ADEEC
:1103C00001012E5400012E58C006DA304B38C7CA4AF3
:1103C10001012E5400012E58C07422B8637BC257E734
:1103C20001012E5400012E58C86F19E13D0B165D39FA
:1103C30001012E5400012E58C85D16EC343BD028D3BD
:1103C40001FE7FF400FE7FF0504ACE51E82AA6D78081
:1103C5000101301400013012E80823C1FD2D7D52E1F0
:1103C6000100000C000078FD0067B6CE5508185827C5
:1103C700031354C79559FFDB4A2B518B0F15EFF133A4
:1103C8000368880589240F1AEE78187E032D571917A3
:1103C900032875ADE641145F111385B3F60C19FF7254
:1103CA00036FC5EC4D0716E82012F42FBD613D783154
:1103CB0001FE7FF400FE7FEFD007A7852D7630C95E46
:1103CC0001012FF400012FF29034C6739F5347B5925C
:1103CD000100000C00012FDEE065BACA231E16077A63
:1103CE00032639C9777C0A80864E8D2DA53CADA96948
:1103CF0003275C0B963A5468F1246477BE2E52219F12
:1103D00003326CE6F56EFE024C41A6E934015BE6E0C0
:1103D100030283B64275FDEBDC69E3EC6A567C01E30A
:1103D20001012FD400012FDEE04398155308F21B9A35
:1103D30001FE7FF400FE7FF060335E01A1100903BAD1
:1103D40001FE7FF400FE7FEFC83B0586CE0639CD18BA
:1103D50001FE7FF400FE7FEFC06FCBFA6D598182AAD2
:1103D6000100000C0000A2BAC0492B7B8A5586C49045
:1103D7000312346DF91DD1539C77978A2517B8A93024
:1103D800034C23753B3B1F354C13C329B63698E5B8F7
:1103D900033C7B1C2D235A359E70ED4EA90DCA5E70C7
:1103DA000379D637827F4C16FE7CC860BC265F0897A4
:1103DB0001FE7FF400FE7FEFB878C7E74C42E42C5166
:1103DC0001FE7FF400FE7FEFB058F70F4776422DF206
:1103DD0001FE7FF400FE7FEFA81626075A3147B4C000
:1103DE0001FE7FF400FE7FEFA03B6B2CC02113AF2DEE
:1103DF000100A2B40000A2BAC01513638B0496A84AF8
:1103E00001FE7FF400FE7FEFA00CAAEDB01C4F517A05
:1103E10001FE7FF400FE7FEFA82A7C414C30127B3164
:1103E20001FE7FF400FE7FEFB0769FB6886B31B07D60
:1103E30001FE7FF400FE7FEFB8046A14F827ACCCAAB0
:1103E40001FE7FF400FE7FEFC0013275B44E0BD5419F
:1103E5000100A2B40000A2BAC04D858339007E8CB24A
:1103E60001FE7FF400FE7FEFC8464D6A854362B9037D
:1103E70001FE7FF400FE7FF0601F4479CC39A4E6F665
:1103E80001FE7FF400FE7FF088356A81266AEC9BB6B0
:1103E90001FE7FF400FE7FF12070D5ADE60C004AE4F1
:1103EA0001FE7FF400FE7FF070756C5631029ABEA150
:1103EB0001FE7FF400FE7FF07811BBA7AB0B69A05820
:1103EC0001FE7FF400FE7FF08041CE22DC4AD167C74B
:1103ED0001FE7FF400FE7FF0802CFFD35A7B267DE04A
:1103EE0001FE7FF400FE7FF04054ACA0044ED5C997B8
:1103EF0001FE7FF400FE7FEFD022B875461C5B4CD027
:1103F00001012FF400012FF2880D213EFB62A8B755B0
:1103F10001FE7FF400FE7FF0981CD918BD01ED31217A
:1103F20001012FF400012FF29061E906483757B24704
:1103F30001FE7FF400FE7FF090628AD4B3282D602E34
:1103F40001012E5400012E58C0784006A91D99B65FFB
:1103F50001FE7FF400FE7FF0A81AA0264F2F555E0A55
:1103F60001FE7FF400FE7FF068677C8741712380E709
:1103F70001FE7FF400FE7FF0A82AF89EBC1E2354411C
:1103F80001FE7FF400FE7FEFF872DECB2E72CFF4455B
:1103F90001FE7FF400FE7FF0983BF76D551588698BF7
:1103FA0001FE7FF400FE7FF050058E9C2D22A9A8866E
:1103FB0001FE7FF400FE7FF090128884093F82C14495
:1103FC0001012FD400012FDEE0592752DB216BC78C71
:1103FD0001FE7FF400FE7FF0680AB2BD6403F69C3FF7
:1103FE0001FE7FF400FE7FF0B0483E72D07C36A2E85B
:1103FF0001FE7FF400FE7FEFC80864E6DE16D6C9372B
:1104000001FE7FF400FE7FEFC053F4FB457E5350782D
:1104010001FE7FF400FE7FEFB86A567773294BEF3413
:1104020001FE7FF400FE7FEFB07BDE71811C2ABA63AD
:1104030001FE7FF400FE7FEFA85C3C3526582227B816
:1104040001FE7FF400FE7FEFA058F5459B5DB0C3E587
:1104050001FE7FF400FE7FEF9838570D65703947EF90
:1104060001FE7FF400FE7FEEB819A6065049609ACA2E
:1104070001FE7FF400FE7FEEB0324CB1825413582EB9
:1104080001012E5400012E58C07320BCE31C51CAFFB0
:1104090001012E5400012E58C0518E7EA224B6B1DDB0
:11040A0001012FFC00FE7FEEC85F519E6C78ABAD22D5
:11040B00024676956C7492AC4139797F44686F963D0F
:11040C00021826E411210421910F777C5F582340F8BF
:11040D00020C013BE205ADA63478C999B462E5FD99BB
:11040E00022A4BBBE03E11D7572D0869EF46ECA72ABE
:11040F000363022495679DCC243E51DCF05E383F1D7A
:110410000303C886870B1C1D477B42340F5EE096168B
:1104110003307E700A141210D73B1CCB3C5BEAAE3F12
:11041200034C691E3C29D4BA14399B7225788A6B53D1
:1104130001FE7FF400FE7FEEC0660F248C733554DE3C
:1104140001FE7FF400FE7FEEC8185BD60F4748AD0D91
:110415000100000C00007286405604CC530B7C92F20D
:11041600035D0B1194085129E9639A780C7F2C8F930C
:110417000300FCD70C7D7CF8FB3F2B1C0B3C5CB0012C
:1104180003651AC51F15D7232E1A94EF1E63FEFBA178
:110419000320F340757DFC5CF442DF91B868E34BA797
:11041A0001FE7FF400FE7FEEB85171B07F120E6DCCF2
:11041B0001FE7FF400FE7FEF9849FC1BD25E778C08BF
:11041C0001FE7FF400FE7FEFA04A1543B34486B095ED
:11041D0001FE7FF400FE7FEFA87328EFAE5CE286A4A8
:11041E0001FE7FF400FE7FEFB0492DBC01685F199696
:11041F0001FE7FF400FE7FEFB8485A4B94456A2B2AB1
:1104200001FE7FF400FE7FEFC00785679F01C6DB2BCE
:1104210001FE7FF400FE7FEFC80502609A1C5BCA4A98
:1104220001FE7FF400FE7FF0906A1D25BA3232ED782B
:1104230001FE7FF400FE7FF0A05300716153262DED91
:110424000100A2940000A29618747F8B5A17CE6B47D1
:110425000100A2940000A296182497DE6C068DF92688
:1104260001FE7FF400FE7FEFD86E93FA3E6505852FB8
:1104270001012E5400012E58C038A93DF2298C35C43B
:1104280001012E5400012E58C82BD22DA0066EBC688E
:110429000100A2940000A295E03CA5A07B74FFE9A17B
:11042A000100A2940000A295E86ECDD5FE02FC40928D
:11042B000100D5540000D545103438012851A40A9345
:11042C0001FE7FF400FE7FEFE835FEDC542148AB9FE3
:11042D000100A2940000A2961849E1FD6F525AA69EB1
:11042E0001FE7FF400FE7FEFF833FF2329048D94162E
:11042F000100A2940000A296184B6F76B306FF948A2F
:1104300001FE7FF400FE7FEFF83FEF020E1ECDFFD2EB
:1104310001FE7FF400FE7FF090467CFB343505D72524
:1104320001012E5400012E58C02B828063737BD49705
:1104330001FE7FF400FE7FEFF8550EB6274D654D089B
:1104340001FE7FF400FE7FEFE85B7D728F0A0AED8394
:110435000100A2940000A29670445AEFE04A4B488D00
:1104360001FE7FF400FE7FF0A801B525167E8349B63D
:110437000100000C0000EC9C784694C1EB3482260A3B
:110438000306DCCCA854E02C967FF3E4481076BF5A27
:1104390003204FA3494B75770E4475E2840B6A60BE5D
:11043A00036A4376E05F69C330631E22C1603EA557F2
:11043B00034A495DDD523E20EF26BBA08C1F494E0579
:11043C000100000C0000EC9C306DD2367D274CD71797
:11043D000302CA49A66A355D28602A6FA53D2D3CBCCC
:11043E0003773C8B3E033D51B301882C9D4D15923470
:11043F000349D2139E001B01F44B98DBEA55E7C3E73F
:110440000306F7CE9C2ABBD4C655DBA8305A48D2F84E
:1104410001FE7FF400FE7FF09012622F5A4B0B780F61
:1104420001FE7FF400FE7FF0907580521B2B4A1D67DF
:1104430001FE7FF400FE7FF09054EA154B5205BDF394
:1104440001012E5400012E58C01F3373282443DEE2C8
:1104450001FE7FF400FE7FEFC80D05A9A54B90B5F917
:1104460001FE7FF400FE7FEF984A32E6624E5AFFA024
:1104470001FE7FF400FE7FEFA04BBB12FF1B7091D41F
:1104480001FE7FF400FE7FEFB04EF864B267096DBE1E
:1104490001FE7FF400FE7FEFB818CA785067246FB2B6
:11044A0001FE7FF400FE7FEFC073134B486E1C3E4ED4
:11044B0001FE7FF400FE7FEFA811D200C5007E6DA8DF
:11044C0001012E5400012E58C07C062D5075FEBFC3E0
:11044D000100000C00012E5BE0507DD0BB4AE8D50EBA
:11044E00036A1C48360B40DF4366FD0061443EC22CF5
:11044F000356D1953D317559ED4AC4D63A7721F1DC31
:1104500003025B3AC90D0FEB3D4154D83E252C94DD87
:11045100035C084FEF27A6946F409D26B14A7DA6E321
:1104520001012E5400012E58C074D2C83F0ECB042183
:1104530001012E5400012E5BE067E613877CE7426FAF
:1104540001012FDC0000727EF07B0F5C0D79B8144C26
:11045500022639C9777C0A80864E8D2DA53CADA969C1
:1104560002275C0B963A5468F1246477BE2E52219F8B
:1104570002326CE6F56EFE024C592752DB216BC78CD3
:11045800020283B64275FDEBDC69E3EC6A567C01E383
:110459000375BE419C73646FDA7D65B01764BC811401
:11045A00033E4D44E860B0C3E379B3C382463C1258C4
:11045B00036BF1A327553FAABF0A7AD48428698D1E52
:11045C000306B504AC60E057381F8B7EFA42C338648F
:11045D0001012E5400012E5BE809103F756DF04275B7
:11045E0001012E5400012E58C8538DE65849F8926465
:11045F000100A2940000A295E0503388613C15BD3D87
:110460000100A2940000A295E83ECB5AA35EFE8C82C5
:110461000100A2940000A295E018836C5326B16E2B72
:110462000100D5540000D545101392C86020698277E6
:110463000101301C0000A292C0594B7F08784F497596
:110464000271CFCB2A32E9614A20FEE1E23CF99241A1
:11046500023702170C1FE7FDE462BC9B1D12130ECA6E
:11046600020823C1FD2D7D52E1304DE52E5FBC914D34
:11046700022465B473271C9320199F1A4061ED6C62AE
:110468000372030CF75C63D66C1627C4144CAFEEE227
:110469000366DEAAF03366C0E80AFD33CA52B3D0DBAC
:11046A000352F23FE30168AC663EA574023C1E55AFE6
:11046B0003695879A74BE399D142D35A5C33D2971B82
:11046C000100000C0000D59F2011E56D991F71802AA8
:11046D00035B873D672A86C6996BBB6BF56218F5FAF7
:11046E0003513834C41CFD516D4117827C740AA9BAEB
:11046F00037648D0757FECBB8F079D721A71A1B73B8D
:110470000371EFC887642D51BB07C97B4F42F8BF5742
:110471000100A2940000A295E04DF5F32144A39962F4
:110472000100A2940000A295E84B0BFCAC015CB4090B
:110473000100D5940000D59F20072A525B544EF3EC1B
:1104740001FE7FF400FE7FEF9849FDACB708218B089C
:1104750001FE7FF400FE7FEFA015E1468929E4649929
:1104760001FE7FF400FE7FEFA83552C6B3159FD08EDD
:1104770001FE7FF400FE7FEFB010DA041A40269727BA
:1104780001FE7FF400FE7FEFB804E4ADD4115ECBEB4F
:1104790001FE7FF400FE7FEFC00C821FEE030083278C
:11047A0001FE7FF400FE7FEFC80C6EDB7E0AC9FE76B1
:11047B0001FE7FF400FE7FF0B07E5EA4056EF7503275
:11047C0001FE7FF400FE7FEFE043023D673A034CDE61
:11047D0001FE7FF400FE7FF070464B4ACB412D9F3933
:11047E000100EC940000EC9C604AFD04950B2B4BF1B2
:11047F000100000C0000E7A4C839073806210C927A55
:1104800003565F592D64A655FF4F06857138F6D9106D
:110481000324CCED273E1F89941AFF701467395D4708
:11048200037E3CF48178A02B096C1E0B1B362BB9120F
:1104830003050F068743F63AB0392C3C3934A32FE3DE
:110484000100000C0000E7A4A0036DAA8C32ED8AE2FE
:11048500036CF0D7C03E08BA5975571876466FE7F32E
:11048600035B09502957B837530CBB32BE2E1E76F97A
:110487000310BF6F595A5655643949C2EA002B710196
:110488000330B5AE9133D84C724F31F67249B64869DB
:110489000100EC940000EC9C7817EF0BD858A5399929
:11048A000100EC940000EC9C50040D16F30ED0F2AB73
:11048B000100D5D40000D5CBC87CAD41FD47FD2EE590
:11048C000100D5D40000D5CBA001BC48840BF36995F0
:11048D0001FE7FF400FE7FF0B80529F3113EE0F4770C
:11048E0001FE7FF400FE7FF0A04B99DB042BD1CC371C
:11048F0001012E5400012E58C058550DC359F0433058
:1104900001FE7FF400FE7FF0B0300D4516133A061BC6
:1104910001FE7FF400FE7FF10840CCB4706D905B7F6B
:1104920001FE7FF400FE7FF1080A82FCD91E460A1191
:1104930001FE7FF400FE7FF1086F38B557363515E954
:1104940001FE7FF400FE7FF108120DF7683A422CDD6C
:1104950001FE7FF400FE7FF0B833202DFB36EF6EDAD7
:1104960001FE7FF400FE7FF01808D5947038ABB75E85
:1104970001FE7FF400FE7FF0000C8D25823DD5AA6F0A
:1104980001FE7FF400FE7FF108059BCF09096F857482
:1104990001FE7FF400FE7FF0C03CB332EA61C49337B9
:11049A000100000C0000ADB5581560308D4ED3E6F55C
:11049B000361200C01529E8CBD11D1D84D289A36A8DF
:11049C00035D21899734709C39162A9228429E277FB5
:11049D00036AA5B22245F030F957F48F704C5A3EEEEE
:11049E000342BCC52E118864515E68365624E7DEFFD1
:11049F0001FE7FF400FE7FF090078688481A5DF8C24F
:1104A00001012E5400012E58C05843B4F726EB1E44C7
:1104A10001FE7FF400FE7FF0A067E1D61D2C86ED4DA4
:1104A20001FE7FF400FE7FF0902351C37A693A20382E
:1104A30001FE7FF400FE7FF0A038B1F408380E072D6A
:1104A40001FE7FF400FE7FF0A0614C2AB0192E132EB9
:1104A5000100EC940000EC9C607776BCD85BCC3AAD4E
:1104A6000100E7B40000E7A4802BE7591133C0CA1D48
:1104A70001012E5400012E58C0168D0B3479B0FB175C
:1104A80001FE7FF400FE7FF0903B74EA333C6DC0455A
:1104A90001FE7FF400FE7FF090174C380D43F4488E1E
:1104AA0001012E5400012E58C02BCF3D451C37FD8525
:1104AB000100E7B40000E7A4807E27ECEC0419D3A389
:1104AC0001FE7FF400FE7FF09059F02208276B971D17
:1104AD0001FE7FF400FE7FEFC8177CEA5A601D8B2594
:1104AE0001FE7FF400FE7FEF9866DB8AFA4169B5D6CD
:1104AF0001FE7FF400FE7FEFA008D8B85838E072AE96
:1104B00001FE7FF400FE7FEFA807F76F4C64C7CBC046
:1104B10001FE7FF400FE7FEFB05370652F7B54D6F4BC
:1104B20001FE7FF400FE7FEFB87D51916836C9C127F5
:1104B30001FE7FF400FE7FEFC038BB21F24E15F93404
:1104B40001FE7FF400FE7FEF980E82AB3F79E536793A
:1104B50001FE7FF400FE7FEFA00B3552CF780D236649
:1104B60001FE7FF400FE7FEFA8346EE7AD51FD456E78
:1104B70001FE7FF400FE7FEFB046E29CC3697A2FC845
:1104B80001FE7FF400FE7FEFB8116459065055BAC3A7
:1104B90001FE7FF400FE7FEFC075142877592E731B57
:1104BA0001FE7FF400FE7FEFC8349032966125E26730
:1104BB0001FE7FF400FE7FF09027CD06D2349647964E
:1104BC0001FE7FF400FE7FF09814BAD62531E7D8FE01
:1104BD000100727C00012FDEE03E1665BD6AA2FAF1E4
:1104BE000275BE419C73646FDA7D65B01764BC81149D
:1104BF00023E4D44E860B0C3E379B3C382463C125860
:1104C000026BF1A327553FAABF0A7AD48428698D1EEE
:1104C1000206B504AC60E057387B0F5C0D79B8144C6A
:1104C200032639C9777C0A80864E8D2DA53CADA96953
:1104C30003275C0B963A5468F1246477BE2E52219F1D
:1104C40003326CE6F56EFE024C592752DB216BC78C65
:1104C500030283B64275FDEBDC69E3EC6A567C01E315
:1104C6000100E7B40000E7A4802B663DE47925A63058
:1104C70001FE7FF400FE7FEFC834EE1390045AF8FF64
:1104C80001FE7FF400FE7FEF98428FBCDF38C9E0ADB3
:1104C90001FE7FF400FE7FEFA0779CFD4B7FAC7D7031
:1104CA0001FE7FF400FE7FEFA80CC7C8DD1110D677B5
:1104CB0001FE7FF400FE7FEFB0635C4A450624FEEE2E
:1104CC0001FE7FF400FE7FEFB872D13E5C3AB5318408
:1104CD0001FE7FF400FE7FEFC0670DFE32628238566A
:1104CE0001012E5400012E58C0569F94FD773D0E7B8F
:1104CF0001012FD400012FDEE07CFAECEF35537439A3
:1104D00001012E5400012E58C0716C3E1560B9B21D38
:1104D10001012FD400012FDEE05FC2C5B515A7C5AD5E
:1104D2000100000C00007BB7B87B26EB37462670BBC8
:1104D300037E87612F4FD47FD75837828C33F0CBE498
:1104D400035C9C48B544AE1FCC339D49552062816C65
:1104D500034AD31EBA5DF2AA8612935C6B3FF892FA70
:1104D600030A77DB0819D7CF8932C9D1560588503F28
:1104D70001012E5400012E58C86B93532070776486FF
:1104D80001012FD400012FDEE87E96A4376D72517584
:1104D90001FE7FF400FE7FEF987C3CF03F5EDE8F8A60
:1104DA0001FE7FF400FE7FEFA07308E2773EA155404B
:1104DB0001FE7FF400FE7FEFA86E2FCDAF04C7C5FBE6
:1104DC0001FE7FF400FE7FEFB022209993034F272B6F
:1104DD0001FE7FF400FE7FEFB855BDE2E823B1A89789
:1104DE0001FE7FF400FE7FEFC01A6C02B436450502B1
:1104DF0001FE7FF400FE7FEFC8653F216F1437AF88B0
:1104E00001FE7FF400FE7FF0986AC771AE1EAF8A905D
:1104E1000100E7B40000E7A4A052D1FA430A42DDB109
:1104E20001FE7FF400FE7FF0C03219915408D981E8F0
:1104E30001FE7FF400FE7FF0C046B49C9E0516722880
:1104E4000100EC940000EC9C303C095A05781F549FA0
:1104E50001012E5400012E5BE04705DD19664F224EB1
:1104E60001FE7FF400FE7FF0902A39E2B9086FBBE284
:1104E70001FE7FF400FE7FF0A05D4268315E2D9ECA5A
:1104E80001FE7FF400FE7FF0B06CE7365D7899A17F5D
:1104E90001FE7FF400FE7FF0C03C8497845DD8C2EEA3
:1104EA0001FE7FF400FE7FF0983EEBCA0248A0349CDD
:1104EB0001012FD400012FDEE05B2ACC081B722EDF1A
:1104EC000100EC940000EC9C3067E132954D8BC034EB
:1104ED0001FE7FF400FE7FEFC86209EA9614405CD2EB
:1104EE0001FE7FF400FE7FEF983B1132225049B6D8C0
:1104EF0001FE7FF400FE7FEFA052B9CEEE174F93F1CD
:1104F00001FE7FF400FE7FEFA86F2A31B6418976AB0A
:1104F10001FE7FF400FE7FEFB00EE9BBA81ECBDEDC6F
:1104F20001FE7FF400FE7FEFB8525AEE320BB315398B
:1104F30001FE7FF400FE7FEFC04C1125BE4837ACBE31
:1104F40001012E5400012E5BE059FF0CD2072376C073
:1104F50001012FD400012FDEE0069C7E77624E42C8B2
:1104F60001012E5400012E5BE03D7CCDCD4A2F755D69
:1104F70001012FD400012FDEE07D369F0C2C395FF4EB
:1104F80001007BB400007BB7B8262CF9F04206E27202
:1104F90001012E5400012E5BE87676B0C87EF67A7832
:1104FA0001012FD400012FDEE80DC644B9223534CDCE
:1104FB0001FE7FF400FE7FEF984F4FBB644DE3AB03DF
:1104FC0001FE7FF400FE7FEFA06E1B9A4057BFC00434
:1104FD0001FE7FF400FE7FEFA879CEAF7A5A3576846F
:1104FE0001FE7FF400FE7FEFB042065C383A83EFF2E5
:1104FF0001FE7FF400FE7FEFB84929D2F863729DFCAC
:1105000001FE7FF400FE7FEFC02B7815C027D37AE67A
:1105010001FE7FF400FE7FEFC875A78B1E39C018036A
:1105020001FE7FF400FE7FF09821E0EB125FED11F323
:110503000100EC940000EC9C50092B7D285663C2BB7F
:1105040001FE7FF400FE7FF0C0432FDE2D642A0775C0
:1105050001FE7FF400FE7FF0C06C5E70E83379C2D9DD
:110506000100D5D40000D5CB802476BF4C21955D1A48
:1105070001012E5400012E58602EE9FBE11B640C9466
:1105080001FE7FF400FE7FEFC8056E5E355D6A68CC3B
:1105090001FE7FF400FE7FEF9835F1CD5B26943BC464
:11050A0001FE7FF400FE7FEFA06D11BAF8520C5184FF
:11050B0001FE7FF400FE7FEFB061AE766347B3DCA2F1
:11050C0001FE7FF400FE7FEFB85381D0DA6994C7B452
:11050D0001FE7FF400FE7FEFC0075C0DC472C044DDB8
:11050E0001FE7FF400FE7FEFA83A2CC52635F0230AB3
:11050F0001012E5400012E58600F32B155224E93F333
:1105100001012E5400012E5860321C488746C5533FB5
:1105110001012E5400012E58602CC59FBE75AF4F208D
:1105120001012E5400012E586001A46D7A7B1DAD5547
:110513000100D59C0000727F183CC1600B11072B2889
:11051400025B873D672A86C6996BBB6BF56218F5FA50
:1105150002513834C41CFD516D4117827C740AA9BA44
:11051600027648D0757FECBB8F072A525B544EF3ECBB
:110517000271EFC887642D51BB07C97B4F42F8BF579B
:110518000303DC86D21E2135A9310F7AB063559BCFEF
:11051900037FCFAC0C7D15C9F63561ED541E855D633D
:11051A000366AA91AB27444C7E72EE4BF753517CE7A3
:11051B000331FE0FC114DA4FD15AAD8AAB596AD68862
:11051C0001007BD400007BCB500F5AF99220E1DA79A0
:11051D0001007BB400007BBCC0240D012631A98D8562
:11051E0001FE7FF400FE7FEF88562949AD786EE0C467
:11051F0001FE7FF400FE7FEF9002EEE96C6E1E2FE578
:1105200001FE7FF400FE7FEF90049356E6693BDD3ACE
:1105210001007BB400007BB3E8234AAA01159A820E2C
:1105220001FE7FF400FE7FEF8806A045D1197708E02E
:1105230001FE7FF400FE7FEF883C02332537FC6643EF
:1105240001FE7FF400FE7FEF903917FD1B2AEAB23AF0
:1105250001FE7FF400FE7FEF901FC28EC6522EFEB9EB
:1105260001FE7FF400FE7FEF88792D654E042D0E7A4C
:1105270001FE7FF400FE7FEF9008885EE1250EE8F477
:1105280001007BB400007BB3E81F2292293A31EC66C3
:1105290001FE7FF400FE7FEF88754BDBD732A0CD2B1F
:11052A0001012E5400012E5868783AC54320BEFD10A8
:11052B0001012E5400012E58687CCE1C2909FADA4A96
:11052C0001FE7FF400FE7FEF7812689E372446323548
:11052D0001FE7FF400FE7FEF482BDFA7175CB2BFC939
:11052E0001FE7FF400FE7FEF5063DC0D5B14EEF96A82
:11052F0001FE7FF400FE7FEF600EC6BF95207CAFF119
:1105300001FE7FF400FE7FEF6860F5BE4E06B7F12441
:1105310001FE7FF400FE7FEF706522CCC901CD8227D8
:1105320001FE7FF400FE7FEF580A31B5BD20F0145160
:1105330001011E9400011E80C0728006BC163BF02887
:1105340001011E9400011E80C06200AA710E76B56B82
:1105350001011E9400011E80C0380A981D0B44D194F7
:1105360001011E9400011E80C0315F2FCA1DAD6FCB14
:11053700010072740000727F28525A23D631540D4834
:1105380001011E9400011E80C82F0CE39F6D4B1DEB1A
:1105390001011E9400011E80C843FBDD09625A2BA9E2
:11053A0001FE7FF400FE7FEF4864788CFB772BC82E8F
:11053B0001FE7FF400FE7FEF506B307E1F052ACA024E
:11053C0001FE7FF400FE7FEF586CFE00461BB22AB61B
:11053D0001FE7FF400FE7FEF600DEE14976C6B77D1AA
:11053E0001FE7FF400FE7FEF68242A04BF6FC5921778
:11053F0001FE7FF400FE7FEF7032A0BA2A13DEA96DA0
:1105400001FE7FF400FE7FEF783DE58BBE41F29B0E0D
:1105410001FE7FF400FE7FEF885B92FB89144CBEE4D0
:1105420001FE7FF400FE7FEF882520126C4359A283BE
:1105430001FE7FF400FE7FEF90528936A907557F8D17
:1105440001FE7FF400FE7FEF900EB91A7C6BCE0C880E
:1105450001FE7FF400FE7FEF882BDEBC9E56FE8AA757
:1105460001FE7FF400FE7FEF982E272B8843FC8AED70
:1105470001FE7FF400FE7FEFA03AA1503051EA9F856B
:1105480001FE7FF400FE7FEFA8399B7B937614A444C8
:1105490001FE7FF400FE7FEFB01A96516828B55E6F00
:11054A0001FE7FF400FE7FEFB8339BBF5A669AEA2D0C
:11054B0001FE7FF400FE7FEFC07E005D16422DE5B705
:11054C0001FE7FF400FE7FEFC879B9081A674DF823D5
:11054D0001FE7FF400FE7FF09062BCD10939D72ECC2C
:11054E0001FE7FF400FE7FF0A02E1AC5A24890494904
:11054F0001FE7FF400FE7FF0B070A48269746F05E73E
:1105500001FE7FF400FE7FF0C0385909322296316FD7
:1105510001FE7FF400FE7FF0981BBFBAB15D37819F29
:1105520001012FD400012FDEE06B91E40216D2FD33AB
:110553000100D5D40000D5CBA02B299F6B31694E9BCC
:1105540001FE7FF400FE7FF0907EA0044165050DF657
:11055500010000140000000000527D8F5B1409042581
:1105560001FE7FF400FE7FF0C814AB75123DBEC2EDFD
:110557000100001400000000005CBE73277BF96D35B4
:1105580001FE7FF400FE7FF0E03F7B443035D09C0103
:1105590001FE7FF400FE7FF0B06D9609D27E60E54A17
:11055A000100001400000000007F65F2715E3A8C3BD5
:11055B0001FE7FF400FE7FF0D036976A791693956D85
:11055C0001000014000000000015661CA131C56D6E70
:11055D0001FE7FF400FE7FF0E0729D9E407EDE0FE88E
:11055E0001FE7FF400FE7FF0A009709B73420B56A63D
:11055F00010000140000000000490ED38C3AD9EA0FB4
:1105600001FE7FF400FE7FF0D047AED7CD1FDEF80548
:11056100010000140000000000006B8B2F5BB7DBF270
:1105620001FE7FF400FE7FF0E81517004119769EDF48
:1105630001FE7FF400FE7FF0C011106D764444C31881
:110564000100001400000000001F1E1A6946E109770A
:1105650001FE7FF400FE7FF0D80CB4243B4541EEC279
:1105660001000014000000000062DDBA9A6AEEB0775D
:1105670001FE7FF400FE7FF09819752513018245E49A
:110568000100AAF40000AAE3004D77F6944B3A928170
:1105690001000014000000000033D59603401594D50D
:11056A0001FE7FF400FE7FF0D851BACA254986304888
:11056B000100001400000000000C23F9101AC99DB101
:11056C0001FE7FF400FE7FF0E83A11F4E46278757FC6
:11056D000100E7B40000E7A4803A7D80133E3051715C
:11056E0001012E5400012E58C04F94805457A6F051BC
