:110000000100000800FE7FF048327B23C6643C9869FA
:1100010003327B23C6643C98696633487374B0DC510F
:1100020003625558EC238E1F2919495CFF2AE8944A49
:1100030003507ED7AB2EB141F246E87CCD3D1B58BAA6
:11000400037545E146515F007C41B71EFB79E2A9E3E3
:110005000100000800FE7FF088122008544DB127F841
:1100060003122008544DB127F80216231B1F16E9E8DF
:1100070003140E0F763352255A1190CDE766EF438DC0
:11000800037FDCC2331BEFD79F109CF92E0DED726372
:11000900034E6AFB6625E45D3241A7C4C96B68079A49
:11000A000100000800FE7FEFD0431BD7B73F2DBA315D
:11000B000362BBD95A436C61257C83E458257130A3B8
:11000C0003628C895D333AB105431BD7B73F2DBA31A6
:11000D00032D1D5AE96763845E721DA3172443A858F6
:11000E000379838CB24353D0CD75A2A8D408EDBDAB81
:11000F000100000800012FF228189A769B54E49EB440
:11001000030836C40E02901D8271F324542CA8861154
:11001100031E7FF5217C3DBD3D3A95F8740813864158
:1100120003189A769B54E49EB4737B8DDC6CEAF08769
:11001300033006C83E614FD4A122221A704516DDE989
:1100140001012FE000012FF20071F324542CA8861161
:1100150001FE7FE000FE7FEFC862BBD95A436C6125C3
:1100160001FE7FE000FE7FEFC07C83E458257130A3AB
:110017000100000800FE7FEFB83804823E77465F0192
:11001800032463B9EA5E884ADC7724C67E5C482A975A
:1100190003580BD78F153EA43851EAD36B2D517796D7
:11001A00036A2342EC2A487CB03855585C70A64E2AAA
:11001B00033804823E77465F011D4ED43B725A06FB71
:11001C0001FE7FE000FE7FEFB01D4ED43B725A06FB12
:11001D0001FE7FE000FE7FEFA86A2342EC2A487CB007
:11001E0001FE7FE000FE7FEFA03855585C70A64E2A98
:11001F0001FE7FE000FE7FEF98580BD78F153EA43876
:1100200001012FE000012FF20071F324542CA8861155
:1100210001012FE000012FF2080836C40E02901D8252
:11002200010000080000A295E038437FDB7644A45C1E
:1100230003579478FE749ABB4332FFF902684A481A1C
:110024000379A1DEAA75C6C33A3DC240FB1BA026FAD9
:110025000312E685FB70C6A52938437FDB7644A45CBC
:11002600034F4EF00523F9C13C520EEDD1374A3FE657
:110027000100A2800000A295E812E685FB70C6A5290A
:11002800010000080000D5CBF0275AC7943938657507
:1100290003235BA86147398C891CF10FD8180115BEC7
:11002A0003741226BB0D34B6A8354FE9F915B5AF5C81
:11002B0003615740957E0C57B110233C993F6AB60F2C
:11002C000377AE35EB579BE4F1275AC794393865758D
:11002D000100A2800000A295E038437FDB7644A45CF9
:11002E000100A2800000A295E812E685FB70C6A52903
:11002F000100D5C00000D5CBF0275AC7943938657573
:110030000100A2800000A295E038437FDB7644A45CF6
:110031000100A2800000A295E812E685FB70C6A52900
:110032000100D5C00000D5CBF877AE35EB579BE4F183
:110033000100D5C00000D5CBF877AE35EB579BE4F182
:1100340001012FE000012FF20071F324542CA8861141
:1100350001012FE400012FF2004AD084E91F48EAA10A
:11003600010000080000A296201381823A5DB70AE505
:110037000315014ACB5F5E7FD0100F8FCA6590700B96
:110038000306B9476442C296BD098A3148799D024788
:1100390003168E121F1EBA5D231381823A5DB70AE533
:11003A0003540A471C7BD3EE7B661E3F1E5DC79EA8EF
:11003B0001012FF000012FF2080836C40E02901D8228
:11003C00010000080000D5CB800BF72B1411447B7306
:11003D000342963E5A0A0382C50BF72B1411447B7367
:11003E00033B0FD37968EB2F6308F2B15E1A32234B70
:11003F000306A5EE64143306244962813B60B6DF7073
:110040000371EA1109100F59DC7FFFCA111A27709E3B
:110041000100000800012E586006EB5BD46F6DD9AC3D
:1100420003762721104C04A8AF094211F200885E1BE6
:11004300033222E7CD74DE0EE31716703B14E17E33E0
:110044000368EBC5502DF6D64806EB5BD46F6DD9AC7E
:110045000339EE015C57FC4FBB46B7D4474A2AC31562
:110046000100D5C00000D5CB9008F2B15E1A32234B20
:1100470001FE7FE000FE7FEF98580BD78F153EA4384E
:1100480001FE7FE000FE7FEFA03855585C70A64E2A6E
:1100490001FE7FE000FE7FEFA86A2342EC2A487CB0DB
:11004A0001FE7FE000FE7FEFB01D4ED43B725A06FBE4
:11004B0001FE7FE000FE7FEFB83804823E77465F0109
:11004C0001FE7FE000FE7FEFC07C83E458257130A375
:11004D0001FE7FE000FE7FEFC862BBD95A436C61258B
:11004E0001FE7FE000FE7FF06046E87CCD3D1B58BA95
:11004F0001FE7FE000FE7FF05019495CFF2AE8944AD8
:110050000100000800013012406AA78F7F7672BD232C
:11005100036FC75AF86A5F70296AA78F7F7672BD23CA
:110052000373A1821B7DE677137D5E18F85F3534A4A5
:110053000314FCE74E6A3DD3E8555C55B53FA62ACA5E
:1100540003532999381FBFE8E071C9129809DAF632B6
:11005500010130000001301260555C55B53FA62ACA31
:1100560001012FF000012FF220737B8DDC6CEAF08712
:1100570001FE7FE000FE7FF06046E87CCD3D1B58BA8C
:1100580001FE7FE000FE7FF088122008544DB127F899
:110059000100000800FE7FF1201D9F6E5F097E1B4E86
:11005A000353584BCB415E286C510882771CA0C5FAD1
:11005B000345E6D4865C10FE217C58FD0523D86AAC9A
:11005C00030E7FFA2B3C5991AA1D9F6E5F097E1B4E95
:11005D000339B7AAA22B0D8DBE4BD8591A78DF6A5524
:11005E0001FE7FE400FE7FF118379E21B50069E3733F
:11005F0001FE7FF000FE7FF118379E21B50069E37332
:1100600001FE7FE000FE7FEFD0431BD7B73F2DBA31B2
:1100610001012FF000012FF228189A769B54E49EB4D6
:1100620001012FF000012FF2004AD084E91F48EAA1D1
:1100630001012FF000012FF2080836C40E02901D8200
:110064000100A2800000A295E038437FDB7644A45CC2
:1100650001FE7FE000FE7FF0406633487374B0DC51DA
:110066000100A2800000A295E812E685FB70C6A529CB
:110067000100D5C00000D5CBF877AE35EB579BE4F14E
:1100680001FE7FE000FE7FF0406633487374B0DC51D7
:1100690001FE7FF000FE7FF1201D9F6E5F097E1B4E11
:11006A0001FE7FF400FE7FF1204F97E3E4053B0A9EF0
:11006B0001FE7FF000FE7FF118379E21B50069E37326
:11006C0001FE7FF000FE7FF118379E21B50069E37325
:11006D0001FE7FE000FE7FF06046E87CCD3D1B58BA76
:11006E0001FE7FF000FE7FF1204F97E3E4053B0A9EF0
:11006F0001FE7FE000FE7FF088122008544DB127F882
:1100700001FE7FE000FE7FEFD0431BD7B73F2DBA31A2
:1100710001FE7FE000FE7FEFE0721DA3172443A85824
:11007200010000080000D5C8805D888A082A082C7012
:11007300035EC6AFD419E21BB25D888A082A082C70C5
:11007400035399C65420EE134875E0858A57A61A2965
:11007500032157F6BC704E1DD54427069A0B37E80A5E
:11007600030E3E47A82E48F04457D2F10E0BFFAE1899
:1100770001FE7FE000FE7FF06046E87CCD3D1B58BA6C
:1100780001FE7FE000FE7FF088122008544DB127F879
:1100790001FE7FE000FE7FF06046E87CCD3D1B58BA6A
:11007A0001FE7FF000FE7FF1107C58FD0523D86AACA2
:11007B0001FE7FF000FE7FF1107C58FD0523D86AACA1
:11007C0001FE7FE000FE7FEFD0431BD7B73F2DBA3196
:11007D00010000080000AA86282A31B62D1849C29B15
:11007E000369E7F3E52A6DE8067DFF9D0900754342A5
:11007F00037AB49DAF759F82CD1816F8C437DF22333B
:11008000032A31B62D1849C29B61E74EA3597B4D8492
:1100810003312167AD631B64D40F819E7F57C7D42D83
:1100820001012FF000012FF228189A769B54E49EB4B5
:1100830001FE7FE000FE7FEFF075A2A8D408EDBDABC2
:1100840001012FF000012FF2004AD084E91F48EAA1AF
:1100850001FE7FE000FE7FF048327B23C6643C986920
:1100860001FE7FF000FE7FF1107C58FD0523D86AAC96
:1100870001FE7FE000FE7FEFE0721DA3172443A8580E
:1100880001012FF000012FF2004AD084E91F48EAA1AB
:1100890001FE7FE000FE7FEFC862BBD95A436C61254F
:11008A0001FE7FE400FE7FEFC06FDE8AF63FC32E20BA
:11008B0001FE7FE000FE7FEFB83804823E77465F01C9
:11008C0001FE7FE000FE7FEFB01D4ED43B725A06FBA2
:11008D0001FE7FE000FE7FEFA86A2342EC2A487CB097
:11008E0001FE7FE000FE7FEFA03855585C70A64E2A28
:11008F0001012FF000012FF2004AD084E91F48EAA1A4
:1100900001012FF000012FF2080836C40E02901D82D3
:110091000100A2800000A295E038437FDB7644A45C95
:110092000100A2800000A295E812E685FB70C6A5299F
:110093000100D5C00000D5CBF0275AC794393865750F
:110094000100D5C00000D5C8805D888A082A082C7063
:11009500010000080000D5C85017180B0B579328B954
:11009600034D32AB863F07ACC35D205E2011CCA8BAB7
:11009700036B47F63E5CB44A0517180B0B579328B900
:11009800033FCFAED90F85686716CF80F11C695DEC38
:1100990003299346997748585011B1CC332E22FBB78E
:11009A000100000800011E80C04FA0D2E36B1D2C1481
:11009B000368B867D33F7F5DD94FA0D2E36B1D2C1497
:11009C00035454945E4DEFDFA02AE05A3432794FF772
:11009D0003094927A80DCDF8F62123D5F2135B81105C
:11009E000324E604012A6AD9BE52D7B1052E8A639486
:11009F000100D5C00000D5C87011B1CC332E22FBB7EA
:1100A0000100D5C80000D56870779D85444AB26E7845
:1100A100036181EF693E6400E621FAA2FA5451CF4915
:1100A200035015CD1A424479DA14217E23710757D0B0
:1100A30003368DB37E6A3B714C1A9A9E69475E256A04
:1100A40003327B517E1F461B51779D85444AB26E783C
:1100A5000100000800012E5B205D5BABB351BF6B48BE
:1100A6000372E3413A116AE4947E0F63842B4B8B53BB
:1100A7000364429599631F16903494B2FB00B13A31B8
:1100A8000325973E320EAD6F575D5BABB351BF6B48BE
:1100A90003064AF49B397C46BC6EC9D8445C49EAEEDD
:1100AA0001012E4000012E5B205D5BABB351BF6B4852
:1100AB0001012FF000012FF2004AD084E91F48EAA188
:1100AC0001012E4000012E5B2825973E320EAD6F5774
:1100AD000100A2800000A295E038437FDB7644A45C79
:1100AE00010000080000A291F03CA88ECF6EBE42085E
:1100AF00033102BBE226A02C5E0C058DF50CBE5BE97C
:1100B0000310DB9DAA0697D2D2541C815367906F60BF
:1100B1000363F37E855895F5FA06D68AB23A966CD0E2
:1100B2000338A5D0540F3F09D83CA88ECF6EBE420853
:1100B300010000080000D56A304A10B4E843D3BCD428
:1100B4000326F2D36471C1AF984C2A71662E534A82D6
:1100B500034E0B9A87434BAE753D00B9D915BCABA819
:1100B600031DE8725A6A37288A4F38F2654C50287000
:1100B7000308F8B73F0CA6B4624A10B4E843D3BCD4DB
:1100B8000100D5640000D56A3015B713293DA97044EC
:1100B9000100A2800000A295E038437FDB7644A45C6D
:1100BA000100A2800000A295E812E685FB70C6A52977
:1100BB00010000080000A291901CDCE2DE69D3947C64
:1100BC0003706B674E2C106A572539DFA52DB88089D3
:1100BD0003684EED59545EE5D31CDCE2DE69D3947CC5
:1100BE0003639DEFAC501F978604A6605120F4BDAD2E
:1100BF00031C4A08EC1958BD176B0572952771AC8053
:1100C0000100D5700000D56A3015B713293DA97044D8
:1100C1000100A2800000A295E038437FDB7644A45C65
:1100C200010130080000A292500E0BB885565976F103
:1100C3000319A52566335A1DF164212B8C5C17530C37
:1100C4000328677B7C378D97C00E0BB885565976F11B
:1100C5000344344C2213CDFCFC1D91467C316032BB7B
:1100C6000330AADFDA30EADA61471745E401DDBC66B7
:1100C7000100D5C00000D5CBF0275AC79439386575DB
:1100C8000100A2800000A295E038437FDB7644A45C5E
:1100C9000100A2800000A295E812E685FB70C6A52968
:1100CA000100D5C00000D5CBF0275AC79439386575D8
:1100CB000100000800017864085328066246B24DBC52
:1100CC00035328066246B24DBC75B5278357CE66B429
:1100CD000327EDFE3A52AC7DFF67A70B695953172FE5
:1100CE00036C053B164F29439300C4C3AF443807272E
:1100CF0003334A6F1F2E5B12B85243BFAC425EB20766
:1100D00001017860000178641067A70B695953172FE4
:1100D10001FE7FE80000AAF06066A48D1156C28E343C
:1100D200030822C0EF57C5BB4F13916F2D0435D38D42
:1100D3000359A377B648AEB0631803D0894F3A06D410
:1100D400030024E13500BB13C166A48D1156C28E34CD
:1100D5000353E31A246DC45E83271210C7217B22E4DF
:1100D6000100A2800000A29600100F8FCA6590700BD6
:1100D70001000008000170BFC02BB180D8556B69EDD5
:1100D8000370836196539F7F122BB180D8556B69ED5D
:1100D9000317D78639141D23022817E7EC71482545DB
:1100DA0003567BD50A73BBD7F8407168D86A1B45E5C5
:1100DB00035A6065096F38E6D11876589D327FAC7734
:1100DC000100000800016223485E963896775BA7C140
:1100DD00035E963896775BA7C11DD6D6F4769A091F1E
:1100DE00033F48B98246BA8FCA4695AE95777A4EAAEC
:1100DF00036835B2AE4C187C907835626C665ACA4952
:1100E0000377C9FD68298A92BA541F28CD7F65FD1609
:1100E10001000008000165E2104B697C7A51A27AA6F0
:1100E2000365BF9DA821A2ECCA613183F2634102B4C7
:1100E300034D5C48993C3B72B24B697C7A51A27AA627
:1100E400036EBB1F2A6FBF29CB155EC4C265D2A1376C
:1100E500034E5562614C672FC9550B880834CC3ACFFD
:1100E6000100A2800000A295F84F4EF00523F9C13C0C
:1100E7000101622000016223401DD6D6F4769A091FC9
:1100E800010165E4000165E20812FCDE5E4A1D606EED
:1100E9000100A2800000A295F84F4EF00523F9C13C09
:1100EA000100A2800000A291A8639DEFAC501F9786E0
:1100EB0001000008000164EEB859B76E284252C2DA1A
:1100EC00030E6B3F6A3EB218196A92EF4C41ED20D761
:1100ED0003683CAAD3313C7C9941531DED06353CD275
:1100EE0003126E008B34DFBC00519EB94C39DF25797A
:1100EF000359B76E284252C2DA1F9EC3223410ED56FE
:1100F0000100A288000164F2405BDA35D4496FB2187D
:1100F10003680EA5D14A9554FE5BDA35D4496FB2181E
:1100F200037F618FCD07843E45392EDBE43D1A2DD92D
:1100F300034C73A9C61C7E3C0109815DA35204A191E2
:1100F400037635AA2A5E74C4D91C2201FF50ABCEC93A
:1100F500010164E0000164EEB859B76E284252C2DAD3
:1100F6000100A2800000A291901CDCE2DE69D3947C0F
:1100F70001017860000178641067A70B695953172FBD
:1100F800010164E0000164EEB859B76E284252C2DAD0
:1100F900010164E0000164F2405BDA35D4496FB21859
:1100FA0001FE7FE000FE7FEFA03855585C70A64E2ABC
:1100FB0001FE7FE000FE7FEFA86A2342EC2A487CB029
:1100FC0001FE7FE000FE7FEFB01D4ED43B725A06FB32
:1100FD0001FE7FE000FE7FEFB83804823E77465F0157
:1100FE0001FE7FF000FE7FEFC06FDE8AF63FC32E203A
:1100FF0001FE7FF000FE7FEFC862BBD95A436C6125C9
:1101000001FE7FF000FE7FEFC862BBD95A436C6125C7
:1101010001FE7FF000FE7FEFC06FDE8AF63FC32E2036
:1101020001FE7FE000FE7FEFB83804823E77465F0151
:1101030001FE7FE000FE7FEFB01D4ED43B725A06FB2A
:1101040001FE7FE000FE7FEFA86A2342EC2A487CB01F
:1101050001FE7FE000FE7FEFA03855585C70A64E2AB0
:1101060001FE7FE000FE7FEF98580BD78F153EA4388E
:1101070001012FF000012FF2004AD084E91F48EAA12B
:1101080001012FF000012FF2004AD084E91F48EAA12A
:1101090001012FF000012FF2080836C40E02901D8259
:11010A000100A2800000A295E038437FDB7644A45C1B
:11010B000100A2800000A295E812E685FB70C6A52925
:11010C000100D5C00000D5CBF877AE35EB579BE4F1A8
:11010D0001FE7FE000FE7FEF98580BD78F153EA43887
:11010E0001FE7FE000FE7FEFA03855585C70A64E2AA7
:11010F0001FE7FE000FE7FEFA86A2342EC2A487CB014
:1101100001FE7FE000FE7FEFB01D4ED43B725A06FB1D
:1101110001FE7FE000FE7FEFB83804823E77465F0142
:1101120001FE7FF000FE7FEFC06FDE8AF63FC32E2025
:1101130001FE7FF000FE7FEFC862BBD95A436C6125B4
:1101140001012FF000012FF2004AD084E91F48EAA11E
:1101150001012FF000012FF2080836C40E02901D824D
:110116000100A2800000A295E038437FDB7644A45C0F
:110117000100A2800000A295E812E685FB70C6A52919
:110118000100D5C00000D5CBF0275AC7943938657589
:1101190001FE7FF000FE7FF1107C58FD0523D86AAC02
:11011A0001FE7FF000FE7FEFE82D1D5AE96763845ED9
:11011B0001012FF000012FF2004AD084E91F48EAA117
:11011C0001FE7FF000FE7FF1107C58FD0523D86AACFF
:11011D0001012FF000012FF2004AD084E91F48EAA115
:11011E0001FE7FF000FE7FEFE82D1D5AE96763845ED5
:11011F0001FE7FF000FE7FEFE0721DA3172443A85865
:1101200001FE7FF000FE7FEFC862BBD95A436C6125A7
:1101210001FE7FF000FE7FEFC06FDE8AF63FC32E2016
:1101220001FE7FE000FE7FEFB83804823E77465F0131
:1101230001FE7FE000FE7FEFB01D4ED43B725A06FB0A
:1101240001FE7FE000FE7FEFA86A2342EC2A487CB0FF
:1101250001FE7FE000FE7FEFA03855585C70A64E2A90
:1101260001FE7FE000FE7FEF98580BD78F153EA4386E
:1101270001012FF000012FF2004AD084E91F48EAA10B
:1101280001FE7FE000FE7FEF9051EAD36B2D51779668
:1101290001012FF000012FF2080836C40E02901D8239
:11012A000100A2800000A295E038437FDB7644A45CFB
:11012B000100A2800000A295E812E685FB70C6A52905
:11012C000100D5C00000D5CBF0275AC7943938657575
:11012D0001012FF000012FF2004AD084E91F48EAA105
:11012E00010000080000A29720763B8C4E4CFB8D32CD
:11012F00037775797C1626FB8C62A5D5BD718FABF9DB
:110130000365CA235B51CB0DA43957756A3E6DA1C7BF
:11013100037B9B743C13E21002763B8C4E4CFB8D325C
:11013200032EDA00ED73209072257D63F470EC11B217
:110133000100AAE80000D5D0403CE732EC22F13DF3BF
:1101340003792B84010FA85F4D3CE732EC22F13DF3A7
:11013500035BFD421076574F8B6ECE91F04FC4D600BF
:11013600031565AC9919FB2650178F7B672421DFCFF1
:11013700031036B29F1D206B8E5024DE5B168EFE1781
:110138000100A2800000A29720763B8C4E4CFB8D32A9
:11013900010000080000D5D03001C65E981495E50A82
:11013A0003530386D17525F2BC0F5BCF613B1DD403F3
:11013B0003090802BE3266459B0CE8E1A74E9EFB0DF7
:11013C00032586D60E1F3DA4D53F8B0CBF37E203ABEF
:11013D000374C936984878140101C65E981495E50A79
:11013E000100D5C00000D5D03874C93698487814015D
:11013F0001012FF000012FF2004AD084E91F48EAA1F3
:110140000100D5C00000D5D0705024DE5B168EFE179D
:1101410001FE7FE000FE7FEF882463B9EA5E884ADC25
:1101420001FE7FE000FE7FEF807724C67E5C482A971E
:110143000100000800FE7FEF787FBD7A3E0490B7C5BA
:110144000354B596215992A02E4303A21619B8A08E31
:110145000352C774022BB5B1C629EF532D71D601AF31
:110146000366D385C9596F6D8A066BE6B96223436324
:11014700037FBD7A3E0490B7C55749361F73BC6770A5
:1101480001FE7FE000FE7FEF705749361F73BC677071
:1101490001FE7FE000FE7FEF4854B596215992A02E1A
:11014A000100000800FE7FEF386799755618333C891C
:11014B00030CFC73211421971B4BA9831A06D71A2B6A
:11014C00034B683D0D076E41D81F404301116E0907E2
:11014D0003072BBC16766D98C271DCE0FD7906328BF7
:11014E00036799755618333C893C09D4A120E45CA404
:11014F0001FE7FE000FE7FEF5852C774022BB5B1C697
:1101500001FE7FE000FE7FEF5029EF532D71D601AFF5
:1101510001FE7FE000FE7FEF386799755618333C89C0
:1101520001FE7FE000FE7FEF386799755618333C89BF
:1101530001FE7FE000FE7FEF303C09D4A120E45CA4E3
:1101540001FE7FE400FE7FEF284365174B4A872C3568
:1101550001FE7FF000FE7FEF2071DCE0FD7906328B39
:1101560001FE7FF000FE7FEF184B683D0D076E41D81B
:1101570001FE7FF000FE7FEF101F404301116E09077B
:1101580001FE7FF000FE7FEF080CFC73211421971B31
:11015900010164E800FE7FEE8002219B33773BFBDDE1
:11015A00032C7C62C21A54D7BC02219B33773BFBDD49
:11015B000327514ADE5707161342E57EF733537CEDDE
:11015C0003226F53205A0201C75293BFEF38BF53E5A5
:11015D0003612DBDDD2109CDA42A9C34E21B7585AB2F
:11015E000100000800FE7FEE2802121A816C2CFC8829
:11015F000329262D1A557FB7EE6D1BCF1C4CE5CA53BC
:11016000032006E42420CC134C436F2BEB6C8B4466A9
:110161000302121A816C2CFC88095FC93B41D746797C
:110162000343F8E1AC69215DFB71E5621E4E42B6A81B
:1101630001FE7FE000FE7FEF4854B596215992A02E00
:1101640001012FF000012FF2004AD084E91F48EAA1CE
:1101650001012FF000012FF2080836C40E02901D82FD
:1101660001FE7FE400FE7FEE18059F0446030DF306AC
:1101670001FE7FF000FE7FEE10436F2BEB6C8B446635
:1101680001FE7FF000FE7FEE0829262D1A557FB7EE96
:1101690001FE7FF000FE7FEE006D1BCF1C4CE5CA53EB
:11016A0001FE7FE000FE7FEF5852C774022BB5B1C67C
:11016B00010000080000A21DB868FA8D0D40F2CBD238
:11016C00031872261F3DE8306C3BD615EB0A045AB2C4
:11016D00030ACDFAC01F5784547631573A058DF53BA5
:11016E00030BE2C8BA7B14914E5B0DAD2A4E3D26AB05
:11016F000368FA8D0D40F2CBD26F0939F8154291F62A
:1101700001000008000188945860EE9C166385489E32
:11017100035E4462085F3272DB00E4B9734A0FFA111C
:110172000360EE9C166385489E7616D7040C56F8608A
:11017300030CFD4EA7232FCF4D64D177227924CA0ACD
:11017400030C2A5C5B5F94DC031EA2103167A5A6B550
:110175000100A2000000A21DB868FA8D0D40F2CBD294
:11017600010188840001889470162EB70D7807022232
:110177000101889000018894780C2A5C5B5F94DC0309
:1101780001FE7FE000FE7FEF5029EF532D71D601AFCD
:110179000101889000018894680CFD4EA7232FCF4D6A
:11017A00010188900001889470162EB70D7807022222
:11017B0001018890000188946064D177227924CA0A9D
:11017C0001018890000188945860EE9C166385489E15
:11017D0001FE7FE400FE7FEF50379A5B5653B735D5BD
:11017E0001FE7FF400FE7FEF584CDCED4C10A30D9C7D
:11017F0001FE7FF000FE7FEF60066BE6B962234363FA
:1101800001FE7FF000FE7FEE006D1BCF1C4CE5CA53D4
:1101810001FE7FF000FE7FEE0829262D1A557FB7EE7D
:1101820001FE7FF400FE7FEE100EA697F270BA39EBF4
:1101830001FE7FF000FE7FEE18059F0446030DF30683
:1101840001FE7FF000FE7FEE2802121A816C2CFC889E
:1101850001FE7FE000FE7FEE882C7C62C21A54D7BC4B
:1101860001FE7FE000FE7FEE882C7C62C21A54D7BC4A
:1101870001FE7FE000FE7FEE8002219B33773BFBDDA3
:1101880001FE7FF000FE7FEF4854B596215992A02ECB
:1101890001012FF000012FF2004AD084E91F48EAA1A9
:11018A000100000800007BCB280FA085B004E5DCB58F
:11018B00031B1493C239F06DFD41E96BDB331C4250F8
:11018C00033785655A00B2172A14802F5D2774A2098B
:11018D00030FA085B004E5DCB5532C34A5102809E285
:11018E000363DF3FB764996E133B2125A30AC68FFB29
:11018F000100000800007BBCB857A37D4774824D5412
:1101900003060A1463437731326F00529A0805B3316B
:11019100030E04E6CE31A9DB7616AC4B2376C44E4E63
:110192000359A4BA71450B7FB64C4FFF5B51B76675D4
:110193000357A37D4774824D54340BF64D6945402172
:1101940001FE7FE000FE7FEE9042E57EF733537CED76
:1101950001FE7FF400FE7FEF001C6182716505F02E83
:110196000100000800FE7FEE4830E1B1CF0C7A9237BC
:110197000330E1B1CF0C7A9237676B35803193C8F968
:11019800036CB4EE9C6A6D56D75FA6C6DC77933F6253
:11019900034210D41E4FF4CC6D5B727F19514E5CB082
:11019A000355FEE0D103C5E07C404EAF4A4A16874F6C
:11019B0001FE7FF000FE7FEF001C6182716505F02E81
:11019C0001FE7FE000FE7FEE9042E57EF733537CED6E
:11019D0001FE7FF000FE7FEF001C6182716505F02E7F
:11019E000100000800007BB3F0126CADE919132E7B40
:11019F00035E1EAE31178E240D63822DC06C11685A0A
:1101A000030D83863671B82AED5556A87B28100A9C13
:1101A100032299DCBC19908D020D15FACA3D69565B82
:1101A2000324D48BDB542DA5B5126CADE919132E7B27
:1101A30001FE7FF000FE7FEF001C6182716505F02E79
:1101A40001FE7FF000FE7FEF001C6182716505F02E78
:1101A50001FE7FE000FE7FEE4830E1B1CF0C7A923758
:1101A60001FE7FF000FE7FEF001C6182716505F02E76
:1101A70001FE7FF000FE7FEF001C6182716505F02E75
:1101A80001FE7FE000FE7FEE9042E57EF733537CED62
:1101A90001FE7FF000FE7FEF001C6182716505F02E73
:1101AA0001007BA000007BB3F0126CADE919132E7B21
:1101AB0001FE7FF000FE7FEF001C6182716505F02E71
:1101AC0001FE7FF000FE7FEF001C6182716505F02E70
:1101AD0001FE7FE000FE7FEE4830E1B1CF0C7A923750
:1101AE0001FE7FF000FE7FEF001C6182716505F02E6E
:1101AF0001FE7FE400FE7FEE88508ED8976A9126B5C7
:1101B00001FE7FF000FE7FEF080CFC73211421971BD9
:1101B10001FE7FF400FE7FEF1003A455304B9275D2FF
:1101B20001FE7FF000FE7FEF184B683D0D076E41D8BF
:1101B30001FE7FF000FE7FEF2071DCE0FD7906328BDB
:1101B40001FE7FF400FE7FEF282463975609D30DFDDA
:1101B50001FE7FF000FE7FEF303C09D4A120E45CA471
:1101B60001FE7FF000FE7FEF386799755618333C894B
:1101B70001FE7FF400FE7FEF502E0D767138B59EFF5D
:1101B800010188900001889470162EB70D78070222E4
:1101B9000101889000018894680CFD4EA7232FCF4D2A
:1101BA000101889000018894780C2A5C5B5F94DC03C6
:1101BB0001018890000188945860EE9C166385489ED6
:1101BC0001FE7FF000FE7FEF386799755618333C8945
:1101BD0001FE7FF000FE7FEF502E0D767138B59EFF5B
:1101BE000100A2000000A21DB868FA8D0D40F2CBD24B
:1101BF0001018890000188945860EE9C166385489ED2
:1101C00001018890000188945860EE9C166385489ED1
:1101C1000100A2000000A21DB868FA8D0D40F2CBD248
:1101C20001FE7FF000FE7FEF584CDCED4C10A30D9C3D
:1101C30001FE7FF000FE7FEF502E0D767138B59EFF55
:1101C40001FE7FF000FE7FEF386799755618333C893D
:1101C50001FE7FF000FE7FEF705749361F73BC6770E4
:1101C60001FE7FF000FE7FEF787FBD7A3E0490B7C5D2
:1101C70001FE7FE000FE7FEF807724C67E5C482A9799
:1101C80001FE7FE000FE7FEF882463B9EA5E884ADC9E
:1101C9000100D5C00000D5D0705024DE5B168EFE1714
:1101CA000100D5C00000D5D0506ECE91F04FC4D600F3
:1101CB000100D5C00000D5D0585BFD421076574F8B3F
:1101CC00010000080000A296605661786E3AF6A220F2
:1101CD00031CB9A5811F7F42E23C5EA902256E6749D9
:1101CE0003102362F85FEDC0E349D1FEA0268CB37F05
:1101CF00033D75BC473E30D9695661786E3AF6A22028
:1101D000031112DBB62586A49818A35FE36DEF5211C4
:1101D1000100D5C00000D5D0781036B29F1D206B8E9D
:1101D20001FE7FE000FE7FEF9051EAD36B2D517796BE
:1101D3000100D5C00000D5D048792B84010FA85F4D0C
:1101D4000100D5C00000D5D0681565AC9919FB26502E
:1101D5000100D5C00000D5D0403CE732EC22F13DF31A
:1101D6000100D5C00000D5D0781036B29F1D206B8E98
:1101D70001012FF000012FF2004AD084E91F48EAA15B
:1101D80001012FF000012FF2004AD084E91F48EAA15A
:1101D900010000080000AAE31805B9B1FD7AD7FCA20C
:1101DA00036E3DEE901A8762F4633516040E759D1A05
:1101DB000305B9B1FD7AD7FCA27F41D049449F66FE95
:1101DC00036A0DCE487237AA96557E05153BA0794B0D
:1101DD000318C45E156B431F255B1FBC2D33DFCCE8A4
:1101DE000100AAE00000AAE320557E05153BA0794B4C
:1101DF000100AAE00000AAE3286A0DCE487237AA9659
:1101E0000100AAE00000AAE33818C45E156B431F257D
:1101E1000100AAE00000AAE3305B1FBC2D33DFCCE89C
:1101E2000100D5C00000D5D0781036B29F1D206B8E8C
:1101E3000100D5C80000D568882973F88F2C70EDAE4E
:1101E400032973F88F2C70EDAE44296C6D3A86D4458E
:1101E500033AE37D8645440FE551F792465BC9A82756
:1101E600031887578D58C05B8A00BF783F22643EA9A2
:1101E700035398582C1C0D447538D82E711E41098A12
:1101E8000100A2800000A296605661786E3AF6A220BC
:1101E9000100D5680000D5C8805D888A082A082C7065
:1101EA00035EC6AFD419E21BB25D888A082A082C704D
:1101EB00035399C65420EE134875E0858A57A61A29ED
:1101EC00032157F6BC704E1DD54427069A0B37E80AE6
:1101ED00030E3E47A82E48F04457D2F10E0BFFAE1821
:1101EE000100D5C00000D5D0705024DE5B168EFE17EF
:1101EF000100D5C00000D5D0705024DE5B168EFE17EE
:1101F0000100D5C00000D5C89075E0858A57A61A2997
:1101F1000100D5C00000D5C89075E0858A57A61A2996
:1101F2000100000800000000000C12AC7F6798F03982
:1101F3000370837C027E4A57150C12AC7F6798F039E2
:1101F40003170EB52B2DFBCB8C42B8AC67246348EAAD
:1101F50003576FC41B64A1C4643830D6B66D48CF8725
:1101F60003369956AB0D3BE41C31723BF511F698610A
:1101F7000100000000000000000C12AC7F6798F03985
:1101F8000100000000000000000C12AC7F6798F03984
:1101F9000100000000000000000C12AC7F6798F03983
:1101FA000100D5680000D5C87011B1CC332E22FBB7E6
:1101FB00034D32AB863F07ACC35D205E2011CCA8BA51
:1101FC00036B47F63E5CB44A0517180B0B579328B99A
:1101FD00033FCFAED90F85686716CF80F11C695DECD2
:1101FE0003299346997748585011B1CC332E22FBB728
:1101FF000100D5C80000D568B038D82E711E41098AC3
:11020000032973F88F2C70EDAE44296C6D3A86D44571
:11020100033AE37D8645440FE551F792465BC9A82739
:11020200031887578D58C05B8A00BF783F22643EA985
:11020300035398582C1C0D447538D82E711E41098AF5
:110204000100D5600000D568B038D82E711E41098A25
:110205000100D5C00000D5D0506ECE91F04FC4D600B7
:110206000100D5600000D568983AE37D8645440FE53F
:110207000100D5C00000D5D0585BFD421076574F8B02
:110208000100D5C00000D5C87011B1CC332E22FBB77F
:110209000100D5C00000D5D060178F7B672421DFCFCE
:11020A000100D5C00000D5D0781036B29F1D206B8E63
:11020B0001012FF000012FF2004AD084E91F48EAA126
:11020C0001012FF000012FF2080836C40E02901D8255
:11020D000100A2800000A295E038437FDB7644A45C17
:11020E000100A2800000A295E812E685FB70C6A52921
:11020F000100D5C00000D5CBF0275AC7943938657591
:110210000100A2800000A291901CDCE2DE69D3947CF3
:110211000100000800017863F00B54E53B02A004875B
:11021200037323808A0515727606CB1B6072EDD57442
:11021300031C2427A163A24D6835A681DB1786C97404
:11021400033B1211833459648F4FB7A02A096CF72811
:11021500033ADF331D4D08A9E40B54E53B02A00487DE
:1102160001012FF000012FF2004AD084E91F48EAA11B
:1102170001012FF000012FF2080836C40E02901D824A
:110218000100A2800000A295E038437FDB7644A45C0C
:110219000100A2800000A295E812E685FB70C6A52916
:11021A000100D5C00000D5CBF0275AC7943938657586
:11021B000100A2800000A291901CDCE2DE69D3947CE8
:11021C000101786000017863F00B54E53B02A004877F
:11021D0001012FF000012FF2080836C40E02901D8244
:11021E000100A2800000A295E038437FDB7644A45C06
:11021F0001012FF000012FF2004AD084E91F48EAA112
:110220000100A2800000A295E812E685FB70C6A5290F
:110221000100D5C00000D5CBF0275AC794393865757F
:1102220001017860000178641067A70B695953172F90
:1102230001012FF000012FF2080836C40E02901D823E
:110224000100A2800000A295E038437FDB7644A45C00
:110225000100A2800000A295E812E685FB70C6A5290A
:110226000100D5C00000D5CBF0275AC794393865757A
:110227000100A2800000A291A004A6605120F4BDADF7
:110228000101786000017863F83ADF331D4D08A9E4CC
:1102290001012FF000012FF2004AD084E91F48EAA108
:11022A0001FE7FE000FE7FEF98580BD78F153EA43869
:11022B0001FE7FE000FE7FEFA03855585C70A64E2A89
:11022C0001FE7FE000FE7FEFA86A2342EC2A487CB0F6
:11022D0001FE7FE000FE7FEFB01D4ED43B725A06FBFF
:11022E0001FE7FE000FE7FEFB83804823E77465F0124
:11022F0001FE7FF400FE7FEFC00B79D08D6914176942
:1102300001FE7FF000FE7FEFC862BBD95A436C612596
:1102310001FE7FF000FE7FF1107C58FD0523D86AACE9
:1102320001FE7FF000FE7FEFF075A2A8D408EDBDAB01
:1102330001012FF000012FF2004AD084E91F48EAA1FE
:110234000100D5C00000D5D0781036B29F1D206B8E39
:1102350001012FF000012FF2004AD084E91F48EAA1FC
:110236000100D5C800FE7FF06046E87CCD3D1B58BA6B
:1102370003327B23C6643C98696633487374B0DC51D7
:1102380003625558EC238E1F2919495CFF2AE8944A11
:1102390003507ED7AB2EB141F246E87CCD3D1B58BA6E
:11023A00037545E146515F007C41B71EFB79E2A9E3AB
:11023B0001FE7FE000FE7FF06046E87CCD3D1B58BAA6
:11023C0001FE7FF000FE7FF1107C58FD0523D86AACDE
:11023D0001FE7FF000FE7FF1107C58FD0523D86AACDD
:11023E0001FE7FE000FE7FF06046E87CCD3D1B58BAA3
:11023F0001FE7FE000FE7FF06046E87CCD3D1B58BAA2
:1102400001FE7FE000FE7FF088122008544DB127F8AF
:1102410001FE7FF000FE7FEFD0431BD7B73F2DBA31BF
:1102420001012FF000012FF228189A769B54E49EB4F3
:1102430001012FF000012FF2004AD084E91F48EAA1EE
:1102440001FE7FE000FE7FF05019495CFF2AE8944AE1
:11024500010164E800013012507D5E18F85F3534A470
:11024600036FC75AF86A5F70296AA78F7F7672BD23D3
:110247000373A1821B7DE677137D5E18F85F3534A4AE
:110248000314FCE74E6A3DD3E8555C55B53FA62ACA67
:1102490003532999381FBFE8E071C9129809DAF632BF
:11024A000100000800012FEED80118C6C07F7E4A15A9
:11024B00030CB55FF321DF319E2E8E9F477674259676
:11024C00030118C6C07F7E4A156687F34D25415B0CA9
:11024D000330BB2B9900E3DFE617CFC87D5D66DC6517
:11024E0003017EC0C47173BB22595B37F371DB7E022E
:11024F0001012FF000012FF23022221A704516DDE93C
:1102500001011E8000011E80C04FA0D2E36B1D2C1432
:1102510001FE7FE000FE7FF05019495CFF2AE8944AD4
:110252000100A2800000A29730257D63F470EC11B2F7
:110253000101300000013012406AA78F7F7672BD23FE
:1102540001FE7FE000FE7FF05019495CFF2AE8944AD1
:110255000100A2800000A29198684EED59545EE5D344
:1102560001FE7FF000FE7FF1280E7FFA2B3C5991AA11
:1102570001FE7FF000FE7FF1304BD8591A78DF6A55DE
:1102580001FE7FF000FE7FF13839B7AAA22B0D8DBEC2
:110259000100000800FE7FF1406A1045661C8A8ACFB9
:11025A00030E73DFE039F174C76A1045661C8A8ACFC7
:11025B00033B0A3B876DAC77686E2E2D5345DC439D73
:11025C00037A61D75B164A1482746AE2E4317E611DBA
:11025D00032E19DD00756D30D01806546B1FA332674F
:11025E0001FE7FE000FE7FF1480E73DFE039F174C7D6
:11025F0001FE7FE000FE7FF1506E2E2D5345DC439D55
:1102600001FE7FE000FE7FF1583B0A3B876DAC77686A
:110261000101300000013012406AA78F7F7672BD23F0
:110262000100A2800000A29610098A3148799D0247B5
:1102630001FE7FE000FE7FF1583B0A3B876DAC776867
:1102640001FE7FE000FE7FF1506E2E2D5345DC439D50
:1102650001FE7FE000FE7FF1480E73DFE039F174C7CF
:1102660001FE7FE000FE7FF1406A1045661C8A8ACF57
:1102670001FE7FF400FE7FF1384F4AC8FF58CAE6D92D
:1102680001FE7FF000FE7FF1304BD8591A78DF6A55CD
:1102690001FE7FF400FE7FF1281EE6AF0D5670E3ED26
:11026A0001FE7FE000FE7FF0A0109CF92E0DED726376
:11026B0001FE7FE000FE7FF048327B23C6643C986938
:11026C00010130000001301260555C55B53FA62ACA18
:11026D0001012FF000012FF220737B8DDC6CEAF087F9
:11026E0001FE7FE400FE7FF0482AC1076A51A6E91517
:11026F0001FE7FE000FE7FF0A87FDCC2331BEFD79F3B
:1102700001FE7FE000FE7FF0A87FDCC2331BEFD79F3A
:1102710001FE7FE000FE7FF0A0109CF92E0DED72636F
:11027200010130000001301260555C55B53FA62ACA12
:1102730001012FF000012FF220737B8DDC6CEAF087F3
:110274000100000800007BCAB81B2B9E9D3150E85C2D
:110275000301AF465D128D98B7638FDBD11098CF6EB1
:1102760003430A16621F9D5C185F61383243E92260A7
:110277000372D2B5796C0BE5361CC11C374557D5D8F6
:11027800031B2B9E9D3150E85C1E22BCB23565F1C82B
:1102790001007BA000007BBCA859A4BA71450B7FB6CC
:11027A0001FE7FE000FE7FF0B041A7C4C96B68079A0F
:11027B0001FE7FF000FE7FF1204F97E3E4053B0A9EE1
:11027C0001FE7FF000FE7FF068507ED7AB2EB141F2CC
:11027D0001FE7FF000FE7FF1204F97E3E4053B0A9EDF
:11027E0001FE7FE000FE7FF0B041A7C4C96B68079A0B
:11027F0001FE7FF000FE7FF1204F97E3E4053B0A9EDD
:110280000100000800007BB40051EEBEEA221A0CCD39
:11028100031B7CA0ED2395A7FF51EEBEEA221A0CCDEB
:110282000326BAF2314B13A15A3965EB663AA88B3C74
:11028300037C6489B653AE65DE701E8A0D41E690CF59
:1102840003663BFE9531E0986F527F603D7E13D01338
:1102850001FE7FE000FE7FF0A0109CF92E0DED72635B
:11028600010130000001301260555C55B53FA62ACAFE
:110287000100000800FE7FF0C05EBE0EAB6E9DEAD096
:11028800034450AA004AC9F3E25EBE0EAB6E9DEAD0A2
:11028900032970CC7849CA13410CC0A78279B69BC995
:11028A00034244B8DE76490B01058D717E64C2DDD520
:11028B000311C5ABEF5A4744BE36B19CBF645EC5ABD8
:11028C0001FE7FF000FE7FF0482AC1076A51A6E915ED
:11028D0001012FF000012FF228189A769B54E49EB4A8
:11028E0001012FF000012FF2004AD084E91F48EAA1A3
:11028F0001FE7FF000FE7FF0482AC1076A51A6E915EA
:1102900001012FF000012FF228189A769B54E49EB4A5
:1102910001012FF000012FF2004AD084E91F48EAA1A0
:1102920001007BC000007BCB280FA085B004E5DCB553
:1102930001007BA000007BBCB857A37D4774824D54FA
:1102940001FE7FE000FE7FF0B84E6AFB6625E45D3225
:1102950001FE7FF000FE7FF118379E21B50069E373FA
:1102960001FE7FE000FE7FF088122008544DB127F859
:1102970001FE7FF000FE7FF118379E21B50069E373F8
:1102980001FE7FE000FE7FF0B84E6AFB6625E45D3221
:1102990001FE7FF000FE7FF118379E21B50069E373F6
:11029A0001007BA000007BB3F0126CADE919132E7B30
:11029B0001FE7FF000FE7FF118379E21B50069E373F4
:11029C0001FE7FF000FE7FF118379E21B50069E373F3
:11029D0001FE7FF000FE7FF118379E21B50069E373F2
:11029E0001FE7FE000FE7FF088122008544DB127F851
:11029F0001FE7FF000FE7FF118379E21B50069E373F0
:1102A00001FE7FE000FE7FF0B84E6AFB6625E45D3219
:1102A10001FE7FF000FE7FF118379E21B50069E373EE
:1102A20001007BA000007BB3F0126CADE919132E7B28
:1102A30001FE7FF000FE7FF118379E21B50069E373EC
:1102A40001FE7FF000FE7FF118379E21B50069E373EB
:1102A50001FE7FF000FE7FF118379E21B50069E373EA
:1102A60001FE7FE000FE7FF088122008544DB127F849
:1102A70001FE7FF000FE7FF1204F97E3E4053B0A9EB5
:1102A80001FE7FF000FE7FF1204F97E3E4053B0A9EB4
:1102A90001FE7FF000FE7FF068507ED7AB2EB141F29F
:1102AA0001FE7FF000FE7FF1204F97E3E4053B0A9EB2
:1102AB0001FE7FF000FE7FF1204F97E3E4053B0A9EB1
:1102AC0001FE7FE000FE7FF0B041A7C4C96B68079ADD
:1102AD0001FE7FF000FE7FF1204F97E3E4053B0A9EAF
:1102AE0001007BA000007BB40051EEBEEA221A0CCDF8
:1102AF0001FE7FE000FE7FF0A0109CF92E0DED726331
:1102B000010130000001301260555C55B53FA62ACAD4
:1102B10001FE7FE000FE7FF0C05EBE0EAB6E9DEAD017
:1102B20001FE7FF000FE7FF0482AC1076A51A6E915C7
:1102B30001012FF000012FF23022221A704516DDE9D8
:1102B40001011E8000011E80C04FA0D2E36B1D2C14CE
:1102B50001FE7FF000FE7FF0482AC1076A51A6E915C4
:1102B60001012FF000012FF23022221A704516DDE9D5
:1102B70001011E8000011E80C04FA0D2E36B1D2C14CB
:1102B8000100000800007BCB60475553AB5AB3EA9362
:1102B900030001893D13D4A2F27417684F0E9E1415D8
:1102BA0003222FC865047C27FA2764C907040D3692DD
:1102BB000352E2D7C93D4B955A475553AB5AB3EA93C0
:1102BC00032231759037A58EEF5B4A22B54B294578D0
:1102BD000100000800007BBCC0283290FD495C0EA5F1
:1102BE00030A4A062B3BED7940283290FD495C0EA587
:1102BF000329EFA6427E337D3554E56D646EB429551E
:1102C000031059DF710CF19F381F8C83AB18F40A337B
:1102C100030A91E1DC1236898D4AE135E207BD1DCF81
:1102C20001FE7FE000FE7FF0B84E6AFB6625E45D32F7
:1102C30001FE7FF000FE7FF118379E21B50069E373CC
:1102C40001FE7FE000FE7FF088122008544DB127F82B
:1102C50001FE7FF000FE7FF118379E21B50069E373CA
:1102C60001FE7FE000FE7FF0B84E6AFB6625E45D32F3
:1102C70001FE7FF000FE7FF118379E21B50069E373C8
:1102C8000100A28800007335C8667FC83134ADB58294
:1102C90003667FC83134ADB5824CB58EA439629FFAC4
:1102CA0003048BE573142AC06C71F94ADC27FFB15A0E
:1102CB00035D86CF1169EF46745FA540492CBE7670ED
:1102CC000358A36FCA129B95F268ABEFB0326C3C76B4
:1102CD0001FE7FF000FE7FF118379E21B50069E373C2
:1102CE0001FE7FF000FE7FF118379E21B50069E373C1
:1102CF0001FE7FF000FE7FF118379E21B50069E373C0
:1102D00001FE7FE000FE7FF088122008544DB127F81F
:1102D10001FE7FF000FE7FF1204F97E3E4053B0A9E8B
:1102D20001FE7FF400FE7FF12048B6B6EB0FB37489BD
:1102D30001FE7FF000FE7FF068507ED7AB2EB141F275
:1102D40001FE7FF000FE7FF12048B6B6EB0FB37489BF
:1102D50001FE7FE000FE7FF0A87FDCC2331BEFD79FD5
:1102D60001FE7FF400FE7FF1280D9A50ED20DAABD1B5
:1102D70001FE7FF000FE7FF1304BD8591A78DF6A555E
:1102D80001FE7FF000FE7FF1384F4AC8FF58CAE6D9C0
:1102D90001FE7FE000FE7FF1406A1045661C8A8ACFE4
:1102DA0001FE7FE000FE7FF1480E73DFE039F174C75A
:1102DB0001FE7FE000FE7FF1506E2E2D5345DC439DD9
:1102DC0001FE7FE000FE7FF1583B0A3B876DAC7768EE
:1102DD000100A2800000A29610098A3148799D02473A
:1102DE000100A2800000A29610098A3148799D024739
:1102DF0001FE7FE000FE7FF1583B0A3B876DAC7768EB
:1102E0000101300000013012406AA78F7F7672BD2371
:1102E10001FE7FE000FE7FF1583B0A3B876DAC7768E9
:1102E20001013000000130125873A1821B7DE67713A0
:1102E3000100000800013012C039333BAD2FFF2A9FB3
:1102E40003477304AC6B9F782339333BAD2FFF2A9FAC
:1102E500031C3F31CE00D28DDE08A29A695A0E9A9F20
:1102E6000305F4208C7C0F10CC059E3AC45D38CAEA0E
:1102E7000304B670625117412325EF81D515A79515DB
:1102E80001FE7FE000FE7FF1687A61D75B164A1482CE
:1102E9000101300800FE7FF2D05EB1921044DEFF9B1E
:1102EA00031A6760EF5E52C4051FE7D17D52CBAB2E6D
:1102EB00030048644761E90D1E5EB1921044DEFF9B2A
:1102EC00033D9579BA0ACD4C1144BD67E6325102D31F
:1102ED00033ACC76B1588B1C7C111817CF76C8B568EB
:1102EE0001FE7FE000FE7FF1701806546B1FA332678B
:1102EF0001FE7FE800013012C039333BAD2FFF2A9F4A
:1102F00003477304AC6B9F782339333BAD2FFF2A9FA0
:1102F100031C3F31CE00D28DDE08A29A695A0E9A9F14
:1102F2000305F4208C7C0F10CC059E3AC45D38CAEA02
:1102F3000304B670625117412325EF81D515A79515CF
:1102F40001FE7FE800007BCE403299B71B7EA75F5A8F
:1102F5000344419EF93837F1DF3299B71B7EA75F5A1F
:1102F60003344702AC01CFAC1A5BE02A444A35BF85C9
:1102F7000352E6ED3D03E1A8645FDD549A38FD730EC1
:1102F8000348C0A8000717B226672FE0A831987F4D99
:1102F9000101300000013012F804B67062511741232F
:1102FA0001FE7FE000FE7FF1583B0A3B876DAC7768D0
:1102FB0001FE7FE000FE7FF1506E2E2D5345DC439DB9
:1102FC0001FE7FE000FE7FF1480E73DFE039F174C738
:1102FD0001FE7FE000FE7FF1406A1045661C8A8ACFC0
:1102FE0001FE7FF000FE7FF1384F4AC8FF58CAE6D99A
:1102FF0001FE7FF000FE7FF1304BD8591A78DF6A5536
:1103000001FE7FF400FE7FF12834F52A234815A96602
:110301000101300000013012C039333BAD2FFF2A9F6B
:1103020001FE7FF000FE7FF05019495CFF2AE8944A12
:1103030001FE7FF000FE7FF0482AC1076A51A6E91575
:110304000101300000013012E0059E3AC45D38CAEAA9
:110305000100A2800000A291A004A6605120F4BDAD18
:1103060001FE7FF000FE7FF058625558EC238E1F29BF
:1103070001FE7FF000FE7FF058625558EC238E1F29BE
:110308000100000800012FF280777250E70B726EDC52
:1103090003365EFC5A41A8106C777250E70B726EDCAA
:11030A00032185650778B6E4963FB97188382EA874B2
:11030B00035FE6C53F3CAE14FE0B1595B125670D6B2F
:11030C000341123F79514FBE5A6E27B56B66FE776525
:11030D0001FE7FF400FE7FEFD045BECE3C1660D46872
:11030E0001FE7FE000FE7FF088122008544DB127F8E0
:11030F000100AAE00000AAE300633516040E759D1AD9
:1103100001012FE000012FF288365EFC5A41A8106CD2
:1103110001FE7FF400FE7FF0582B85F5C444D20939E3
:1103120001012FE400012FF2901B4796986572CF1BC2
:110313000100000800012E58C04E78488738AD4C18AB
:110314000348CCEE3145EA996E4E78488738AD4C188E
:11031500030792A9DB03D92C7D441FBAF47F2BEA8B02
:11031600037C901113427028B0375A92FF29180EE2C6
:11031700037F1E3DAE3CA6D1B94E7F1C4D5C76D652AE
:1103180001FE7FF000FE7FF06046E87CCD3D1B58BAB8
:1103190001FE7FF000FE7FF05019495CFF2AE8944AFB
:11031A000101300000013012F804B67062511741230D
:11031B0001FE7FF000FE7FF068507ED7AB2EB141F22C
:11031C0001FE7FF000FE7FF06046E87CCD3D1B58BAB4
:11031D0001FE7FE000FE7FF088122008544DB127F8D1
:11031E0001FE7FF000FE7FEFD045BECE3C1660D46865
:11031F0001FE7FF000FE7FF05019495CFF2AE8944AF5
:1103200001012FF000012FF2901B4796986572CF1BA8
:1103210001012FF000012FF288365EFC5A41A8106CB1
:1103220001FE7FF400FE7FEFC84FD5720B4D3C934621
:1103230001FE7FF000FE7FEFC00B79D08D6914176951
:1103240001FE7FE000FE7FEFB83804823E77465F012D
:1103250001FE7FE000FE7FEFB01D4ED43B725A06FB06
:1103260001FE7FE000FE7FEFA86A2342EC2A487CB0FB
:1103270001FE7FE400FE7FEFA0619F753B29BD8A97A0
:1103280001FE7FF000FE7FEF98580BD78F153EA4385A
:1103290001FE7FF000FE7FEF9051EAD36B2D51779655
:11032A0001FE7FF000FE7FEF882463B9EA5E884ADC2A
:11032B0001012E4000012E58C04E78488738AD4C182C
:11032C0001012E4000012E58C848CCEE3145EA996E98
:11032D00010073280000A295E038437FDB7644A45C7D
:11032E0003579478FE749ABB4332FFF902684A481A0E
:11032F000379A1DEAA75C6C33A3DC240FB1BA026FACB
:110330000312E685FB70C6A52938437FDB7644A45CAE
:11033100034F4EF00523F9C13C520EEDD1374A3FE649
:110332000100A2800000A291E006D68AB23A966CD060
:11033300010000080000D545107FE7229260C94A46B3
:11033400031D701BFF4A12EC32069D9E7A7F056040B5
:11033500033F35DD672B66AC127FE7229260C94A46DA
:11033600034FBE108E60602E6259F12779452528CB71
:110337000312552B100F4E887247D0D4020D1CD93991
:1103380001FE7FF000FE7FEF9051EAD36B2D51779646
:110339000100A2800000A295E038437FDB7644A45CEA
:11033A000100A2800000A295E812E685FB70C6A529F4
:11033B0001012E4000012E58C848CCEE3145EA996E89
:11033C000100D5400000D545107FE7229260C94A469D
:11033D000100A2800000A295E038437FDB7644A45CE6
:11033E000100A2800000A295E812E685FB70C6A529F0
:11033F000100D5400000D545107FE7229260C94A469A
:110340000100A2800000A291901CDCE2DE69D3947CC2
:1103410001000008000178646821DCDBA0220655C4A4
:11034200032822BCA746182E755CE60F5E4B9A6638C7
:110343000358625C6D2357E57479311D4C6599B68900
:110344000321DCDBA0220655C46580D91B392BA6B356
:1103450003569BC2B27408702129F583EF6486395B24
:110346000100D5680000A2A89823BC16C202026EC598
:110347000351C07F532E59C5FD4DF9979A68E13F8EE9
:110348000323BC16C202026EC530B213905EDD588C0F
:11034900033BCFA3D12040AF6340AEF10D40009C03E5
:11034A00031B8749861E1C83A17C3FA80056E57D3D78
:11034B000100AA880000E38618786D58E469B6E9D9EB
:11034C000362E8072506A84631210E8FA83E858759F9
:11034D0003786D58E469B6E9D916E7E3C7063FEC9A28
:11034E00033035708950AF58A76C291F4C50138A7AD8
:11034F0003746B6F6A28B1BBF226AF4D2D243DE0AA22
:1103500001FE7FE80000ECD1605D4CAEF87A723B455E
:1103510003594F93D161402F4E20913E410DFEC288E9
:11035200030180DEB14A3F068C4DFF5E8B151F37A329
:11035300036C04B4E01D0828375D4CAEF87A723B4553
:11035400031575811C52127406685B8A2D64F087E259
:110355000100A2080001593DA853FB087534FA7B2B0E
:11035600033B3A67C578D07D080CA75DBC6AE2EC3CE5
:1103570003497FD5B061A5C3E43AF676B76B6FD84E3B
:110358000353FB087534FA7B2B0FADB8F83DEB451AFF
:11035900031B37F41204C9BB1B0A577FD601E5313D8B
:11035A0001FE7FF000FE7FEF9051EAD36B2D51779624
:11035B0001FE7FF000FE7FEF9051EAD36B2D51779623
:11035C0001FE7FF000FE7FEF98580BD78F153EA43826
:11035D0001FE7FF000FE7FEFA0619F753B29BD8A975E
:11035E0001FE7FF000FE7FEFA86A2342EC2A487CB0B3
:11035F0001FE7FF000FE7FEFB01D4ED43B725A06FBBC
:1103600001FE7FF000FE7FEFB83804823E77465F01E1
:1103610001FE7FF000FE7FEFC00B79D08D6914176913
:1103620001FE7FF400FE7FEFC8223FA5B629D0A5DFAB
:110363000100D5C800FE7FF00837B526D27BE319E536
:110364000337B526D27BE319E54A2CDADC0BB02F47E8
:110365000376931B846C17FCD630DD951056D43898DB
:11036600035787D52419248B514FA4B5A13189923BC3
:1103670003570FD06B1D86D5F5132F561F67358E1D76
:1103680001012E4000012E58C04E78488738AD4C18EF
:1103690001012E4000012E58C04E78488738AD4C18EE
:11036A0001012E4000012E58C848CCEE3145EA996E5A
:11036B0001012E4000012E58C848CCEE3145EA996E59
:11036C0001FE7FF000FE7FF05019495CFF2AE8944AA8
:11036D000101300000013012E805F4208C7C0F10CC16
:11036E0001000008000078FD000F47CDA512B4903DA5
:11036F000373A2668C147F4B240F47CDA512B4903D16
:110370000336BEF0DA7DFA51CE5429ABEF52DFA1FC40
:110371000379DD6BB3613A402A170D654E6E7417AC83
:1103720003380E78C370B762777A2446F32ABB00C476
:1103730001FE7FF000FE7FEFD045BECE3C1660D46810
:1103740001012FF000012FF2901B4796986572CF1B54
:110375000100000800012FDEE06E5AD2BE20D7B9B5C3
:110376000377E78A2052F720C635704AD1559060DB5C
:11037700037547B1D64A3C4F0E3EAB20356A2F4E9D8A
:110378000305ADC9B475B191D36E5AD2BE20D7B9B5FB
:11037900036953F85F6E0367D759841CB3186259F23D
:11037A0001012FC000012FDEE06E5AD2BE20D7B9B5D6
:11037B0001FE7FF000FE7FF06046E87CCD3D1B58BA55
:11037C0001FE7FF000FE7FEFC8223FA5B629D0A5DF95
:11037D0001FE7FF400FE7FEFC05340FFA91336705D80
:11037E00010000080000A2BAC06463C363347B3FD39B
:11037F00030D5AB7510F1EC4276463C363347B3FD335
:110380000325F1C1C1743CE6FA6C89B8967E1219C88D
:11038100031514A0AF55C3594C20530E7B144C9480C3
:110382000328BA7A132888159169DCF55B0CFC2ACF0C
:1103830001FE7FF000FE7FEFB83804823E77465F01BE
:1103840001FE7FF000FE7FEFB01D4ED43B725A06FB97
:1103850001FE7FF000FE7FEFA86A2342EC2A487CB08C
:1103860001FE7FF000FE7FEFA0619F753B29BD8A9735
:110387000100A2A00000A2BAC06463C363347B3FD358
:1103880001FE7FF000FE7FEFA0619F753B29BD8A9733
:1103890001FE7FF000FE7FEFA86A2342EC2A487CB088
:11038A0001FE7FF000FE7FEFB01D4ED43B725A06FB91
:11038B0001FE7FF000FE7FEFB83804823E77465F01B6
:11038C0001FE7FF000FE7FEFC05340FFA91336705D75
:11038D000100A2A00000A2BAC06463C363347B3FD352
:11038E0001FE7FF000FE7FEFC8223FA5B629D0A5DF83
:11038F0001FE7FF000FE7FF06046E87CCD3D1B58BA41
:1103900001FE7FE000FE7FF088122008544DB127F85E
:1103910001FE7FF000FE7FF12048B6B6EB0FB3748901
:1103920001FE7FF000FE7FF07041B71EFB79E2A9E317
:1103930001FE7FF000FE7FF0787545E146515F007CF9
:1103940001FE7FE400FE7FF08040F78FF37F9F698A3F
:1103950001FE7FF000FE7FF08040F78FF37F9F698A32
:1103960001FE7FF000FE7FF0406633487374B0DC5196
:1103970001FE7FF000FE7FEFD045BECE3C1660D468EC
:1103980001012FF000012FF288365EFC5A41A8106C3A
:1103990001FE7FF000FE7FF098140E0F763352255A35
:11039A0001012FF000012FF2901B4796986572CF1B2E
:11039B0001FE7FF000FE7FF0901190CDE766EF438D6C
:11039C0001012E4000012E58C04E78488738AD4C18BB
:11039D0001FE7FF000FE7FF0A87FDCC2331BEFD79FFC
:11039E0001FE7FF000FE7FF068507ED7AB2EB141F2A9
:11039F0001FE7FF000FE7FF0A87FDCC2331BEFD79FFA
:1103A00001FE7FF000FE7FEFF879838CB24353D0CD0D
:1103A10001FE7FF000FE7FF098140E0F763352255A2D
:1103A20001FE7FF000FE7FF05019495CFF2AE8944A72
:1103A30001FE7FF000FE7FF0901190CDE766EF438D64
:1103A40001012FC000012FDEE06E5AD2BE20D7B9B5AC
:1103A50001FE7FF400FE7FF0684E384ED36B80C94F56
:1103A60001FE7FF000FE7FF0B041A7C4C96B68079AD2
:1103A70001FE7FF000FE7FEFC8223FA5B629D0A5DF6A
:1103A80001FE7FF000FE7FEFC05340FFA91336705D59
:1103A90001FE7FF400FE7FEFB8047B556504DAF4544E
:1103AA0001FE7FF000FE7FEFB01D4ED43B725A06FB71
:1103AB0001FE7FF000FE7FEFA86A2342EC2A487CB066
:1103AC0001FE7FF000FE7FEFA0619F753B29BD8A970F
:1103AD0001FE7FF000FE7FEF98580BD78F153EA438D5
:1103AE0001FE7FF000FE7FEEB8612DBDDD2109CDA4EA
:1103AF0001FE7FF000FE7FEEB02A9C34E21B7585AB18
:1103B00001012E4000012E58C04E78488738AD4C18A7
:1103B10001012E4000012E58C04E78488738AD4C18A6
:1103B20001012FE800FE7FEEC871697665212EAD85B8
:1103B3000371697665212EAD85127525370B784ED676
:1103B400030F641CA21BD078BB58017DB8063D1051B4
:1103B5000356CAED2B5D44069522BF757E3BD80000D9
:1103B600032B7C55684691114B5B1047FC0E9EA4BBE3
:1103B70001FE7FE000FE7FEEC0127525370B784ED622
:1103B80001FE7FE000FE7FEEC871697665212EAD856D
:1103B9000100000800007286406C5DC3C42A84F0F70D
:1103BA00037B37AFBB7138B8196C5DC3C42A84F0F7B4
:1103BB000368585EA67180937865A9E3330C2F55407A
:1103BC00035D27C5EC5D8F08B85E1E8AB75F176EBEED
:1103BD00037EBDB63D65FD275F538802284E913C51A5
:1103BE0001FE7FF000FE7FEEB8612DBDDD2109CDA4DA
:1103BF0001FE7FF000FE7FEF98580BD78F153EA438C3
:1103C00001FE7FF000FE7FEFA0619F753B29BD8A97FB
:1103C10001FE7FF000FE7FEFA86A2342EC2A487CB050
:1103C20001FE7FF000FE7FEFB01D4ED43B725A06FB59
:1103C30001FE7FF000FE7FEFB8047B556504DAF45438
:1103C40001FE7FF000FE7FEFC05340FFA91336705D3D
:1103C50001FE7FF000FE7FEFC8223FA5B629D0A5DF4C
:1103C60001FE7FF000FE7FF0901190CDE766EF438D41
:1103C70001FE7FF000FE7FF0A0109CF92E0DED726308
:1103C8000100A2800000A2961806B9476442C296BDF0
:1103C9000100A2800000A2961806B9476442C296BDEF
:1103CA0001FE7FF400FE7FEFD817BA092C46E7011127
:1103CB0001012E4000012E58C04E78488738AD4C188C
:1103CC0001012E4000012E58C848CCEE3145EA996EF8
:1103CD000100A2800000A295E038437FDB7644A45C56
:1103CE000100A2800000A295E812E685FB70C6A52960
:1103CF000100D5400000D545107FE7229260C94A460A
:1103D00001FE7FF000FE7FEFE82D1D5AE96763845E21
:1103D1000100A2800000A2961806B9476442C296BDE7
:1103D20001FE7FF000FE7FEFF879838CB24353D0CDDB
:1103D3000100A2800000A2961806B9476442C296BDE5
:1103D40001FE7FF000FE7FEFF879838CB24353D0CDD9
:1103D50001FE7FF000FE7FF0901190CDE766EF438D32
:1103D60001012E4000012E58C04E78488738AD4C1881
:1103D70001FE7FF000FE7FEFF879838CB24353D0CDD6
:1103D80001FE7FF000FE7FEFE82D1D5AE96763845E19
:1103D9000100A2800000A2967018A35FE36DEF52118C
:1103DA0001FE7FF000FE7FF0A87FDCC2331BEFD79FBF
:1103DB00010000080000EC9C78127E6585518AFBEECA
:1103DC00035048B22C257273DB3F754C7B610FA1D650
:1103DD000311ACAB8C2486D4C73B192CFD2707E62220
:1103DE000349CC7C9062F22CB0199792D320A658BBCC
:1103DF0003127E6585518AFBEE0CE40C804A226C5622
:1103E000010000080000EC9C30249E15AC11096D68D9
:1103E10003444E323E4CBECC2D6E92A33F3314792F32
:1103E200031094D84E529FF4EC3CC28C6E68CBAF2D65
:1103E30003469BE822618ED51675A18AC245EB77E850
:1103E400035869DD6D1826E411249E15AC11096D6855
:1103E50001FE7FF000FE7FF0901190CDE766EF438D22
:1103E60001FE7FF000FE7FF0901190CDE766EF438D21
:1103E70001FE7FF000FE7FF0901190CDE766EF438D20
:1103E80001012E4000012E58C04E78488738AD4C186F
:1103E90001FE7FF000FE7FEFC8223FA5B629D0A5DF28
:1103EA0001FE7FF000FE7FEF98580BD78F153EA43898
:1103EB0001FE7FF400FE7FEFA019198108290F0F324F
:1103EC0001FE7FF000FE7FEFB01D4ED43B725A06FB2F
:1103ED0001FE7FF000FE7FEFB8047B556504DAF4540E
:1103EE0001FE7FF000FE7FEFC05340FFA91336705D13
:1103EF0001FE7FF000FE7FEFA86A2342EC2A487CB022
:1103F00001012E4000012E58C04E78488738AD4C1867
:1103F1000100000800012E5BE02A4BBBE03E11D757FB
:1103F2000302600995023E1696357F4A695D603510A2
:1103F3000312D2EEE56CC2B66A1A22C17E6B2BB8C266
:1103F4000360CD438558BE66CD2A4BBBE03E11D7572A
:1103F500033128443A4B85829E335E9E8D425C189B20
:1103F60001012E4000012E58C04E78488738AD4C1861
:1103F70001012E4000012E5BE02A4BBBE03E11D7578E
:1103F80001012FC80000727EF033F518DB29D6CF9999
:1103F9000301FA1091784DF0C85F346FC0436C953A97
:1103FA00035B33EE61787CE04F6C7BA46C7AC3AA45CC
:1103FB00033F6987792ABD0C5A00715079083C5851D2
:1103FC0003464E2FA874E8D1E333F518DB29D6CF99F0
:1103FD0001012E4000012E5BE860CD438558BE66CDCF
:1103FE0001012E4000012E58C848CCEE3145EA996EC6
:1103FF000100A2800000A295E038437FDB7644A45C24
:110400000100A2800000A295E812E685FB70C6A5292D
:110401000100A2800000A295E038437FDB7644A45C21
:110402000100D5400000D545107FE7229260C94A46D6
:11040300010130080000A292C0224002E833D9F20070
:110404000309F9D75E0F02B952224002E833D9F20047
:1104050003426157DF57034E2014A7358562B83E2B4A
:11040600033A63884D7E8245E413E082660DE6DA7D22
:11040700035DB6B5A40548889241DBF358643A57E6CC
:11040800010000080000D59F205604A66D71C42CFF79
:11040900036A410D4E6169633660F812BD313894CE84
:11040A00030C266F907FC31CC83974ED1F29AA94C7A0
:11040B00031E9366AA1443B0FA5604A66D71C42CFF4E
:11040C00033683B3E27C4B48064871560615BA4F2422
:11040D000100A2800000A295E038437FDB7644A45C15
:11040E000100A2800000A295E812E685FB70C6A5291F
:11040F000100D5800000D59F205604A66D71C42CFF25
:1104100001FE7FF000FE7FEF98580BD78F153EA43871
:1104110001FE7FF000FE7FEFA019198108290F0F322C
:1104120001FE7FF000FE7FEFA86A2342EC2A487CB0FE
:1104130001FE7FF000FE7FEFB01D4ED43B725A06FB07
:1104140001FE7FF000FE7FEFB8047B556504DAF454E6
:1104150001FE7FF000FE7FEFC05340FFA91336705DEB
:1104160001FE7FF000FE7FEFC8223FA5B629D0A5DFFA
:1104170001FE7FF000FE7FF0B041A7C4C96B68079A60
:1104180001FE7FF400FE7FEFE057AA92EA0693ABDF75
:1104190001FE7FF000FE7FF07041B71EFB79E2A9E38F
:11041A000100EC800000EC9C60199792D320A658BB8E
:11041B00010000080000E7A4C8488A890A4EB7487C46
:11041C0003488A890A4EB7487C4DC0271479C31DD825
:11041D000333380AF862A2EA9138F855CA2F298A4A64
:11041E00030136513C4F93AAD53B4FF9DB32FB27C033
:11041F000306175EB877B7C5CC7B6C7DC616F0A060A7
:11042000010000080000E7A4A04B9DCBED08AA4358AA
:110421000370A00F054F5E12A439112B9053859101D1
:1104220003642D3F9D40FEC37E6954309312F962FEEF
:1104230003198D0EDE56B3223A4B9DCBED08AA4358E1
:11042400031F3DAB446CA927771DF1DEFB065523352C
:110425000100EC800000EC9C78127E6585518AFBEE1B
:110426000100EC800000EC9C503B192CFD2707E622CD
:110427000100D5C00000D5CBC8235BA86147398C89AA
:110428000100D5C00000D5CBA04962813B60B6DF7021
:1104290001FE7FF000FE7FF0B84E6AFB6625E45D327E
:11042A0001FE7FF000FE7FF0A0109CF92E0DED7263A4
:11042B0001012E4000012E58C04E78488738AD4C182B
:11042C0001FE7FF000FE7FF0B041A7C4C96B68079A4B
:11042D0001FE7FF000FE7FF10853584BCB415E286CE6
:11042E0001FE7FF000FE7FF10853584BCB415E286CE5
:11042F0001FE7FF000FE7FF10853584BCB415E286CE4
:1104300001FE7FF000FE7FF10853584BCB415E286CE3
:1104310001FE7FF000FE7FF0B84E6AFB6625E45D3276
:1104320001FE7FE000FE7FF01876931B846C17FCD6D9
:1104330001FE7FE000FE7FF0004A2CDADC0BB02F4790
:1104340001FE7FF000FE7FF10853584BCB415E286CDF
:1104350001FE7FE000FE7FF0C05EBE0EAB6E9DEAD091
:11043600010000080000ADB55810214BE1335D34EAE7
:11043700031CB1657E7E9BF4C36BA291C45F7F5E860D
:110438000310214BE1335D34EA43AC9E235DB028FCC4
:11043900037BA207F71E7E26D6182903A11A5FC05D81
:11043A00037293711F529E34BD399D6BA1684B2F6E06
:11043B0001FE7FF000FE7FF0901190CDE766EF438DCB
:11043C0001012E4000012E58C04E78488738AD4C181A
:11043D0001FE7FF000FE7FF0A0109CF92E0DED726391
:11043E0001FE7FF000FE7FF0901190CDE766EF438DC8
:11043F0001FE7FF000FE7FF0A0109CF92E0DED72638F
:1104400001FE7FF000FE7FF0A0109CF92E0DED72638E
:110441000100EC800000EC9C60199792D320A658BB67
:110442000100E7A00000E7A48039112B9053859101A7
:1104430001012E4000012E58C04E78488738AD4C1813
:1104440001FE7FF000FE7FF0901190CDE766EF438DC2
:1104450001FE7FF000FE7FF0901190CDE766EF438DC1
:1104460001012E4000012E58C04E78488738AD4C1810
:110447000100E7A00000E7A48039112B9053859101A2
:1104480001FE7FF000FE7FF0901190CDE766EF438DBE
:1104490001FE7FF000FE7FEFC8223FA5B629D0A5DFC7
:11044A0001FE7FF000FE7FEF98580BD78F153EA43837
:11044B0001FE7FF000FE7FEFA019198108290F0F32F2
:11044C0001FE7FF000FE7FEFA86A2342EC2A487CB0C4
:11044D0001FE7FF000FE7FEFB01D4ED43B725A06FBCD
:11044E0001FE7FF000FE7FEFB8047B556504DAF454AC
:11044F0001FE7FF000FE7FEFC05340FFA91336705DB1
:1104500001FE7FF000FE7FEF98580BD78F153EA43831
:1104510001FE7FF000FE7FEFA019198108290F0F32EC
:1104520001FE7FF400FE7FEFA864D450375FF5D4A587
:1104530001FE7FF000FE7FEFB01D4ED43B725A06FBC7
:1104540001FE7FF400FE7FEFB848410413197F6285E2
:1104550001FE7FF000FE7FEFC05340FFA91336705DAB
:1104560001FE7FF000FE7FEFC8223FA5B629D0A5DFBA
:1104570001FE7FF000FE7FF0901190CDE766EF438DAF
:1104580001FE7FF000FE7FF098140E0F763352255A75
:110459000100726800012FDEE06E5AD2BE20D7B9B50C
:11045A000377E78A2052F720C635704AD1559060DB77
:11045B00037547B1D64A3C4F0E3EAB20356A2F4E9DA5
:11045C000305ADC9B475B191D36E5AD2BE20D7B9B516
:11045D00036953F85F6E0367D759841CB3186259F258
:11045E000100E7A00000E7A48039112B90538591018B
:11045F0001FE7FF000FE7FEFC8223FA5B629D0A5DFB1
:1104600001FE7FF000FE7FEF98580BD78F153EA43821
:1104610001FE7FF000FE7FEFA019198108290F0F32DC
:1104620001FE7FF000FE7FEFA864D450375FF5D4A57B
:1104630001FE7FF000FE7FEFB01D4ED43B725A06FBB7
:1104640001FE7FF000FE7FEFB848410413197F6285D6
:1104650001FE7FF000FE7FEFC05340FFA91336705D9B
:1104660001012E4000012E58C04E78488738AD4C18F0
:1104670001012FC000012FDEE06E5AD2BE20D7B9B5E8
:1104680001012E4000012E58C04E78488738AD4C18EE
:1104690001012FC000012FDEE06E5AD2BE20D7B9B5E6
:11046A000100000800007BB7B87D7AF69D49504C8A95
:11046B0003399513795BCE15E41159860A041E9A4FFC
:11046C000340A2661B48683BA3687266FE4202DE0922
:11046D000310A93FB7026E31F468EECF6F5F1421F31C
:11046E00037D7AF69D49504C8A5024128866D6F079CE
:11046F0001012E4000012E58C848CCEE3145EA996E54
:1104700001012FC000012FDEE805ADC9B475B191D3DB
:1104710001FE7FF000FE7FEF98580BD78F153EA43810
:1104720001FE7FF000FE7FEFA019198108290F0F32CB
:1104730001FE7FF000FE7FEFA864D450375FF5D4A56A
:1104740001FE7FF000FE7FEFB01D4ED43B725A06FBA6
:1104750001FE7FF000FE7FEFB848410413197F6285C5
:1104760001FE7FF000FE7FEFC05340FFA91336705D8A
:1104770001FE7FF000FE7FEFC8223FA5B629D0A5DF99
:1104780001FE7FF400FE7FF098263BC0440EAB038655
:110479000100E7A00000E7A4A04B9DCBED08AA4358D2
:11047A0001FE7FE000FE7FF0C05EBE0EAB6E9DEAD04C
:11047B0001FE7FE000FE7FF0C05EBE0EAB6E9DEAD04B
:11047C000100EC800000EC9C30249E15AC11096D68D8
:11047D0001012E4000012E5BE02A4BBBE03E11D75707
:11047E0001FE7FF000FE7FF0901190CDE766EF438D88
:11047F0001FE7FF000FE7FF0A0109CF92E0DED72634F
:1104800001FE7FF000FE7FF0B041A7C4C96B68079AF7
:1104810001FE7FE000FE7FF0C05EBE0EAB6E9DEAD045
:1104820001FE7FF000FE7FF098263BC0440EAB03864F
:1104830001012FC000012FDEE06E5AD2BE20D7B9B5CC
:110484000100EC800000EC9C30249E15AC11096D68D0
:1104850001FE7FF000FE7FEFC8223FA5B629D0A5DF8B
:1104860001FE7FF000FE7FEF98580BD78F153EA438FB
:1104870001FE7FF000FE7FEFA019198108290F0F32B6
:1104880001FE7FF000FE7FEFA864D450375FF5D4A555
:1104890001FE7FF000FE7FEFB01D4ED43B725A06FB91
:11048A0001FE7FF000FE7FEFB848410413197F6285B0
:11048B0001FE7FF000FE7FEFC05340FFA91336705D75
:11048C0001012E4400012E5BE05649DA4D494F61457D
:11048D0001012FC000012FDEE06E5AD2BE20D7B9B5C2
:11048E0001012E5000012E5BE05649DA4D494F61456F
:11048F0001012FC000012FDEE06E5AD2BE20D7B9B5C0
:1104900001007BA000007BB7B87D7AF69D49504C8A5C
:1104910001012E5000012E5BE860CD438558BE66CD2A
:1104920001012FC000012FDEE805ADC9B475B191D3B9
:1104930001FE7FF000FE7FEF98580BD78F153EA438EE
:1104940001FE7FF000FE7FEFA019198108290F0F32A9
:1104950001FE7FF000FE7FEFA864D450375FF5D4A548
:1104960001FE7FF400FE7FEFB075C5A2305D00657F7A
:1104970001FE7FF000FE7FEFB848410413197F6285A3
:1104980001FE7FF000FE7FEFC05340FFA91336705D68
:1104990001FE7FF000FE7FEFC8223FA5B629D0A5DF77
:11049A0001FE7FF000FE7FF098263BC0440EAB038637
:11049B000100EC800000EC9C503B192CFD2707E62258
:11049C0001FE7FE000FE7FF0C05EBE0EAB6E9DEAD02A
:11049D0001FE7FE000FE7FF0C05EBE0EAB6E9DEAD029
:11049E000100D5C00000D5CB800BF72B1411447B7313
:11049F0001012E4000012E586006EB5BD46F6DD9AC74
:1104A00001FE7FF000FE7FEFC8223FA5B629D0A5DF70
:1104A10001FE7FF000FE7FEF98580BD78F153EA438E0
:1104A20001FE7FF000FE7FEFA019198108290F0F329B
:1104A30001FE7FF000FE7FEFB075C5A2305D00657F71
:1104A40001FE7FF000FE7FEFB848410413197F628596
:1104A50001FE7FF000FE7FEFC05340FFA91336705D5B
:1104A60001FE7FF400FE7FEFA8474BDAEB0193167648
:1104A70001012E4000012E586006EB5BD46F6DD9AC6C
:1104A80001012E4000012E586006EB5BD46F6DD9AC6B
:1104A90001012E4000012E586006EB5BD46F6DD9AC6A
:1104AA0001012E4000012E586006EB5BD46F6DD9AC69
:1104AB000100D5880000727F18392AE60707F1CC4184
:1104AC0003319226A862C3116603A5E6890D1C9241FC
:1104AD0003392AE60707F1CC416FB942022757C8D85C
:1104AE000366BDA96E63F763913FC376E56B92899B34
:1104AF000308F3EAE33ED5885B1201EF1873E262B9F1
:1104B00001007BC000007BCB502764C907040D369235
:1104B10001007BA000007BBCC0283290FD495C0EA5E8
:1104B20001FE7FF400FE7FEF8870BBEAE632AFBB81BB
:1104B30001FE7FF000FE7FEF9051EAD36B2D517796CA
:1104B40001FE7FF400FE7FEF904CA4AA7B4A59FF72A0
:1104B50001007BA000007BB3E82299DCBC19908D0279
:1104B60001FE7FF000FE7FEF8870BBEAE632AFBB81BB
:1104B70001FE7FF000FE7FEF8870BBEAE632AFBB81BA
:1104B80001FE7FF000FE7FEF904CA4AA7B4A59FF72A0
:1104B90001FE7FF000FE7FEF904CA4AA7B4A59FF729F
:1104BA0001FE7FF000FE7FEF8870BBEAE632AFBB81B7
:1104BB0001FE7FF000FE7FEF904CA4AA7B4A59FF729D
:1104BC0001007BA000007BB3E82299DCBC19908D0272
:1104BD0001FE7FF000FE7FEF8870BBEAE632AFBB81B4
:1104BE0001012E4000012E586868EBC5502DF6D64825
:1104BF0001012E4000012E586868EBC5502DF6D64824
:1104C00001FE7FF000FE7FEF787FBD7A3E0490B7C5D5
:1104C10001FE7FF000FE7FEF4854B596215992A02E8F
:1104C20001FE7FF000FE7FEF502E0D767138B59EFF53
:1104C30001FE7FF000FE7FEF60066BE6B962234363B3
:1104C40001FE7FF000FE7FEF6866D385C9596F6D8A9F
:1104C50001FE7FF000FE7FEF705749361F73BC6770E1
:1104C60001FE7FF000FE7FEF584CDCED4C10A30D9C36
:1104C70001011E8000011E80C04FA0D2E36B1D2C14B9
:1104C80001011E8000011E80C04FA0D2E36B1D2C14B8
:1104C90001011E8000011E80C04FA0D2E36B1D2C14B7
:1104CA0001011E8000011E80C04FA0D2E36B1D2C14B6
:1104CB00010072600000727F2866BDA96E63F76391AC
:1104CC0001011E8000011E80C868B867D33F7F5DD9CA
:1104CD0001011E8000011E80C868B867D33F7F5DD9C9
:1104CE0001FE7FF000FE7FEF4854B596215992A02E82
:1104CF0001FE7FF400FE7FEF50511E308F11EE239905
:1104D00001FE7FF000FE7FEF584CDCED4C10A30D9C2C
:1104D10001FE7FF000FE7FEF60066BE6B962234363A5
:1104D20001FE7FF000FE7FEF6866D385C9596F6D8A91
:1104D30001FE7FF000FE7FEF705749361F73BC6770D3
:1104D40001FE7FF400FE7FEF785C154BDF70D89FB887
:1104D50001FE7FF000FE7FEF8870BBEAE632AFBB819C
:1104D60001FE7FF000FE7FEF8870BBEAE632AFBB819B
:1104D70001FE7FF000FE7FEF904CA4AA7B4A59FF7281
:1104D80001FE7FF000FE7FEF904CA4AA7B4A59FF7280
:1104D90001FE7FF000FE7FEF8870BBEAE632AFBB8198
:1104DA0001FE7FF000FE7FEF98580BD78F153EA438A7
:1104DB0001FE7FF000FE7FEFA019198108290F0F3262
:1104DC0001FE7FF000FE7FEFA8474BDAEB0193167616
:1104DD0001FE7FF000FE7FEFB075C5A2305D00657F37
:1104DE0001FE7FF000FE7FEFB848410413197F62855C
:1104DF0001FE7FF400FE7FEFC0488CEFE864BD4D4213
:1104E00001FE7FF400FE7FEFC87CD3DA262891A7B7FF
:1104E10001FE7FF000FE7FF0901190CDE766EF438D25
:1104E20001FE7FF000FE7FF0A0109CF92E0DED7263EC
:1104E30001FE7FF000FE7FF0B041A7C4C96B68079A94
:1104E40001FE7FE000FE7FF0C05EBE0EAB6E9DEAD0E2
:1104E50001FE7FF000FE7FF098263BC0440EAB0386EC
:1104E60001012FC000012FDEE06E5AD2BE20D7B9B569
:1104E7000100D5C00000D5CBA04962813B60B6DF7062
:1104E80001FE7FF000FE7FF0901190CDE766EF438D1E
:1104E9000100000000000000000C12AC7F6798F03990
:1104EA0001FE7FE000FE7FF0C84450AA004AC9F3E248
:1104EB000100000000000000000C12AC7F6798F0398E
:1104EC0001FE7FE000FE7FF0E0058D717E64C2DDD5FB
:1104ED0001FE7FF000FE7FF0B041A7C4C96B68079A8A
:1104EE000100000000000000000C12AC7F6798F0398B
:1104EF0001FE7FE000FE7FF0D00CC0A78279B69BC9D9
:1104F0000100000000000000000C12AC7F6798F03989
:1104F10001FE7FE000FE7FF0E0058D717E64C2DDD5F6
:1104F20001FE7FF000FE7FF0A0109CF92E0DED7263DC
:1104F3000100000000000000000C12AC7F6798F03986
:1104F40001FE7FE000FE7FF0D00CC0A78279B69BC9D4
:1104F5000100000000000000000C12AC7F6798F03984
:1104F60001FE7FE000FE7FF0E84244B8DE76490B015B
:1104F70001FE7FE000FE7FF0C05EBE0EAB6E9DEAD0CF
:1104F8000100000000000000000C12AC7F6798F03981
:1104F90001FE7FE000FE7FF0D82970CC7849CA13410B
:1104FA000100000000000000000C12AC7F6798F0397F
:1104FB0001FE7FF000FE7FF098263BC0440EAB0386D6
:1104FC000100AAE00000AAE300633516040E759D1AEB
:1104FD000100000000000000000C12AC7F6798F0397C
:1104FE0001FE7FE000FE7FF0D82970CC7849CA134106
:1104FF000100000000000000000C12AC7F6798F0397A
:1105000001FE7FE000FE7FF0E84244B8DE76490B0150
:110501000100E7A00000E7A48039112B9053859101E7
:1105020001012E4000012E58C04E78488738AD4C1853
:110503000100E7A00000E7A4C04DC0271479C31DD89B
:110504000100E7A00000E7A4C04DC0271479C31DD89A
:1105050001FE7FE400FE7FF0D872564E7333710114FC
:1105060001FE7FF400FE7FF0A06F2A289A5C02A8CB39
:1105070001FE7FF000FE7FF0901190CDE766EF438DFE
:1105080001FE7FF400FE7FF0B05A6A9A0F6D2B29CA5B
:1105090001FE7FF000FE7FF0C05EBE0EAB6E9DEAD0AC
:11050A000100E7A00000E7A48039112B9053859101DE
:11050B0001FE7FF000FE7FEFC87CD3DA262891A7B7D7
:11050C0001FE7FF000FE7FEFC0488CEFE864BD4D42E9
:11050D0001FE7FF000FE7FEF98580BD78F153EA43873
:11050E0001FE7FF400FE7FEFA06112105E365D36486C
:11050F0001FE7FF000FE7FEFA8474BDAEB01931676E2
:1105100001FE7FF400FE7FEFB015A55E795DCCFD2372
:1105110001FE7FF000FE7FEFB848410413197F628528
:1105120001012E4000012E58C04E78488738AD4C1843
:1105130001FE7FF000FE7FEF98580BD78F153EA4386D
:1105140001FE7FF000FE7FEFA06112105E365D36486A
:1105150001FE7FF400FE7FEFA83E4A7E6221E4B8D357
:1105160001FE7FF000FE7FEFB015A55E795DCCFD2370
:1105170001FE7FF000FE7FEFB848410413197F628522
:1105180001FE7FF000FE7FEFC0488CEFE864BD4D42DD
:1105190001FE7FF000FE7FEFC87CD3DA262891A7B7C9
:11051A000100E7A00000E7A4A04B9DCBED08AA435830
:11051B000100000000000000000C12AC7F6798F0395D
:11051C0001FE7FF000FE7FF0D872564E7333710114D9
:11051D0001FE7FF000FE7FF06046E87CCD3D1B58BAB1
:11051E0001FE7FF000FE7FF098263BC0440EAB0386B2
:11051F000100AAE00000AAE300633516040E759D1AC7
:1105200001FE7FF400FE7FEFD00E622E0176DC762392
:1105210001FE7FF000FE7FF05019495CFF2AE8944AF1
:1105220001FE7FF000FE7FEFC87CD3DA262891A7B7C0
:1105230001FE7FF000FE7FEFA06112105E365D36485B
:1105240001FE7FF400FE7FEFB04B9614B52C48812C6D
:1105250001FE7FF400FE7FEFB82CA8251362A5B774F1
:1105260001FE7FF000FE7FEFC0488CEFE864BD4D42CF
:1105270001FE7FF000FE7FEFA83E4A7E6221E4B8D349
:1105280001012FF000012FF2901B4796986572CF1B9E
:1105290001FE7FF000FE7FEFA06112105E365D364855
:11052A0001FE7FF400FE7FEFA821673BC845CE376005
:11052B0001FE7FF000FE7FEFB04B9614B52C48812C6A
:11052C0001FE7FF400FE7FEFB80418B5C23D2B62C605
:11052D0001FE7FF000FE7FEFC0488CEFE864BD4D42C8
:11052E0001FE7FF000FE7FEFC87CD3DA262891A7B7B4
:11052F0001FE7FF000FE7FF0482AC1076A51A6E91547
:1105300001FE7FF000FE7FEFD00E622E0176DC762386
:1105310001FE7FF000FE7FF05019495CFF2AE8944AE1
:1105320001012FF000012FF2901B4796986572CF1B94
:1105330001FE7FF000FE7FEFC87CD3DA262891A7B7AF
:1105340001FE7FF000FE7FEFC0488CEFE864BD4D42C1
:1105350001FE7FF000FE7FEFB80418B5C23D2B62C600
:1105360001FE7FF000FE7FEFB04B9614B52C48812C5F
:1105370001FE7FF000FE7FEFA821673BC845CE3760FC
:1105380001FE7FF000FE7FEFA06112105E365D364846
:1105390001FE7FF000FE7FEF98580BD78F153EA43847
:11053A0001FE7FF000FE7FEF904CA4AA7B4A59FF721D
:11053B0001FE7FF400FE7FEF8810E55E3C7577C1FF0E
:11053C0001012E4400012E58C03D8D834F581D7974F5
:11053D0001012E5000012E58C848CCEE3145EA996E75
:11053E000100A2800000A295E038437FDB7644A45CE3
:11053F000100A2800000A291E006D68AB23A966CD051
:110540000100D5400000D545107FE7229260C94A4697
:1105410001FE7FF000FE7FEF904CA4AA7B4A59FF7216
:110542000100A2800000A295E038437FDB7644A45CDF
:110543000100A2800000A295E812E685FB70C6A529E9
:1105440001012E5000012E58C848CCEE3145EA996E6E
:110545000100D5400000D545107FE7229260C94A4692
:110546000100A2800000A295E038437FDB7644A45CDB
:110547000100A2800000A295E812E685FB70C6A529E5
:110548000100D5400000D545107FE7229260C94A468F
:110549000100A2800000A291901CDCE2DE69D3947CB7
:11054A0001017860000178646821DCDBA0220655C4C8
:11054B000100A2A00000A2A89823BC16C202026EC58C
:11054C000100E3800000E38618786D58E469B6E9D9B7
:11054D000100ECC00000ECD1605D4CAEF87A723B4518
:11054E00010159200001593DA853FB087534FA7B2B43
:11054F0001FE7FF000FE7FEF904CA4AA7B4A59FF7208
:1105500001FE7FF000FE7FEF904CA4AA7B4A59FF7207
:1105510001FE7FF000FE7FEF98580BD78F153EA4382F
:1105520001FE7FF000FE7FEFA06112105E365D36482C
:1105530001FE7FF000FE7FEFA821673BC845CE3760E0
:1105540001FE7FF400FE7FEFB061ED6C622CEA53F58E
:1105550001FE7FF000FE7FEFB80418B5C23D2B62C6E0
:1105560001FE7FF000FE7FEFC0488CEFE864BD4D429F
:1105570001FE7FF000FE7FEFC87CD3DA262891A7B78B
:1105580001FE7FF400FE7FEFD024EC872E6EA607C93B
:1105590001FE7FF000FE7FF05019495CFF2AE8944AB9
:11055A0001FE7FF000FE7FEFC87CD3DA262891A7B788
:11055B0001FE7FF000FE7FEFA06112105E365D364823
:11055C0001FE7FF000FE7FEFB061ED6C622CEA53F58A
:11055D0001FE7FF000FE7FEFB80418B5C23D2B62C6D8
:11055E0001FE7FF000FE7FEFC0488CEFE864BD4D4297
:11055F0001FE7FF000FE7FEFA821673BC845CE3760D4
:1105600001012FF000012FF2901B4796986572CF1B66
:1105610001FE7FF000FE7FEFA06112105E365D36481D
:1105620001FE7FF400FE7FEFA8406728240A4ABA0001
:1105630001FE7FF000FE7FEFB061ED6C622CEA53F583
:1105640001FE7FF000FE7FEFB80418B5C23D2B62C6D1
:1105650001FE7FF000FE7FEFC0488CEFE864BD4D4290
:1105660001FE7FF000FE7FEFC87CD3DA262891A7B77C
:1105670001FE7FF000FE7FEFC87CD3DA262891A7B77B
:1105680001FE7FF000FE7FEFC0488CEFE864BD4D428D
:110569000100A2A00000A2BAC06463C363347B3FD374
:11056A0001FE7FF000FE7FEFB80418B5C23D2B62C6CB
:11056B0001FE7FF000FE7FEFB061ED6C622CEA53F57B
:11056C0001FE7FF000FE7FEFA8406728240A4ABA00FB
:11056D0001FE7FF000FE7FEFA06112105E365D364811
:11056E000100A2A00000A2BAC06463C363347B3FD36F
