:110000000100000800FE7FF0486B8B4567327B23C6F9
:11000100036B8B4567327B23C6643C986966334873BE
:11000200032AE8944A625558EC74B0DC5119495CFFF1
:11000300033D1B58BA507ED7AB238E1F2946E87CCDBF
:110004000379E2A9E37545E1462EB141F241B71EFBFD
:110005000100000800FE7FF088515F007C5BD062C271
:1100060003515F007C5BD062C2122008544DB127F8C0
:11000700031190CDE766EF438D0216231B1F16E9E80F
:1100080003109CF92E0DED7263140E0F763352255A97
:110009000341A7C4C96B68079A7FDCC2331BEFD79F2A
:11000A000100000800FE7FEFD04E6AFB6625E45D32EF
:11000B00033F2DBA317C83E458519B500D431BD7B71A
:11000C0003257130A362BBD95A4E6AFB6625E45D3276
:11000D0003333AB105721DA317436C6125628C895D6A
:11000E00036763845E75A2A8D42443A8582D1D5AE9AB
:11000F000100000800012FF22808EDBDAB79838CB2F6
:1100100003189A769B54E49EB44353D0CD0B03E0C6A8
:11001100030836C40E02901D8271F324542CA8861153
:110012000308EDBDAB79838CB23A95F8740813864126
:1100130003737B8DDC6CEAF0871E7FF5217C3DBD3D4F
:1100140001012FE000012FF2004353D0CD0B03E0C6C1
:1100150001FE7FE000FE7FEFC83F2DBA317C83E458B6
:1100160001FE7FE000FE7FEFC0519B500D431BD7B71A
:110017000100000800FE7FEFB822221A704516DDE9BC
:1100180003419AC2415577F8E13006C83E614FD4A1F0
:11001900033804823E77465F01440BADFC050723672C
:11001A00032463B9EA5E884ADC7724C67E5C482A9758
:11001B000322221A704516DDE951EAD36B2D517796DE
:11001C0001FE7FE000FE7FEFB051EAD36B2D51779655
:11001D0001FE7FE000FE7FEFA82463B9EA5E884ADC2A
:11001E0001FE7FE000FE7FEFA07724C67E5C482A9723
:11001F0001FE7FE000FE7FEF983804823E77465F0155
:1100200001012FE000012FF2004353D0CD0B03E0C6B5
:1100210001012FE000012FF208189A769B54E49EB446
:11002200010000080000A295E0580BD78F153EA438B5
:11002300036A2342EC2A487CB03855585C70A64E2AA1
:11002400032CD89A3257E4CCAF1D4ED43B725A06FBFB
:11002500037A6D8D3C4B588F54580BD78F153EA43899
:110026000338437FDB7644A45C542289EC6DE91B18C3
:110027000100A2800000A295E87A6D8D3C4B588F5450
:11002800010000080000D5CBF032FFF902684A481AEE
:11002900033DC240FB1BA026FA579478FE749ABB4341
:11002A000312E685FB70C6A52979A1DEAA75C6C33A6C
:11002B00034F4EF00523F9C13C520EEDD1374A3FE652
:11002C0003649BB77C275AC79432FFF902684A481A72
:11002D000100A2800000A295E0580BD78F153EA43890
:11002E000100A2800000A295E87A6D8D3C4B588F5449
:11002F000100D5C00000D5CBF032FFF902684A481A5A
:110030000100A2800000A295E0580BD78F153EA4388D
:110031000100A2800000A295E87A6D8D3C4B588F5446
:110032000100D5C00000D5CBF8649BB77C275AC79481
:110033000100D5C00000D5CBF8649BB77C275AC79480
:1100340001012FE000012FF2004353D0CD0B03E0C6A1
:1100350001012FE000012FF2004353D0CD0B03E0C6A0
:11003600010000080000A29620393865751CF10FD819
:110037000347398C89354FE9F9180115BE235BA86147
:11003800030D34B6A810233C9915B5AF5C741226BBD1
:11003900033F6AB60F61574095393865751CF10FD879
:11003A0003579BE4F1310C50B37E0C57B177AE35EBD4
:11003B0001012FE000012FF208189A769B54E49EB42C
:11003C00010000080000D5CB805FF87E052F305DEF05
:11003D000325A70BF71DBABF005FF87E052F305DEFC6
:11003E00031381823A5DB70AE54AD084E91F48EAA1E2
:11003F000315014ACB5F5E7FD0100F8FCA6590700B8E
:110040000306B9476442C296BD098A3148799D024780
:110041000100000800012E5860168E121F1EBA5D2391
:1100420003540A471C7BD3EE7B661E3F1E5DC79EA8E7
:11004300030BF72B1411447B7351D9C564613EFDC571
:110044000342963E5A0A0382C5168E121F1EBA5D23B7
:11004500033B0FD37968EB2F6308F2B15E1A32234B69
:110046000100D5C00000D5CB904AD084E91F48EAA16A
:1100470001FE7FE000FE7FEF983804823E77465F012D
:1100480001FE7FE000FE7FEFA07724C67E5C482A97F9
:1100490001FE7FE000FE7FEFA82463B9EA5E884ADCFE
:11004A0001FE7FE000FE7FEFB051EAD36B2D51779627
:11004B0001FE7FE000FE7FEFB822221A704516DDE933
:11004C0001FE7FE000FE7FEFC0519B500D431BD7B7E4
:11004D0001FE7FE000FE7FEFC83F2DBA317C83E4587E
:11004E0001FE7FE000FE7FF060238E1F2946E87CCD06
:11004F0001FE7FE000FE7FF05074B0DC5119495CFF77
:110050000100000800013012404962813B60B6DF7047
:110051000306A5EE64143306244962813B60B6DF7061
:110052000371EA1109100F59DC7FFFCA111A27709E29
:11005300036F6DD9AC094211F27FB7E0AA06EB5BD40A
:11005400034C04A8AF1716703B00885E1B762721104A
:110055000101300000013012607FB7E0AA06EB5BD4E5
:1100560001012FE000012FF2203A95F8740813864129
:1100570001FE7FE000FE7FF060238E1F2946E87CCDFD
:1100580001FE7FE000FE7FF088515F007C5BD062C2C9
:110059000100000800FE7FF12014E17E333222E7CD51
:11005A00032DF6D64846B7D44774DE0EE368EBC5508E
:11005B000357FC4FBB0CC1016F4A2AC31539EE015C27
:11005C000343F1842260EF011914E17E333222E7CD9F
:11005D000349DA307D7055A5F526F324BA7F01579BF7
:11005E0001FE7FE000FE7FF11857FC4FBB0CC1016F13
:11005F0001FE7FE000FE7FF11857FC4FBB0CC1016F12
:1100600001FE7FE000FE7FEFD04E6AFB6625E45D3244
:1100610001012FE000012FF22808EDBDAB79838CB29C
:1100620001012FE000012FF2004353D0CD0B03E0C673
:1100630001012FE000012FF208189A769B54E49EB404
:110064000100A2800000A295E0580BD78F153EA43859
:1100650001FE7FE000FE7FF040643C9869663348738A
:110066000100A2800000A295E87A6D8D3C4B588F5411
:110067000100D5C00000D5CBF8649BB77C275AC7944C
:1100680001FE7FE000FE7FF040643C98696633487387
:1100690001FE7FE000FE7FF12014E17E333222E7CDEC
:11006A0001FE7FE000FE7FF12014E17E333222E7CDEB
:11006B0001FE7FE000FE7FF11857FC4FBB0CC1016F06
:11006C0001FE7FE000FE7FF11857FC4FBB0CC1016F05
:11006D0001FE7FE000FE7FF060238E1F2946E87CCDE7
:11006E0001FE7FE000FE7FF12014E17E333222E7CDE7
:11006F0001FE7FE000FE7FF088515F007C5BD062C2B2
:1100700001FE7FE000FE7FEFD04E6AFB6625E45D3234
:1100710001FE7FE000FE7FEFE0436C6125628C895DCB
:11007200010000080000D5C8805FB8370B50801EE12F
:11007300030488AC1A5FB8011C5FB8370B50801EE1CB
:11007400036FC75AF86A5F70296AA78F7F7672BD23A7
:110075000373A1821B7DE677137D5E18F85F3534A482
:110076000314FCE74E6A3DD3E8555C55B53FA62ACA3B
:1100770001FE7FE000FE7FF060238E1F2946E87CCDDD
:1100780001FE7FE000FE7FF088515F007C5BD062C2A9
:1100790001FE7FE000FE7FF060238E1F2946E87CCDDB
:11007A0001FE7FE000FE7FF1104A2AC31539EE015CC9
:11007B0001FE7FE000FE7FF1104A2AC31539EE015CC8
:11007C0001FE7FE000FE7FEFD04E6AFB6625E45D3228
:11007D00010000080000AA862871C9129809DAF63222
:11007E00035092CA791D545C4D532999381FBFE8E03C
:11007F00032A155DBC1D9F6E5F59ADEA3D288F1A345A
:110080000371C9129809DAF632097E1B4E510882773B
:1100810003415E286C7C58FD051CA0C5FA53584BCB26
:1100820001012FE000012FF22808EDBDAB79838CB27B
:1100830001FE7FE000FE7FEFF02443A8582D1D5AE9BE
:1100840001012FE000012FF2004353D0CD0B03E0C651
:1100850001FE7FE000FE7FF0486B8B4567327B23C61F
:1100860001FE7FE000FE7FF1104A2AC31539EE015CBD
:1100870001FE7FE000FE7FEFE0436C6125628C895DB5
:1100880001012FE000012FF2004353D0CD0B03E0C64D
:1100890001FE7FE000FE7FEFC83F2DBA317C83E45842
:11008A0001FE7FE000FE7FEFC0519B500D431BD7B7A6
:11008B0001FE7FE000FE7FEFB822221A704516DDE9F3
:11008C0001FE7FE000FE7FEFB051EAD36B2D517796E5
:11008D0001FE7FE000FE7FEFA82463B9EA5E884ADCBA
:11008E0001FE7FE000FE7FEFA07724C67E5C482A97B3
:11008F0001012FE000012FF2004353D0CD0B03E0C646
:1100900001012FE000012FF208189A769B54E49EB4D7
:110091000100A2800000A295E0580BD78F153EA4382C
:110092000100A2800000A295E87A6D8D3C4B588F54E5
:110093000100D5C00000D5CBF032FFF902684A481AF6
:110094000100D5C00000D5C8805FB8370B50801EE180
:11009500010000080000D5C85023D86AAC45E6D486CE
:11009600033C5991AA4BD8591A5C10FE210E7FFA2BB3
:110097000378DF6A5539B7AAA223D86AAC45E6D4866D
:1100980003379E21B50069E3732B0D8DBE6C80EC701F
:11009900036AA7B75C1DF029D32C27173B4C9B09048D
:11009A000100000800011E80C05675FF363DD15094FB
:11009B00033DB012B32708C9AF5675FF363DD1509406
:11009C00034F97E3E4053B0A9E5B25ACE2175DFCF04D
:11009D000356438D15519E314934FD6B4F5915FF3221
:11009E00034DF72E4E5046B5A92C6E4AFD17A1B582CA
:11009F000100D5C00000D5C8702C27173B4C9B090414
:1100A0000100D5C80000D568705D888A082A082C70BF
:1100A1000375E0858A57A61A295EC6AFD419E21BB238
:1100A200034427069A0B37E80A5399C65420EE13489C
:1100A3000357D2F10E0BFFAE182157F6BC704E1DD577
:1100A400030E3E47A82E48F0445D888A082A082C701E
:1100A5000100000800012E5B2049D0FEAC4BEE5A5BE6
:1100A60003634C574C24E99DD75551B9F324F6AB8ECE
:1100A700037DFF9D09007543422A31B62D1849C29B2D
:1100A8000369E7F3E52A6DE80649D0FEAC4BEE5A5BE6
:1100A900037AB49DAF759F82CD1816F8C437DF223311
:1100AA0001012E4000012E5B2049D0FEAC4BEE5A5B7A
:1100AB0001012FE000012FF2004353D0CD0B03E0C62A
:1100AC0001012E4000012E5B2869E7F3E52A6DE80674
:1100AD000100A2800000A295E0580BD78F153EA43810
:1100AE00010000080000A291F061E74EA3597B4D8437
:1100AF0003312167AD631B64D40F819E7F57C7D42D55
:1100B000036E534CDE1A0DDE3278B5E77675486E471E
:1100B10003260D8C4A73D4D3C465968C1C46263DEC1C
:1100B20003746F2E306FDE8AF661E74EA3597B4D844E
:1100B300010000080000D56A303FC32E2049C0E82360
:1100B400036EAA85FB3F06ECB214D53685230F856CF6
:1100B500033F7C2FF425413BEC3B5948076CAA2304AC
:1100B600035D205E2011CCA8BA17180B0B579328B9EC
:1100B700034D32AB863F07ACC33FC32E2049C0E8236C
:1100B8000100D5600000D56A303FC32E2049C0E8232E
:1100B9000100A2800000A295E0580BD78F153EA43804
:1100BA000100A2800000A295E87A6D8D3C4B588F54BD
:1100BB00010000080000A291906B47F63E5CB44A0523
:1100BC00033FCFAED90F85686716CF80F11C695DEC14
:1100BD000311B1CC332E22FBB76B47F63E5CB44A0527
:1100BE0003744939A34FA0D2E32993469977485850EF
:1100BF00033F7F5DD92AE05A346B1D2C1468B867D37F
:1100C0000100D5600000D56A303FC32E2049C0E82326
:1100C1000100A2800000A295E0580BD78F153EA438FC
:1100C200010130080000A2925032794FF75454945EE4
:1100C30003135B8110094927A84DEFDFA02123D5F243
:1100C400030DCDF8F652D7B10532794FF75454945EF6
:1100C500032A6AD9BE0BAAC1B42E8A639424E6040114
:1100C600034AB26E7821FAA2FA36B2ACBC779D854460
:1100C7000100D5C00000D5CBF032FFF902684A481AC2
:1100C8000100A2800000A295E0580BD78F153EA438F5
:1100C9000100A2800000A295E87A6D8D3C4B588F54AE
:1100CA000100D5C00000D5CBF032FFF902684A481ABF
:1100CB000100000800017864085451CF496181EF693F
:1100CC00035451CF496181EF693E6400E614217E23CB
:1100CD0003424479DA1A9A9E69710757D05015CD1AA0
:1100CE00036A3B714C327B517E475E256A368DB37E18
:1100CF00035D5BABB351BF6B481F461B5129BACF259C
:1100D000010178600001786410710757D05015CD1A6D
:1100D10001FE7FE80000AAF0607E0F63842B4B8B53F6
:1100D200033494B2FB00B13A3172E3413A116AE494C6
:1100D3000325973E320EAD6F5764429599631F169070
:1100D400036EC9D8445C49EAEE7E0F63842B4B8B5380
:1100D500037E448DE95A9CC3E5064AF49B397C46BCAB
:1100D6000100A2800000A29600180115BE235BA8614B
:1100D70001000008000170BFC01AFE36253CA88ECF6B
:1100D800036EBE42080C058DF51AFE36253CA88ECF57
:1100D9000326A02C5E541C81530CBE5BE93102BBE2A1
:1100DA00030697D2D206D68AB267906F6010DB9DAAC1
:1100DB00035895F5FA38A5D0543A966CD063F37E85CF
:1100DC000100000800016223480F3F09D84B793735DD
:1100DD00030F3F09D84B7937354A10B4E843D3BCD414
:1100DE000326F2D36471C1AF984C2A71662E534A82AC
:1100DF00034E0B9A87434BAE753D00B9D915BCABA8EF
:1100E000031DE8725A6A37288A4F38F2654C502870D6
:1100E10001000008000165E21008F8B73F0CA6B462EF
:1100E200033DA970441CDCE2DE763CB68015B71329C8
:1100E3000369D3947C2539DFA508F8B73F0CA6B4621D
:1100E400032C106A57684EED592DB88089706B674E91
:1100E5000320F4BDAD639DEFAC545EE5D304A6605129
:1100E6000100A2800000A295F838437FDB7644A45C28
:1100E7000101622000016223404A10B4E843D3BCD422
:1100E800010165E0000165E2083DA970441CDCE2DE1E
:1100E9000100A2800000A295F838437FDB7644A45C25
:1100EA000100A2800000A291A8744939A34FA0D2E3CA
:1100EB0001000008000164EEB8501F97866B057295ED
:1100EC00031958BD174E647FE42771AC801C4A08EC88
:1100ED000364212B8C5C17530C0E0BB885565976F185
:1100EE000328677B7C378D97C019A52566335A1DF179
:1100EF0003501F97866B0572951D91467C316032BB0C
:1100F0000100A288000164F24044344C2213CDFCFC7F
:1100F10003471745E401DDBC6644344C2213CDFCFCB6
:1100F2000327179C0B5E63606330AADFDA30EADA61A9
:1100F3000346B24DBC75B52783215641AF53280662DA
:1100F400035953172F27EDFE3A57CE66B467A70B69F9
:1100F500010164E0000164EEB8501F97866B057295A6
:1100F6000100A2800000A291906B47F63E5CB44A05CE
:1100F700010178600001786410710757D05015CD1A46
:1100F800010164E0000164EEB8501F97866B057295A3
:1100F900010164E0000164F24044344C2213CDFCFC5B
:1100FA0001FE7FE000FE7FEFA07724C67E5C482A9747
:1100FB0001FE7FE000FE7FEFA82463B9EA5E884ADC4C
:1100FC0001FE7FE000FE7FEFB051EAD36B2D51779675
:1100FD0001FE7FE000FE7FEFB822221A704516DDE981
:1100FE0001FE7FE000FE7FEFC0519B500D431BD7B732
:1100FF0001FE7FE000FE7FEFC83F2DBA317C83E458CC
:1101000001FE7FE000FE7FEFC83F2DBA317C83E458CA
:1101010001FE7FE000FE7FEFC0519B500D431BD7B72E
:1101020001FE7FE000FE7FEFB822221A704516DDE97B
:1101030001FE7FE000FE7FEFB051EAD36B2D5177966D
:1101040001FE7FE000FE7FEFA82463B9EA5E884ADC42
:1101050001FE7FE000FE7FEFA07724C67E5C482A973B
:1101060001FE7FE000FE7FEF983804823E77465F016D
:1101070001012FE000012FF2004353D0CD0B03E0C6CD
:1101080001012FE000012FF2004353D0CD0B03E0C6CC
:1101090001012FE000012FF208189A769B54E49EB45D
:11010A000100A2800000A295E0580BD78F153EA438B2
:11010B000100A2800000A295E87A6D8D3C4B588F546B
:11010C000100D5C00000D5CBF8649BB77C275AC794A6
:11010D0001FE7FE000FE7FEF983804823E77465F0166
:11010E0001FE7FE000FE7FEFA07724C67E5C482A9732
:11010F0001FE7FE000FE7FEFA82463B9EA5E884ADC37
:1101100001FE7FE000FE7FEFB051EAD36B2D51779660
:1101110001FE7FE000FE7FEFB822221A704516DDE96C
:1101120001FE7FE000FE7FEFC0519B500D431BD7B71D
:1101130001FE7FE000FE7FEFC83F2DBA317C83E458B7
:1101140001012FE000012FF2004353D0CD0B03E0C6C0
:1101150001012FE000012FF208189A769B54E49EB451
:110116000100A2800000A295E0580BD78F153EA438A6
:110117000100A2800000A295E87A6D8D3C4B588F545F
:110118000100D5C00000D5CBF032FFF902684A481A70
:1101190001FE7FE000FE7FF1104A2AC31539EE015C29
:11011A0001FE7FE000FE7FEFE8333AB105721DA317B6
:11011B0001012FE000012FF2004353D0CD0B03E0C6B9
:11011C0001FE7FE000FE7FF1104A2AC31539EE015C26
:11011D0001012FE000012FF2004353D0CD0B03E0C6B7
:11011E0001FE7FE000FE7FEFE8333AB105721DA317B2
:11011F0001FE7FE000FE7FEFE0436C6125628C895D1C
:1101200001FE7FE000FE7FEFC83F2DBA317C83E458AA
:1101210001FE7FE000FE7FEFC0519B500D431BD7B70E
:1101220001FE7FE000FE7FEFB822221A704516DDE95B
:1101230001FE7FE000FE7FEFB051EAD36B2D5177964D
:1101240001FE7FE000FE7FEFA82463B9EA5E884ADC22
:1101250001FE7FE000FE7FEFA07724C67E5C482A971B
:1101260001FE7FE000FE7FEF983804823E77465F014D
:1101270001012FE000012FF2004353D0CD0B03E0C6AD
:1101280001FE7FE000FE7FEF90440BADFC05072367DE
:1101290001012FE000012FF208189A769B54E49EB43D
:11012A000100A2800000A295E0580BD78F153EA43892
:11012B000100A2800000A295E87A6D8D3C4B588F544B
:11012C000100D5C00000D5CBF032FFF902684A481A5C
:11012D0001012FE000012FF2004353D0CD0B03E0C6A7
:11012E00010000080000A2972052AC7DFF00C4C3AFAE
:11012F00034F2943935243BFAC443807276C053B1602
:11013000032E5B12B85C03D76D425EB207334A6F1F61
:110131000366A48D1156C28E3452AC7DFF00C4C3AF88
:11013200030822C0EF57C5BB4F13916F2D0435D38DE1
:110133000100AAE80000D5D0401803D0894F3A06D46C
:110134000359A377B648AEB0631803D0894F3A06D4AE
:1101350003271210C7217B22E40024E13500BB13C13B
:110136000317304A672BB180D853E31A246DC45E8303
:1101370003539F7F122817E7EC556B69ED708361961F
:110138000100A2800000A2972052AC7DFF00C4C3AF8A
:11013900010000080000D5D0307148254517D7863907
:11013A00036A1B45E5567BD50A141D2302407168D80B
:11013B0003327FAC775A60650973BBD7F81876589D34
:11013C00035E963896775BA7C16F38E6D146111BA53E
:11013D00031DD6D6F4769A091F7148254517D78639E9
:11013E000100D5C00000D5D0381DD6D6F4769A091F48
:11013F0001012FE000012FF2004353D0CD0B03E0C695
:110140000100D5C00000D5D070556B69ED7083619603
:1101410001FE7FE000FE7FEF88419AC2415577F8E1D8
:1101420001FE7FE000FE7FEF803006C83E614FD4A101
:110143000100000800FE7FEF784695AE95777A4EAAB7
:11014400037835626C665ACA493F48B98246BA8FCA3E
:1101450003541F28CD7F65FD166835B2AE4C187C90DA
:11014600036FE95EAC4B697C7A77C9FD68298A92BAF5
:11014700034695AE95777A4EAA51A27AA6613183F283
:1101480001FE7FE000FE7FEF7051A27AA6613183F252
:1101490001FE7FE000FE7FEF487835626C665ACA4945
:11014A000100000800FE7FEF38634102B465BF9DA834
:11014B00033C3B72B2155EC4C221A2ECCA4D5C489909
:11014C00036FBF29CB550B880865D2A1376EBB1F2A0C
:11014D00034C672FC952A311C334CC3ACF4E556261BB
:11014E0003634102B465BF9DA844EF6B8012FCDE5E72
:11014F0001FE7FE000FE7FEF58541F28CD7F65FD161E
:1101500001FE7FE000FE7FEF506835B2AE4C187C9017
:1101510001FE7FE000FE7FEF38634102B465BF9DA8D8
:1101520001FE7FE000FE7FEF38634102B465BF9DA8D7
:1101530001FE7FE000FE7FEF3044EF6B8012FCDE5E39
:1101540001FE7FE000FE7FEF284C672FC952A311C334
:1101550001FE7FE000FE7FEF2034CC3ACF4E55626140
:1101560001FE7FE000FE7FEF186FBF29CB550B8808A4
:1101570001FE7FE000FE7FEF1065D2A1376EBB1F2A3C
:1101580001FE7FE000FE7FEF083C3B72B2155EC4C230
:11015900010164E800FE7FEE804A1D606E04382503C3
:11015A000359B76E284252C2DA4A1D606E0438250322
:11015B00030E6B3F6A3EB218196A92EF4C41ED20D7F1
:11015C0003683CAAD3313C7C9941531DED06353CD205
:11015D0003126E008B34DFBC00519EB94C39DF25790A
:11015E000100000800FE7FEE281F9EC3223410ED56CB
:11015F0003496FB218680EA5D1023C049A5BDA35D404
:11016000033D1A2DD97F618FCD4A9554FE392EDBE49B
:11016100031F9EC3223410ED5607843E4509815DA3C9
:11016200031C7E3C011C2201FF5204A1914C73A9C6BE
:1101630001FE7FE000FE7FEF487835626C665ACA492B
:1101640001012FE000012FF2004353D0CD0B03E0C670
:1101650001012FE000012FF208189A769B54E49EB401
:1101660001FE7FE000FE7FEE183D1A2DD97F618FCD0E
:1101670001FE7FE000FE7FEE104A9554FE392EDBE457
:1101680001FE7FE000FE7FEE08496FB218680EA5D147
:1101690001FE7FE000FE7FEE00023C049A5BDA35D4A2
:11016A0001FE7FE000FE7FEF58541F28CD7F65FD1603
:11016B00010000080000A21DB850ABCEC97635AA2AF2
:11016C00033822CB016CE004435E74C4D93B3EBE150B
:11016D000373154115622D810279F0D62F7975E8EE5C
:11016E00031C0CA67C3D2066132AB2658744B3FA6143
:11016F000350ABCEC97635AA2A7993B6623BAB699E5A
:11017000010000080001889458713153697BCFBAFCA2
:110171000363DE60CD621AF47117859F723AA105811D
:1101720003713153697BCFBAFC73CFE16520F88EA647
:11017300032A79EC49338125CF617C843E7B541FABC0
:11017400034FA327CE1873983A47C7C97146F8284B3A
:110175000100A2000000A21DB850ABCEC97635AA2A4E
:1101760001018880000188947047C7C97146F8284BE8
:110177000101888000018894784FA327CE1873983A94
:1101780001FE7FE000FE7FEF506835B2AE4C187C90EF
:110179000101888000018894682A79EC49338125CF66
:11017A0001018880000188947047C7C97146F8284BE4
:11017B00010188800001889460617C843E7B541FABB4
:11017C00010188800001889458713153697BCFBAFC95
:11017D0001FE7FE000FE7FEF506835B2AE4C187C90EA
:11017E0001FE7FE000FE7FEF58541F28CD7F65FD16EF
:11017F0001FE7FE000FE7FEF6077C9FD68298A92BAA1
:1101800001FE7FE000FE7FEE00023C049A5BDA35D48B
:1101810001FE7FE000FE7FEE08496FB218680EA5D12E
:1101820001FE7FE000FE7FEE104A9554FE392EDBE43C
:1101830001FE7FE000FE7FEE183D1A2DD97F618FCDF1
:1101840001FE7FE000FE7FEE281F9EC3223410ED5650
:1101850001FE7FE000FE7FEE8859B76E284252C2DA42
:1101860001FE7FE000FE7FEE8859B76E284252C2DA41
:1101870001FE7FE000FE7FEE804A1D606E0438250385
:1101880001FE7FE000FE7FEF487835626C665ACA4906
:1101890001012FE000012FF2004353D0CD0B03E0C64B
:11018A000100000800007BCB283D2DD2752E17ECA764
:11018B00031AF7F0EA4DA32C7E53B2564F75509D7659
:11018C00032FD0AD811978EBEB6EC686640E0D31FF62
:11018D00033D2DD2752E17ECA752C12C614BDD53FDBD
:11018E00030788BD9B47CAA567569951FE4C54E2C3D6
:11018F000100000800007BBCB848249DBF1F0E5D0D08
:11019000030129517E763B8C4E026BAAE92C02FE8C1F
:1101910003718FABF97775797C4CFB8D3262A5D5BD36
:11019200033E6DA1C765CA235B1626FB8C3957756A67
:110193000348249DBF1F0E5D0D51CB0DA47B9B743C66
:1101940001FE7FE000FE7FEE906A92EF4C41ED20D7A5
:1101950001FE7FE000FE7FEF0021A2ECCA4D5C48998C
:110196000100000800FE7FEE4813E21002257D63F49C
:110197000313E21002257D63F470EC11B22EDA00ED40
:11019800033CE732EC22F13DF3732090725FB298167B
:11019900036ECE91F04FC4D600792B84010FA85F4D20
:11019A0003178F7B672421DFCF5BFD421076574F8B85
:11019B0001FE7FE000FE7FEF0021A2ECCA4D5C489986
:11019C0001FE7FE000FE7FEE906A92EF4C41ED20D79D
:11019D0001FE7FE000FE7FEF0021A2ECCA4D5C489984
:11019E000100000800007BB3F01565AC9919FB2650E0
:11019F00031036B29F1D206B8E5024DE5B168EFE1719
:1101A000031495E50A0F5BCF617934D3D401C65E9808
:1101A100037525F2BC0CE8E1A73B1DD403530386D1AA
:1101A200034E9EFB0D090802BE1565AC9919FB26503B
:1101A30001FE7FE000FE7FEF0021A2ECCA4D5C48997E
:1101A40001FE7FE000FE7FEF0021A2ECCA4D5C48997D
:1101A50001FE7FE000FE7FEE4813E21002257D63F438
:1101A60001FE7FE000FE7FEF0021A2ECCA4D5C48997B
:1101A70001FE7FE000FE7FEF0021A2ECCA4D5C48997A
:1101A80001FE7FE000FE7FEE906A92EF4C41ED20D791
:1101A90001FE7FE000FE7FEF0021A2ECCA4D5C489978
:1101AA0001007BA000007BB3F01565AC9919FB2650C1
:1101AB0001FE7FE000FE7FEF0021A2ECCA4D5C489976
:1101AC0001FE7FE000FE7FEF0021A2ECCA4D5C489975
:1101AD0001FE7FE000FE7FEE4813E21002257D63F430
:1101AE0001FE7FE000FE7FEF0021A2ECCA4D5C489973
:1101AF0001FE7FE000FE7FEE8859B76E284252C2DA18
:1101B00001FE7FE000FE7FEF083C3B72B2155EC4C2D8
:1101B10001FE7FE000FE7FEF1065D2A1376EBB1F2AE2
:1101B20001FE7FE000FE7FEF186FBF29CB550B880848
:1101B30001FE7FE000FE7FEF2034CC3ACF4E556261E2
:1101B40001FE7FE000FE7FEF284C672FC952A311C3D4
:1101B50001FE7FE000FE7FEF3044EF6B8012FCDE5ED7
:1101B60001FE7FE000FE7FEF38634102B465BF9DA873
:1101B70001FE7FE000FE7FEF506835B2AE4C187C90B0
:1101B80001018880000188947047C7C97146F8284BA6
:1101B9000101888000018894682A79EC49338125CF26
:1101BA000101888000018894784FA327CE1873983A51
:1101BB00010188800001889458713153697BCFBAFC56
:1101BC0001FE7FE000FE7FEF38634102B465BF9DA86D
:1101BD0001FE7FE000FE7FEF506835B2AE4C187C90AA
:1101BE000100A2000000A21DB850ABCEC97635AA2A05
:1101BF00010188800001889458713153697BCFBAFC52
:1101C000010188800001889458713153697BCFBAFC51
:1101C1000100A2000000A21DB850ABCEC97635AA2A02
:1101C20001FE7FE000FE7FEF58541F28CD7F65FD16AB
:1101C30001FE7FE000FE7FEF506835B2AE4C187C90A4
:1101C40001FE7FE000FE7FEF38634102B465BF9DA865
:1101C50001FE7FE000FE7FEF7051A27AA6613183F2D5
:1101C60001FE7FE000FE7FEF784695AE95777A4EAADF
:1101C70001FE7FE000FE7FEF803006C83E614FD4A17C
:1101C80001FE7FE000FE7FEF88419AC2415577F8E151
:1101C9000100D5C00000D5D070556B69ED708361967A
:1101CA000100D5C00000D5D0500024E13500BB13C1D0
:1101CB000100D5C00000D5D058271210C7217B22E4DE
:1101CC00010000080000A296603266459B3F8B0CBF74
:1101CD00031F3DA4D574C9369837E203AB2586D60EE8
:1101CE0003047195E53746A5F248781401186928D6C6
:1101CF0003682DFED6606ED7F63266459B3F8B0CBF0B
:1101D000030490B7C54303A2162D9DF57D7FBD7A3EDD
:1101D1000100D5C00000D5D078539F7F122817E7ECD5
:1101D20001FE7FE000FE7FEF90440BADFC0507236734
:1101D3000100D5C00000D5D04859A377B648AEB06366
:1101D4000100D5C00000D5D06817304A672BB180D84B
:1101D5000100D5C00000D5D0401803D0894F3A06D4C7
:1101D6000100D5C00000D5D078539F7F122817E7ECD0
:1101D70001012FE000012FF2004353D0CD0B03E0C6FD
:1101D80001012FE000012FF2004353D0CD0B03E0C6FC
:1101D900010000080000AAE31819B8A08E54B59621A8
:1101DA000371D601AF52C774025992A02E29EF532D3A
:1101DB000319B8A08E54B596212BB5B1C6066BE6B9EA
:1101DC0003596F6D8A5749361F6223436366D385C9A9
:1101DD0003605138DE2622AD0C73BC6770280E68970B
:1101DE000100AAE00000AAE3206223436366D385C926
:1101DF000100AAE00000AAE328596F6D8A5749361F1B
:1101E0000100AAE00000AAE338605138DE2622AD0CF6
:1101E1000100AAE00000AAE33073BC6770280E68978A
:1101E2000100D5C00000D5D078539F7F122817E7ECC4
:1101E3000100D5C80000D568886799755618333C89CD
:1101E400036799755618333C894BA9831A06D71A2B79
:1101E500031F404301116E09070CFC73211421971B51
:1101E6000371DCE0FD7906328B4B683D0D076E41D814
:1101E700033C09D4A120E45CA4072BBC16766D98C205
:1101E8000100A2800000A296603266459B3F8B0CBF3E
:1101E9000100D5680000D5C8805FB8370B50801EE182
:1101EA00030488AC1A5FB8011C5FB8370B50801EE153
:1101EB00036FC75AF86A5F70296AA78F7F7672BD232F
:1101EC000373A1821B7DE677137D5E18F85F3534A40A
:1101ED000314FCE74E6A3DD3E8555C55B53FA62ACAC3
:1101EE000100D5C00000D5D070556B69ED7083619655
:1101EF000100D5C00000D5D070556B69ED7083619654
:1101F0000100D5C00000D5C8906AA78F7F7672BD2354
:1101F1000100D5C00000D5C8906AA78F7F7672BD2353
:1101F2000100000800000000004B232EE3159C74CF80
:1101F300034AD3AFD23CF930924B232EE3159C74CFF0
:1101F400034365174B4A872C356863E8D2768961983E
:1101F5000321D0625551194ED15D5CE7611CD484D57B
:1101F60003773BFBDD2C7C62C244E2ED6C02219B332F
:1101F7000100000000000000004B232EE3159C74CF83
:1101F8000100000000000000004B232EE3159C74CF82
:1101F9000100000000000000004B232EE3159C74CF81
:1101FA000100D5680000D5C8702C27173B4C9B090410
:1101FB00033C5991AA4BD8591A5C10FE210E7FFA2B4D
:1101FC000378DF6A5539B7AAA223D86AAC45E6D48607
:1101FD0003379E21B50069E3732B0D8DBE6C80EC70B9
:1101FE00036AA7B75C1DF029D32C27173B4C9B090427
:1101FF000100D5C80000D568B0072BBC16766D98C223
:11020000036799755618333C894BA9831A06D71A2B5C
:11020100031F404301116E09070CFC73211421971B34
:110202000371DCE0FD7906328B4B683D0D076E41D8F7
:11020300033C09D4A120E45CA4072BBC16766D98C2E8
:110204000100D5600000D568B0072BBC16766D98C285
:110205000100D5C00000D5D0500024E13500BB13C194
:110206000100D5600000D568981F404301116E0907AA
:110207000100D5C00000D5D058271210C7217B22E4A1
:110208000100D5C00000D5C8702C27173B4C9B0904A9
:110209000100D5C00000D5D06053E31A246DC45E83C3
:11020A000100D5C00000D5D078539F7F122817E7EC9B
:11020B0001012FE000012FF2004353D0CD0B03E0C6C8
:11020C0001012FE000012FF208189A769B54E49EB459
:11020D000100A2800000A295E0580BD78F153EA438AE
:11020E000100A2800000A295E87A6D8D3C4B588F5467
:11020F000100D5C00000D5CBF032FFF902684A481A78
:110210000100A2800000A291906B47F63E5CB44A05B2
:110211000100000800017863F01A54D7BC42E57EF76A
:1102120003570716135293BFEF33537CED27514ADE2F
:11021300035A0201C72A9C34E238BF53E5226F5320A4
:11021400032109CDA4577F5A4D1B7585AB612DBDDDD6
:110215000302121A816C2CFC881A54D7BC42E57EF76D
:1102160001012FE000012FF2004353D0CD0B03E0C6BD
:1102170001012FE000012FF208189A769B54E49EB44E
:110218000100A2800000A295E0580BD78F153EA438A3
:110219000100A2800000A295E87A6D8D3C4B588F545C
:11021A000100D5C00000D5CBF032FFF902684A481A6D
:11021B000100A2800000A291906B47F63E5CB44A05A7
:11021C000101786000017863F01A54D7BC42E57EF78E
:11021D0001012FE000012FF208189A769B54E49EB448
:11021E000100A2800000A295E0580BD78F153EA4389D
:11021F0001012FE000012FF2004353D0CD0B03E0C6B4
:110220000100A2800000A295E87A6D8D3C4B588F5455
:110221000100D5C00000D5CBF032FFF902684A481A66
:11022200010178600001786410710757D05015CD1A19
:1102230001012FE000012FF208189A769B54E49EB442
:110224000100A2800000A295E0580BD78F153EA43897
:110225000100A2800000A295E87A6D8D3C4B588F5450
:110226000100D5C00000D5CBF032FFF902684A481A61
:110227000100A2800000A291A02993469977485850CE
:110228000101786000017863F802121A816C2CFC884C
:1102290001012FE000012FF2004353D0CD0B03E0C6AA
:11022A0001FE7FE000FE7FEF983804823E77465F0148
:11022B0001FE7FE000FE7FEFA07724C67E5C482A9714
:11022C0001FE7FE000FE7FEFA82463B9EA5E884ADC19
:11022D0001FE7FE000FE7FEFB051EAD36B2D51779642
:11022E0001FE7FE000FE7FEFB822221A704516DDE94E
:11022F0001FE7FE000FE7FEFC0519B500D431BD7B7FF
:1102300001FE7FE000FE7FEFC83F2DBA317C83E45899
:1102310001FE7FE000FE7FF1104A2AC31539EE015C10
:1102320001FE7FE000FE7FEFF02443A8582D1D5AE90D
:1102330001012FE000012FF2004353D0CD0B03E0C6A0
:110234000100D5C00000D5D078539F7F122817E7EC71
:1102350001012FE000012FF2004353D0CD0B03E0C69E
:110236000100D5C800FE7FF060238E1F2946E87CCDDC
:11023700036B8B4567327B23C6643C98696633487386
:11023800032AE8944A625558EC74B0DC5119495CFFB9
:11023900033D1B58BA507ED7AB238E1F2946E87CCD87
:11023A000379E2A9E37545E1462EB141F241B71EFBC5
:11023B0001FE7FE000FE7FF060238E1F2946E87CCD17
:11023C0001FE7FE000FE7FF1104A2AC31539EE015C05
:11023D0001FE7FE000FE7FF1104A2AC31539EE015C04
:11023E0001FE7FE000FE7FF060238E1F2946E87CCD14
:11023F0001FE7FE000FE7FF060238E1F2946E87CCD13
:1102400001FE7FE000FE7FF088515F007C5BD062C2DF
:1102410001FE7FE000FE7FEFD04E6AFB6625E45D3261
:1102420001012FE000012FF22808EDBDAB79838CB2B9
:1102430001012FE000012FF2004353D0CD0B03E0C690
:1102440001FE7FE000FE7FF05074B0DC5119495CFF80
:11024500010164E800013012507FFFCA111A27709E1F
:110246000306A5EE64143306244962813B60B6DF706A
:110247000371EA1109100F59DC7FFFCA111A27709E32
:11024800036F6DD9AC094211F27FB7E0AA06EB5BD413
:11024900034C04A8AF1716703B00885E1B7627211053
:11024A000100000800012FEED86D1BCF1C4CE5CA53E3
:11024B0003436F2BEB6C8B446629262D1A557FB7EE27
:11024C00036D1BCF1C4CE5CA532006E42420CC134C64
:11024D000371E5621E4E42B6A8095FC93B41D7467996
:11024E00037ABF196A5E4DB96843F8E1AC69215DFB6A
:11024F0001012FE000012FF2301E7FF5217C3DBD3DD5
:1102500001011E8000011E80C05675FF363DD15094AC
:1102510001FE7FE000FE7FF05074B0DC5119495CFF73
:110252000100A2800000A2973013916F2D0435D38D36
:110253000101300000013012404962813B60B6DF7019
:1102540001FE7FE000FE7FF05074B0DC5119495CFF70
:110255000100A2800000A2919811B1CC332E22FBB7E7
:1102560001FE7FE000FE7FF12843F1842260EF011960
:1102570001FE7FE000FE7FF13026F324BA7F01579B31
:1102580001FE7FE000FE7FF13849DA307D7055A5F562
:110259000100000800FE7FF1402C06DCF32E129658AE
:11025A0003059F0446030DF3062C06DCF32E1296586A
:11025B0003257D46265AA8580E00A656473E5E582BB7
:11025C00033BD615EB0A045AB268FA8D0D40F2CBD298
:11025D00037631573A058DF53B1872261F3DE8306C03
:11025E0001FE7FE000FE7FF148059F0446030DF30684
:11025F0001FE7FE000FE7FF15000A656473E5E582B10
:1102600001FE7FE000FE7FF158257D46265AA8580EF3
:110261000101300000013012404962813B60B6DF700B
:110262000100A2800000A2961015B5AF5C741226BBE4
:1102630001FE7FE000FE7FF158257D46265AA8580EF0
:1102640001FE7FE000FE7FF15000A656473E5E582B0B
:1102650001FE7FE000FE7FF148059F0446030DF3067D
:1102660001FE7FE000FE7FF1402C06DCF32E1296584C
:1102670001FE7FE000FE7FF13849DA307D7055A5F553
:1102680001FE7FE000FE7FF13026F324BA7F01579B20
:1102690001FE7FE000FE7FF12843F1842260EF01194D
:11026A0001FE7FE000FE7FF0A0140E0F763352255A6D
:11026B0001FE7FE000FE7FF0486B8B4567327B23C637
:11026C000101300000013012607FB7E0AA06EB5BD4CC
:11026D0001012FE000012FF2203A95F8740813864110
:11026E0001FE7FE000FE7FF0486B8B4567327B23C634
:11026F0001FE7FE000FE7FF0A8109CF92E0DED726369
:1102700001FE7FE000FE7FF0A8109CF92E0DED726368
:1102710001FE7FE000FE7FF0A0140E0F763352255A66
:110272000101300000013012607FB7E0AA06EB5BD4C6
:1102730001012FE000012FF2203A95F874081386410A
:110274000100000800007BCAB80ACDFAC01F57845494
:11027500030BE2C8BA7B14914E5B0DAD2A4E3D26ABFD
:11027600033CEBD7C760EE9C166F0939F8154291F628
:11027700034A0FFA115E4462086385489E00E4B97325
:11027800030ACDFAC01F5784545F3272DB7616D7044E
:1102790001007BA000007BBCA83E6DA1C765CA235BB9
:11027A0001FE7FE000FE7FF0B07FDCC2331BEFD79F28
:11027B0001FE7FE000FE7FF12014E17E333222E7CDD8
:11027C0001FE7FE000FE7FF0683D1B58BA507ED7AB84
:11027D0001FE7FE000FE7FF12014E17E333222E7CDD6
:11027E0001FE7FE000FE7FF0B07FDCC2331BEFD79F24
:11027F0001FE7FE000FE7FF12014E17E333222E7CDD4
:110280000100000800007BB4000C56F86064D17722AD
:11028100037924CA0A0CFD4EA70C56F86064D1772272
:110282000367A5A6B50C2A5C5B232FCF4D1EA21031A5
:1102830003162EB70D780702225F94DC03237BBCA0F0
:11028400037D94F75D6C31E7CD6163ED0D0C600E4731
:1102850001FE7FE000FE7FF0A0140E0F763352255A52
:110286000101300000013012607FB7E0AA06EB5BD4B2
:110287000100000800FE7FF0C02BB7929B58A2A487FC
:11028800033A6F0E78379A5B562BB7929B58A2A4877D
:11028900034CDCED4C10A30D9C53B735D52978487037
:11028A00031187C70F5476DE980A66E486306235EA27
:11028B00034A8DB59C1AFD90530EA697F270BA39EBB2
:11028C0001FE7FE000FE7FF0486B8B4567327B23C616
:11028D0001012FE000012FF22808EDBDAB79838CB26E
:11028E0001012FE000012FF2004353D0CD0B03E0C645
:11028F0001FE7FE000FE7FF0486B8B4567327B23C613
:1102900001012FE000012FF22808EDBDAB79838CB26B
:1102910001012FE000012FF2004353D0CD0B03E0C642
:1102920001007BC000007BCB283D2DD2752E17ECA728
:1102930001007BA000007BBCB848249DBF1F0E5D0DF0
:1102940001FE7FE000FE7FF0B841A7C4C96B68079AED
:1102950001FE7FE000FE7FF11857FC4FBB0CC1016FDA
:1102960001FE7FE000FE7FF088515F007C5BD062C289
:1102970001FE7FE000FE7FF11857FC4FBB0CC1016FD8
:1102980001FE7FE000FE7FF0B841A7C4C96B68079AE9
:1102990001FE7FE000FE7FF11857FC4FBB0CC1016FD6
:11029A0001007BA000007BB3F01565AC9919FB2650D0
:11029B0001FE7FE000FE7FF11857FC4FBB0CC1016FD4
:11029C0001FE7FE000FE7FF11857FC4FBB0CC1016FD3
:11029D0001FE7FE000FE7FF11857FC4FBB0CC1016FD2
:11029E0001FE7FE000FE7FF088515F007C5BD062C281
:11029F0001FE7FE000FE7FF11857FC4FBB0CC1016FD0
:1102A00001FE7FE000FE7FF0B841A7C4C96B68079AE1
:1102A10001FE7FE000FE7FF11857FC4FBB0CC1016FCE
:1102A20001007BA000007BB3F01565AC9919FB2650C8
:1102A30001FE7FE000FE7FF11857FC4FBB0CC1016FCC
:1102A40001FE7FE000FE7FF11857FC4FBB0CC1016FCB
:1102A50001FE7FE000FE7FF11857FC4FBB0CC1016FCA
:1102A60001FE7FE000FE7FF088515F007C5BD062C279
:1102A70001FE7FE000FE7FF12014E17E333222E7CDAC
:1102A80001FE7FE000FE7FF12014E17E333222E7CDAB
:1102A90001FE7FE000FE7FF0683D1B58BA507ED7AB57
:1102AA0001FE7FE000FE7FF12014E17E333222E7CDA9
:1102AB0001FE7FE000FE7FF12014E17E333222E7CDA8
:1102AC0001FE7FE000FE7FF0B07FDCC2331BEFD79FF6
:1102AD0001FE7FE000FE7FF12014E17E333222E7CDA6
:1102AE0001007BA000007BB4000C56F86064D177226C
:1102AF0001FE7FE000FE7FF0A0140E0F763352255A28
:1102B0000101300000013012607FB7E0AA06EB5BD488
:1102B10001FE7FE000FE7FF0C02BB7929B58A2A4877D
:1102B20001FE7FE000FE7FF0486B8B4567327B23C6F0
:1102B30001012FE000012FF2301E7FF5217C3DBD3D71
:1102B40001011E8000011E80C05675FF363DD1509448
:1102B50001FE7FE000FE7FF0486B8B4567327B23C6ED
:1102B60001012FE000012FF2301E7FF5217C3DBD3D6E
:1102B70001011E8000011E80C05675FF363DD1509445
:1102B8000100000800007BCB60558BB10D43B27FA7CD
:1102B9000362548FD80FA085B027FADEFA78BB805A2A
:1102BA0003331C42501B1493C204E5DCB541E96BDBE1
:1102BB000339F06DFD14802F5D558BB10D43B27FA7C3
:1102BC000300B2172A532C34A52774A2093785655A22
:1102BD000100000800007BBCC0102809E23B2125A3E9
:1102BE00030AC68FFB63DF3FB7102809E23B2125A353
:1102BF000374824D546F00529A64996E1357A37D47FD
:1102C000034377313216AC4B230805B331060A146365
:1102C1000331A9DB764C4FFF5B76C44E4E0E04E6CE6D
:1102C20001FE7FE000FE7FF0B841A7C4C96B68079ABF
:1102C30001FE7FE000FE7FF11857FC4FBB0CC1016FAC
:1102C40001FE7FE000FE7FF088515F007C5BD062C25B
:1102C50001FE7FE000FE7FF11857FC4FBB0CC1016FAA
:1102C60001FE7FE000FE7FF0B841A7C4C96B68079ABB
:1102C70001FE7FE000FE7FF11857FC4FBB0CC1016FA8
:1102C8000100A28800007335C851B7667559A4BA717F
:1102C9000351B7667559A4BA71450B7FB6340BF64D0F
:1102CA000375F562281C6182716945402149F15C6BAC
:1102CB000330E1B1CF0C7A92376505F02E2FE5D025AE
:1102CC00035FA6C6DC77933F62676B35803193C8F9C0
:1102CD0001FE7FE000FE7FF11857FC4FBB0CC1016FA2
:1102CE0001FE7FE000FE7FF11857FC4FBB0CC1016FA1
:1102CF0001FE7FE000FE7FF11857FC4FBB0CC1016FA0
:1102D00001FE7FE000FE7FF088515F007C5BD062C24F
:1102D10001FE7FE000FE7FF12014E17E333222E7CD82
:1102D20001FE7FE000FE7FF12014E17E333222E7CD81
:1102D30001FE7FE000FE7FF0683D1B58BA507ED7AB2D
:1102D40001FE7FE000FE7FF12014E17E333222E7CD7F
:1102D50001FE7FE000FE7FF0A8109CF92E0DED726303
:1102D60001FE7FE000FE7FF12843F1842260EF0119E0
:1102D70001FE7FE000FE7FF13026F324BA7F01579BB1
:1102D80001FE7FE000FE7FF13849DA307D7055A5F5E2
:1102D90001FE7FE000FE7FF1402C06DCF32E129658D9
:1102DA0001FE7FE000FE7FF148059F0446030DF30608
:1102DB0001FE7FE000FE7FF15000A656473E5E582B94
:1102DC0001FE7FE000FE7FF158257D46265AA8580E77
:1102DD000100A2800000A2961015B5AF5C741226BB69
:1102DE000100A2800000A2961015B5AF5C741226BB68
:1102DF0001FE7FE000FE7FF158257D46265AA8580E74
:1102E0000101300000013012404962813B60B6DF708C
:1102E10001FE7FE000FE7FF158257D46265AA8580E72
:1102E20001013000000130125871EA1109100F59DC75
:1102E3000100000800013012C06CB4EE9C6A6D56D750
:1102E400035B727F19514E5CB06CB4EE9C6A6D56D748
:1102E50003404EAF4A4A16874F4210D41E4FF4CC6D88
:1102E6000360C2D2734CC32F1F55FEE0D103C5E07C18
:1102E7000319132E7B63822DC011CAC74A126CADE95C
:1102E80001FE7FE000FE7FF1683BD615EB0A045AB2A6
:1102E9000101300800FE7FF2D06C11685A5E1EAE31F1
:1102EA000328100A9C0D838636178E240D5556A87B32
:1102EB000371B82AED0D15FACA6C11685A5E1EAE313F
:1102EC000319908D0224D48BDB3D69565B2299DCBCBE
:1102ED00031C67CB3D40E29452542DA5B5793753DEAE
:1102EE0001FE7FE000FE7FF1701872261F3DE8306C33
:1102EF0001FE7FE800013012C06CB4EE9C6A6D56D7E7
:1102F000035B727F19514E5CB06CB4EE9C6A6D56D73C
:1102F10003404EAF4A4A16874F4210D41E4FF4CC6D7C
:1102F2000360C2D2734CC32F1F55FEE0D103C5E07C0C
:1102F3000319132E7B63822DC011CAC74A126CADE950
:1102F40001FE7FE800007BCE4063A4AAB677DA4A57B1
:1102F500031230F10225B57ED463A4AAB677DA4A573B
:1102F600036FCC06241DCDF79547CF16C4527FA04C6C
:1102F700036A9126B568104812564580C8508ED8971B
:1102F800034B9275D24F0CEEDB62FB868003A455301B
:1102F9000101300000013012F819132E7B63822DC0E0
:1102FA0001FE7FE000FE7FF158257D46265AA8580E59
:1102FB0001FE7FE000FE7FF15000A656473E5E582B74
:1102FC0001FE7FE000FE7FF148059F0446030DF306E6
:1102FD0001FE7FE000FE7FF1402C06DCF32E129658B5
:1102FE0001FE7FE000FE7FF13849DA307D7055A5F5BC
:1102FF0001FE7FE000FE7FF13026F324BA7F01579B89
:1103000001FE7FE000FE7FF12843F1842260EF0119B5
:110301000101300000013012C06CB4EE9C6A6D56D708
:1103020001FE7FE000FE7FF05074B0DC5119495CFFC1
:1103030001FE7FE000FE7FF0486B8B4567327B23C69E
:110304000101300000013012E055FEE0D103C5E07C6B
:110305000100A2800000A291A02993469977485850EF
:1103060001FE7FE000FE7FF0582AE8944A625558ECD8
:1103070001FE7FE000FE7FF0582AE8944A625558ECD7
:110308000100000800012FF28061C30361632099E0B5
:11030900032463975609D30DFD61C30361632099E002
:11030A000316E908C82E0D767170A42016161BC2436E
:11030B000352E2024D0CE344B538B59EFF307995CAE1
:11030C00034DC5D9070D55945E29B0E9A86F49CD8A1E
:11030D0001FE7FE000FE7FEFD04E6AFB6625E45D3294
:11030E0001FE7FE000FE7FF088515F007C5BD062C210
:11030F000100AAE00000AAE3005992A02E29EF532D74
:1103100001012FE000012FF2882463975609D30DFDC7
:1103110001FE7FE000FE7FF0582AE8944A625558ECCD
:1103120001012FE000012FF29070A42016161BC24397
:110313000100000800012E58C0672417E15FF6CA09DE
:1103140003330B13332EF32EA6672417E15FF6CA09B1
:11031500034CC1263B08BBEB1D32766A5522D71957CB
:110316000370CC332F5661786E7365F1EE37524CF01C
:1103170003256E67491CB9A5813AF6A2203C5EA9025D
:1103180001FE7FE000FE7FF060238E1F2946E87CCD39
:1103190001FE7FE000FE7FF05074B0DC5119495CFFAA
:11031A000101300000013012F819132E7B63822DC0BE
:11031B0001FE7FE000FE7FF0683D1B58BA507ED7ABE4
:11031C0001FE7FE000FE7FF060238E1F2946E87CCD35
:11031D0001FE7FE000FE7FF088515F007C5BD062C201
:11031E0001FE7FE000FE7FEFD04E6AFB6625E45D3283
:11031F0001FE7FE000FE7FF05074B0DC5119495CFFA4
:1103200001012FE000012FF29070A42016161BC24389
:1103210001012FE000012FF2882463975609D30DFDB6
:1103220001FE7FE000FE7FEFC83F2DBA317C83E458A6
:1103230001FE7FE000FE7FEFC0519B500D431BD7B70A
:1103240001FE7FE000FE7FEFB822221A704516DDE957
:1103250001FE7FE000FE7FEFB051EAD36B2D51779649
:1103260001FE7FE000FE7FEFA82463B9EA5E884ADC1E
:1103270001FE7FE000FE7FEFA07724C67E5C482A9717
:1103280001FE7FE000FE7FEF983804823E77465F0149
:1103290001FE7FE000FE7FEF90440BADFC05072367DB
:11032A0001FE7FE000FE7FEF88419AC2415577F8E1ED
:11032B0001012E4000012E58C0672417E15FF6CA095F
:11032C0001012E4000012E58C8330B13332EF32EA688
:11032D00010073280000A295E0580BD78F153EA43814
:11032E00036A2342EC2A487CB03855585C70A64E2A93
:11032F00032CD89A3257E4CCAF1D4ED43B725A06FBED
:11033000037A6D8D3C4B588F54580BD78F153EA4388B
:110331000338437FDB7644A45C542289EC6DE91B18B5
:110332000100A2800000A291E065968C1C46263DEC4C
:11033300010000080000D545101F7F42E249D1FEA00C
:11033400035FEDC0E33D75BC47268CB37F102362F8A0
:11033500033E30D96918A35FE31F7F42E249D1FEA08D
:11033600032586A49817A03BB96DEF52111112DBB6AE
:110337000324F5D0186780C122005CA941734C7D9FC6
:1103380001FE7FE000FE7FEF90440BADFC05072367CC
:110339000100A2800000A295E0580BD78F153EA43881
:11033A000100A2800000A295E87A6D8D3C4B588F543A
:11033B0001012E4000012E58C8330B13332EF32EA679
:11033C000100D5400000D545101F7F42E249D1FEA0F6
:11033D000100A2800000A295E0580BD78F153EA4387D
:11033E000100A2800000A295E87A6D8D3C4B588F5436
:11033F000100D5400000D545101F7F42E249D1FEA0F3
:110340000100A2800000A291906B47F63E5CB44A0581
:11034100010000080001786468534347A85800E34B52
:11034200037AD7FCA2633516041673EFC805B9B1FD5A
:11034300031A8762F47F41D0490E759D1A6E3DEE9073
:1103440003534347A85800E34B449F66FE557E051566
:11034500037237AA965B1FBC2D3BA0794B6A0DCE482C
:110346000100D5680000A2A89833DFCCE818C45E1571
:1103470003563A1A5C2973F88F6B431F2513CD8DCB4F
:110348000333DFCCE818C45E152C70EDAE44296C6D0F
:11034900035BC9A8273AE37D863A86D44551F7924694
:11034A000322643EA91887578D45440FE500BF783FBC
:11034B000100AA880000E3861858C05B8A38D82E7141
:11034C00031C0D44752CB6A6A41E41098A5398582C2E
:11034D000358C05B8A38D82E7141D646BC3694A76AFC
:11034E00030C12AC7F6798F0392BF876EE0675ADBAC1
:11034F000342B8AC67246348EA70837C027E4A57152F
:1103500001FE7FE80000ECD160170EB52B2DFBCB8C95
:1103510003576FC41B64A1C4643830D6B66D48CF87C7
:1103520003369956AB0D3BE41C31723BF511F69861AC
:11035300034CDA15E77BDD6690170EB52B2DFBCB8CA2
:11035400031464BE1E66BBB7E50DFB5C5B6F3E549034
:110355000100A2080001593DA82816830232A5C7A8A4
:11035600035F5C6E4D7C2A56CD3A5410114423C77700
:110357000302A0048706CB1B607AB86EE10B54E53B19
:11035800032816830232A5C7A872EDD5747323808A40
:11035900031786C9741C2427A10515727635A681DB75
:11035A0001FE7FE000FE7FEF90440BADFC05072367AA
:11035B0001FE7FE000FE7FEF90440BADFC05072367A9
:11035C0001FE7FE000FE7FEF983804823E77465F0115
:11035D0001FE7FE000FE7FEFA07724C67E5C482A97E1
:11035E0001FE7FE000FE7FEFA82463B9EA5E884ADCE6
:11035F0001FE7FE000FE7FEFB051EAD36B2D5177960F
:1103600001FE7FE000FE7FEFB822221A704516DDE91B
:1103610001FE7FE000FE7FEFC0519B500D431BD7B7CC
:1103620001FE7FE000FE7FEFC83F2DBA317C83E45866
:110363000100D5C800FE7FF00863A24D684FB7A02AEC
:110364000363A24D684FB7A02A096CF7283B12118386
:11036500034D08A9E46AF2BB3A3459648F3ADF331D68
:110366000366D021CA56167394481B173919E2BFCCB6
:11036700033CD22B793137975E0921145C7B34DFE863
:1103680001012E4000012E58C0672417E15FF6CA0922
:1103690001012E4000012E58C0672417E15FF6CA0921
:11036A0001012E4000012E58C8330B13332EF32EA64A
:11036B0001012E4000012E58C8330B13332EF32EA649
:11036C0001FE7FE000FE7FF05074B0DC5119495CFF57
:11036D000101300000013012E860C2D2734CC32F1F5E
:11036E0001000008000078FD002DDAA79177263B8A5F
:11036F0003755B5ED60D3715DE2DDAA79177263B8A9E
:1103700003188BFB1975F096DF735092577013CDB735
:1103710003691417697BF45B8E76DEE9180B79D08DED
:11037200031818832F24C29FD141205269009AE0DDCC
:1103730001FE7FE000FE7FEFD04E6AFB6625E45D322E
:1103740001012FE000012FF29070A42016161BC24335
:110375000100000800012FDEE05052810821857A57DE
:11037600035C64AD752CDD5B395FD4B15404ABE59791
:110377000346C01B05566EC29B6F9EA0D1247FC4AE98
:11037800037A9638434FE12F615052810821857A5784
:11037900030118C6C07F7E4A1551A3A284376863BC9D
:11037A0001012FC000012FDEE05052810821857A57F1
:11037B0001FE7FE000FE7FF060238E1F2946E87CCDD6
:11037C0001FE7FE000FE7FEFC83F2DBA317C83E4584C
:11037D0001FE7FE000FE7FEFC0519B500D431BD7B7B0
:11037E00010000080000A2BAC02E8E9F477674259602
:11037F00030CB55FF321DF319E2E8E9F477674259641
:110380000317CFC87D5D66DC656687F34D25415B0C40
:1103810003595B37F371DB7E0230BB2B9900E3DFE667
:1103820003169E1DD351D141CC017EC0C47173BB22D0
:1103830001FE7FE000FE7FEFB822221A704516DDE9F8
:1103840001FE7FE000FE7FEFB051EAD36B2D517796EA
:1103850001FE7FE000FE7FEFA82463B9EA5E884ADCBF
:1103860001FE7FE000FE7FEFA07724C67E5C482A97B8
:110387000100A2A00000A2BAC02E8E9F4776742596BF
:1103880001FE7FE000FE7FEFA07724C67E5C482A97B6
:1103890001FE7FE000FE7FEFA82463B9EA5E884ADCBB
:11038A0001FE7FE000FE7FEFB051EAD36B2D517796E4
:11038B0001FE7FE000FE7FEFB822221A704516DDE9F0
:11038C0001FE7FE000FE7FEFC0519B500D431BD7B7A1
:11038D000100A2A00000A2BAC02E8E9F4776742596B9
:11038E0001FE7FE000FE7FEFC83F2DBA317C83E4583A
:11038F0001FE7FE000FE7FF060238E1F2946E87CCDC2
:1103900001FE7FE000FE7FF088515F007C5BD062C28E
:1103910001FE7FE000FE7FF12014E17E333222E7CDC1
:1103920001FE7FE000FE7FF0702EB141F241B71EFBFC
:1103930001FE7FE000FE7FF07879E2A9E37545E1464E
:1103940001FE7FE000FE7FF080122008544DB127F862
:1103950001FE7FE000FE7FF080122008544DB127F861
:1103960001FE7FE000FE7FF040643C98696633487356
:1103970001FE7FE000FE7FEFD04E6AFB6625E45D320A
:1103980001012FE000012FF2882463975609D30DFD3F
:1103990001FE7FE000FE7FF0981190CDE766EF438D76
:11039A0001012FE000012FF29070A42016161BC2430F
:11039B0001FE7FE000FE7FF0900216231B1F16E9E89A
:11039C0001012E4000012E58C0672417E15FF6CA09EE
:11039D0001FE7FE000FE7FF0A8109CF92E0DED72633A
:11039E0001FE7FE000FE7FF0683D1B58BA507ED7AB61
:11039F0001FE7FE000FE7FF0A8109CF92E0DED726338
:1103A00001FE7FE000FE7FEFF86763845E75A2A8D44B
:1103A10001FE7FE000FE7FF0981190CDE766EF438D6E
:1103A20001FE7FE000FE7FF05074B0DC5119495CFF21
:1103A30001FE7FE000FE7FF0900216231B1F16E9E892
:1103A40001012FC000012FDEE05052810821857A57C7
:1103A50001FE7FE000FE7FF0683D1B58BA507ED7AB5A
:1103A60001FE7FE000FE7FF0B07FDCC2331BEFD79FFB
:1103A70001FE7FE000FE7FEFC83F2DBA317C83E45821
:1103A80001FE7FE000FE7FEFC0519B500D431BD7B785
:1103A90001FE7FE000FE7FEFB822221A704516DDE9D2
:1103AA0001FE7FE000FE7FEFB051EAD36B2D517796C4
:1103AB0001FE7FE000FE7FEFA82463B9EA5E884ADC99
:1103AC0001FE7FE000FE7FEFA07724C67E5C482A9792
:1103AD0001FE7FE000FE7FEF983804823E77465F01C4
:1103AE0001FE7FE000FE7FEEB8126E008B34DFBC00E3
:1103AF0001FE7FE000FE7FEEB0519EB94C39DF25791A
:1103B00001012E4000012E58C0672417E15FF6CA09DA
:1103B10001012E4000012E58C0672417E15FF6CA09D9
:1103B20001012FE800FE7FEEC812F9357A7672CF2855
:1103B3000312F9357A7672CF28567D27636F5DE2EFA3
:1103B4000313DDA79D6A10456623502A61461BC83481
:1103B5000339F174C76E2E2D531C8A8ACF0E73DFE074
:1103B600036DAC7768746AE2E445DC439D3B0A3B878F
:1103B70001FE7FE000FE7FEEC0567D27636F5DE2EFB2
:1103B80001FE7FE000FE7FEEC812F9357A7672CF280A
:1103B900010000080000728640317E611D7A61D75BB8
:1103BA0003164A14821806546B317E611D7A61D75B22
:1103BB0003756D30D0505E5E011FA332672E19DD00C0
:1103BC00034239DC03307C7DAA2EFDBCE64EC868C4F1
:1103BD0003024DBF7653355960403C23E658D7F9D7E3
:1103BE0001FE7FE000FE7FEEB8126E008B34DFBC00D3
:1103BF0001FE7FE000FE7FEF983804823E77465F01B2
:1103C00001FE7FE000FE7FEFA07724C67E5C482A977E
:1103C10001FE7FE000FE7FEFA82463B9EA5E884ADC83
:1103C20001FE7FE000FE7FEFB051EAD36B2D517796AC
:1103C30001FE7FE000FE7FEFB822221A704516DDE9B8
:1103C40001FE7FE000FE7FEFC0519B500D431BD7B769
:1103C50001FE7FE000FE7FEFC83F2DBA317C83E45803
:1103C60001FE7FE000FE7FF0900216231B1F16E9E86F
:1103C70001FE7FE000FE7FF0A0140E0F763352255A0F
:1103C8000100A2800000A296180D34B6A810233C990A
:1103C9000100A2800000A296180D34B6A810233C9909
:1103CA0001FE7FE000FE7FEFD8257130A362BBD95AC7
:1103CB0001012E4000012E58C0672417E15FF6CA09BF
:1103CC0001012E4000012E58C8330B13332EF32EA6E8
:1103CD000100A2800000A295E0580BD78F153EA438ED
:1103CE000100A2800000A295E87A6D8D3C4B588F54A6
:1103CF000100D5400000D545101F7F42E249D1FEA063
:1103D00001FE7FE000FE7FEFE8333AB105721DA317FE
:1103D1000100A2800000A296180D34B6A810233C9901
:1103D20001FE7FE000FE7FEFF86763845E75A2A8D419
:1103D3000100A2800000A296180D34B6A810233C99FF
:1103D40001FE7FE000FE7FEFF86763845E75A2A8D417
:1103D50001FE7FE000FE7FF0900216231B1F16E9E860
:1103D60001012E4000012E58C0672417E15FF6CA09B4
:1103D70001FE7FE000FE7FEFF86763845E75A2A8D414
:1103D80001FE7FE000FE7FEFE8333AB105721DA317F6
:1103D9000100A2800000A296702D9DF57D7FBD7A3E18
:1103DA0001FE7FE000FE7FF0A8109CF92E0DED7263FD
:1103DB00010000080000EC9C784F4AC8FF58CAE6D9C7
:1103DC00031EE6AF0D5670E3ED42933C4F729AF360F8
:1103DD000364E4C3CD169CAD8D5CAB38C63B7139DD81
:1103DE000351A6E915174BDE99299F67302AC1076A82
:1103DF00034F4AC8FF58CAE6D91F2BEA4E03254A32A3
:1103E000010000080000EC9C3011ADB5F43575FED16B
:1103E10003638FDBD11098CF6E1B2B9E9D3150E85C3F
:1103E200035F61383243E9226001AF465D128D98B7EE
:1103E300031CC11C374557D5D8430A16621F9D5C1898
:1103E4000372D2B5796C0BE53611ADB5F43575FED121
:1103E50001FE7FE000FE7FF0900216231B1F16E9E850
:1103E60001FE7FE000FE7FF0900216231B1F16E9E84F
:1103E70001FE7FE000FE7FF0900216231B1F16E9E84E
:1103E80001012E4000012E58C0672417E15FF6CA09A2
:1103E90001FE7FE000FE7FEFC83F2DBA317C83E458DF
:1103EA0001FE7FE000FE7FEF983804823E77465F0187
:1103EB0001FE7FE000FE7FEFA07724C67E5C482A9753
:1103EC0001FE7FE000FE7FEFB051EAD36B2D51779682
:1103ED0001FE7FE000FE7FEFB822221A704516DDE98E
:1103EE0001FE7FE000FE7FEFC0519B500D431BD7B73F
:1103EF0001FE7FE000FE7FEFA82463B9EA5E884ADC55
:1103F00001012E4000012E58C0672417E15FF6CA099A
:1103F1000100000800012E5BE01E22BCB23565F1C887
:1103F200030BD6D5B53B52115C5EA6D8963D096BBFB0
:1103F3000351EEBEEA221A0CCD787AA59C70BB998380
:1103F400031B7CA0ED2395A7FF1E22BCB23565F1C872
:1103F5000326BAF2314B13A15A3965EB663AA88B3C00
:1103F60001012E4000012E58C0672417E15FF6CA0994
:1103F70001012E4000012E5BE01E22BCB23565F1C81A
:1103F80001012FC80000727EF0701E8A0D41E690CF70
:1103F90003527F603D7E13D0137C6489B653AE65DEAB
:1103FA000341FCF274294614F7663BFE9531E0986F86
:1103FB00036E9DEAD04450AA00517DF4875EBE0EABCD
:1103FC00034AC9F3E20CC0A782701E8A0D41E690CF65
:1103FD0001012E4000012E5BE81B7CA0ED2395A7FF8B
:1103FE0001012E4000012E58C8330B13332EF32EA6B6
:1103FF000100A2800000A295E0580BD78F153EA438BB
:110400000100A2800000A295E87A6D8D3C4B588F5473
:110401000100A2800000A295E0580BD78F153EA438B8
:110402000100D5400000D545101F7F42E249D1FEA02F
:11040300010130080000A292C079B69BC92970CC784A
:110404000349CA1341058D717E79B69BC92970CC788C
:110405000376490B0136B19CBF64C2DDD54244B8DEE2
:11040600035A4744BE1DC4B111645EC5AB11C5ABEFFA
:110407000368D8526B3C8CC1384C6E372B010236EFDF
:11040800010000080000D59F2042E8C7BE653CDC22F8
:11040900036350AC35767725AB103B2716156827FB67
:11040A00031FBD3AA318C6B4F24748C06A254D9EA92F
:11040B0003040BAD550E5B257342E8C7BE653CDC227D
:11040C00031B1BCCF556CDFABB5D175EF24ED5A1374E
:11040D000100A2800000A295E0580BD78F153EA438AC
:11040E000100A2800000A295E87A6D8D3C4B588F5465
:11040F000100D5800000D59F2042E8C7BE653CDC22A4
:1104100001FE7FE000FE7FEF983804823E77465F0160
:1104110001FE7FE000FE7FEFA07724C67E5C482A972C
:1104120001FE7FE000FE7FEFA82463B9EA5E884ADC31
:1104130001FE7FE000FE7FEFB051EAD36B2D5177965A
:1104140001FE7FE000FE7FEFB822221A704516DDE966
:1104150001FE7FE000FE7FEFC0519B500D431BD7B717
:1104160001FE7FE000FE7FEFC83F2DBA317C83E458B1
:1104170001FE7FE000FE7FF0B07FDCC2331BEFD79F89
:1104180001FE7FE000FE7FEFE0436C6125628C895D20
:1104190001FE7FE000FE7FF0702EB141F241B71EFB74
:11041A000100EC800000EC9C60299F67302AC1076AC1
:11041B00010000080000E7A4C878466DAF64E5E0363B
:11041C000378466DAF64E5E0365C5B6C3A5D094B8401
:11041D000313BAE8430B895EBF272A991452A4773B7C
:11041E0003294E0FD030D85A55646A232A6E022D0104
:11041F00036D651B8D31ED2BAF6F0463F11226623CBA
:11042000010000080000E7A4A077633E5E7DA042A31F
:11042100037417684F0E9E1415475553AB5AB3EA938C
:11042200032764C907040D36920001893D13D4A2F250
:1104230003222FC865047C27FA77633E5E7DA042A32E
:11042400035B4A22B54B29457852E2D7C93D4B955ACC
:110425000100EC800000EC9C784F4AC8FF58CAE6D918
:110426000100EC800000EC9C505CAB38C63B7139DDB9
:110427000100D5C00000D5CBC83DC240FB1BA026FAB1
:110428000100D5C00000D5CBA0100F8FCA6590700B05
:1104290001FE7FE000FE7FF0B841A7C4C96B68079A56
:11042A0001FE7FE000FE7FF0A0140E0F763352255AAB
:11042B0001012E4000012E58C0672417E15FF6CA095E
:11042C0001FE7FE000FE7FF0B07FDCC2331BEFD79F74
:11042D0001FE7FE000FE7FF1082DF6D64846B7D44791
:11042E0001FE7FE000FE7FF1082DF6D64846B7D44790
:11042F0001FE7FE000FE7FF1082DF6D64846B7D4478F
:1104300001FE7FE000FE7FF1082DF6D64846B7D4478E
:1104310001FE7FE000FE7FF0B841A7C4C96B68079A4E
:1104320001FE7FE000FE7FF0184D08A9E46AF2BB3AA3
:1104330001FE7FE000FE7FF000096CF7283B12118378
:1104340001FE7FE000FE7FF1082DF6D64846B7D4478A
:1104350001FE7FE000FE7FF0C02BB7929B58A2A487F7
:11043600010000080000ADB5582231759037A58EEF41
:11043700030A4A062B3BED7940283290FD495C0EA50C
:11043800032231759037A58EEF54E56D646EB4295555
:11043900031F8C83AB18F40A3329EFA6427E337D352A
:11043A00034AE135E207BD1DCF1059DF710CF19F382F
:11043B0001FE7FE000FE7FF0900216231B1F16E9E8F9
:11043C0001012E4000012E58C0672417E15FF6CA094D
:11043D0001FE7FE000FE7FF0A0140E0F763352255A98
:11043E0001FE7FE000FE7FF0900216231B1F16E9E8F6
:11043F0001FE7FE000FE7FF0A0140E0F763352255A96
:1104400001FE7FE000FE7FF0A0140E0F763352255A95
:110441000100EC800000EC9C60299F67302AC1076A9A
:110442000100E7A00000E7A480475553AB5AB3EA93F2
:1104430001012E4000012E58C0672417E15FF6CA0946
:1104440001FE7FE000FE7FF0900216231B1F16E9E8F0
:1104450001FE7FE000FE7FF0900216231B1F16E9E8EF
:1104460001012E4000012E58C0672417E15FF6CA0943
:110447000100E7A00000E7A480475553AB5AB3EA93ED
:1104480001FE7FE000FE7FF0900216231B1F16E9E8EC
:1104490001FE7FE000FE7FEFC83F2DBA317C83E4587E
:11044A0001FE7FE000FE7FEF983804823E77465F0126
:11044B0001FE7FE000FE7FEFA07724C67E5C482A97F2
:11044C0001FE7FE000FE7FEFA82463B9EA5E884ADCF7
:11044D0001FE7FE000FE7FEFB051EAD36B2D51779620
:11044E0001FE7FE000FE7FEFB822221A704516DDE92C
:11044F0001FE7FE000FE7FEFC0519B500D431BD7B7DD
:1104500001FE7FE000FE7FEF983804823E77465F0120
:1104510001FE7FE000FE7FEFA07724C67E5C482A97EC
:1104520001FE7FE000FE7FEFA82463B9EA5E884ADCF1
:1104530001FE7FE000FE7FEFB051EAD36B2D5177961A
:1104540001FE7FE000FE7FEFB822221A704516DDE926
:1104550001FE7FE000FE7FEFC0519B500D431BD7B7D7
:1104560001FE7FE000FE7FEFC83F2DBA317C83E45871
:1104570001FE7FE000FE7FF0900216231B1F16E9E8DD
:1104580001FE7FE000FE7FF0981190CDE766EF438DB6
:110459000100726800012FDEE05052810821857A5727
:11045A00035C64AD752CDD5B395FD4B15404ABE597AC
:11045B000346C01B05566EC29B6F9EA0D1247FC4AEB3
:11045C00037A9638434FE12F615052810821857A579F
:11045D00030118C6C07F7E4A1551A3A284376863BCB8
:11045E000100E7A00000E7A480475553AB5AB3EA93D6
:11045F0001FE7FE000FE7FEFC83F2DBA317C83E45868
:1104600001FE7FE000FE7FEF983804823E77465F0110
:1104610001FE7FE000FE7FEFA07724C67E5C482A97DC
:1104620001FE7FE000FE7FEFA82463B9EA5E884ADCE1
:1104630001FE7FE000FE7FEFB051EAD36B2D5177960A
:1104640001FE7FE000FE7FEFB822221A704516DDE916
:1104650001FE7FE000FE7FEFC0519B500D431BD7B7C7
:1104660001012E4000012E58C0672417E15FF6CA0923
:1104670001012FC000012FDEE05052810821857A5703
:1104680001012E4000012E58C0672417E15FF6CA0921
:1104690001012FC000012FDEE05052810821857A5701
:11046A000100000800007BB7B80A91E1DC1236898DD8
:11046B000320D49DA36272919F627108627EA94A2B6C
:11046C0003667FC83134ADB582127DED1D483966AA5C
:11046D000371F94ADC27FFB15A4CB58EA439629FFA53
:11046E00030A91E1DC1236898D048BE573142AC06C73
:11046F0001012E4000012E58C8330B13332EF32EA644
:1104700001012FC000012FDEE87A9638434FE12F6149
:1104710001FE7FE000FE7FEF983804823E77465F01FF
:1104720001FE7FE000FE7FEFA07724C67E5C482A97CB
:1104730001FE7FE000FE7FEFA82463B9EA5E884ADCD0
:1104740001FE7FE000FE7FEFB051EAD36B2D517796F9
:1104750001FE7FE000FE7FEFB822221A704516DDE905
:1104760001FE7FE000FE7FEFC0519B500D431BD7B7B6
:1104770001FE7FE000FE7FEFC83F2DBA317C83E45850
:1104780001FE7FE000FE7FF0981190CDE766EF438D96
:110479000100E7A00000E7A4A077633E5E7DA042A347
:11047A0001FE7FE000FE7FF0C02BB7929B58A2A487B2
:11047B0001FE7FE000FE7FF0C02BB7929B58A2A487B1
:11047C000100EC800000EC9C3011ADB5F43575FED16A
:11047D0001012E4000012E5BE01E22BCB23565F1C893
:11047E0001FE7FE000FE7FF0900216231B1F16E9E8B6
:11047F0001FE7FE000FE7FF0A0140E0F763352255A56
:1104800001FE7FE000FE7FF0B07FDCC2331BEFD79F20
:1104810001FE7FE000FE7FF0C02BB7929B58A2A487AB
:1104820001FE7FE000FE7FF0981190CDE766EF438D8C
:1104830001012FC000012FDEE05052810821857A57E7
:110484000100EC800000EC9C3011ADB5F43575FED162
:1104850001FE7FE000FE7FEFC83F2DBA317C83E45842
:1104860001FE7FE000FE7FEF983804823E77465F01EA
:1104870001FE7FE000FE7FEFA07724C67E5C482A97B6
:1104880001FE7FE000FE7FEFA82463B9EA5E884ADCBB
:1104890001FE7FE000FE7FEFB051EAD36B2D517796E4
:11048A0001FE7FE000FE7FEFB822221A704516DDE9F0
:11048B0001FE7FE000FE7FEFC0519B500D431BD7B7A1
:11048C0001012E4000012E5BE01E22BCB23565F1C884
:11048D0001012FC000012FDEE05052810821857A57DD
:11048E0001012E4000012E5BE01E22BCB23565F1C882
:11048F0001012FC000012FDEE05052810821857A57DB
:1104900001007BA000007BB7B80A91E1DC1236898D9F
:1104910001012E4000012E5BE81B7CA0ED2395A7FFF6
:1104920001012FC000012FDEE87A9638434FE12F6127
:1104930001FE7FE000FE7FEF983804823E77465F01DD
:1104940001FE7FE000FE7FEFA07724C67E5C482A97A9
:1104950001FE7FE000FE7FEFA82463B9EA5E884ADCAE
:1104960001FE7FE000FE7FEFB051EAD36B2D517796D7
:1104970001FE7FE000FE7FEFB822221A704516DDE9E3
:1104980001FE7FE000FE7FEFC0519B500D431BD7B794
:1104990001FE7FE000FE7FEFC83F2DBA317C83E4582E
:11049A0001FE7FE000FE7FF0981190CDE766EF438D74
:11049B000100EC800000EC9C505CAB38C63B7139DD44
:11049C0001FE7FE000FE7FF0C02BB7929B58A2A48790
:11049D0001FE7FE000FE7FF0C02BB7929B58A2A4878F
:11049E000100D5C00000D5CB805FF87E052F305DEF12
:11049F0001012E4000012E5860168E121F1EBA5D23C8
:1104A00001FE7FE000FE7FEFC83F2DBA317C83E45827
:1104A10001FE7FE000FE7FEF983804823E77465F01CF
:1104A20001FE7FE000FE7FEFA07724C67E5C482A979B
:1104A30001FE7FE000FE7FEFB051EAD36B2D517796CA
:1104A40001FE7FE000FE7FEFB822221A704516DDE9D6
:1104A50001FE7FE000FE7FEFC0519B500D431BD7B787
:1104A60001FE7FE000FE7FEFA82463B9EA5E884ADC9D
:1104A70001012E4000012E5860168E121F1EBA5D23C0
:1104A80001012E4000012E5860168E121F1EBA5D23BF
:1104A90001012E4000012E5860168E121F1EBA5D23BE
:1104AA0001012E4000012E5860168E121F1EBA5D23BD
:1104AB000100D5880000727F185FA540492CBE76707C
:1104AC000368ABEFB0326C3C765D86CF1169EF467465
:1104AD00035FA540492CBE767058A36FCA129B95F276
:1104AE00032B8FA02540F9991C309FB9AB782FF3758B
:1104AF000348B6B6EB0FB37489052192AD7670D608B2
:1104B00001007BC000007BCB5004E5DCB541E96BDB7F
:1104B10001007BA000007BBCC0102809E23B2125A3E0
:1104B20001FE7FE000FE7FEF88419AC2415577F8E164
:1104B30001FE7FE000FE7FEF90440BADFC0507236750
:1104B40001FE7FE000FE7FEF90440BADFC050723674F
:1104B50001007BA000007BB3E87525F2BC0CE8E1A740
:1104B60001FE7FE000FE7FEF88419AC2415577F8E160
:1104B70001FE7FE000FE7FEF88419AC2415577F8E15F
:1104B80001FE7FE000FE7FEF90440BADFC050723674B
:1104B90001FE7FE000FE7FEF90440BADFC050723674A
:1104BA0001FE7FE000FE7FEF88419AC2415577F8E15C
:1104BB0001FE7FE000FE7FEF90440BADFC0507236748
:1104BC0001007BA000007BB3E87525F2BC0CE8E1A739
:1104BD0001FE7FE000FE7FEF88419AC2415577F8E159
:1104BE0001012E4000012E586842963E5A0A0382C50A
:1104BF0001012E4000012E586842963E5A0A0382C509
:1104C00001FE7FE000FE7FEF784695AE95777A4EAAE2
:1104C10001FE7FE000FE7FEF487835626C665ACA49CA
:1104C20001FE7FE000FE7FEF506835B2AE4C187C90A2
:1104C30001FE7FE000FE7FEF6077C9FD68298A92BA5A
:1104C40001FE7FE000FE7FEF686FE95EAC4B697C7AE9
:1104C50001FE7FE000FE7FEF7051A27AA6613183F2D2
:1104C60001FE7FE000FE7FEF58541F28CD7F65FD16A4
:1104C70001011E8000011E80C05675FF363DD1509433
:1104C80001011E8000011E80C05675FF363DD1509432
:1104C90001011E8000011E80C05675FF363DD1509431
:1104CA0001011E8000011E80C05675FF363DD1509430
:1104CB00010072600000727F282B8FA02540F9991CC7
:1104CC0001011E8000011E80C83DB012B32708C9AFBF
:1104CD0001011E8000011E80C83DB012B32708C9AFBE
:1104CE0001FE7FE000FE7FEF487835626C665ACA49BD
:1104CF0001FE7FE000FE7FEF506835B2AE4C187C9095
:1104D00001FE7FE000FE7FEF58541F28CD7F65FD169A
:1104D10001FE7FE000FE7FEF6077C9FD68298A92BA4C
:1104D20001FE7FE000FE7FEF686FE95EAC4B697C7ADB
:1104D30001FE7FE000FE7FEF7051A27AA6613183F2C4
:1104D40001FE7FE000FE7FEF784695AE95777A4EAACE
:1104D50001FE7FE000FE7FEF88419AC2415577F8E141
:1104D60001FE7FE000FE7FEF88419AC2415577F8E140
:1104D70001FE7FE000FE7FEF90440BADFC050723672C
:1104D80001FE7FE000FE7FEF90440BADFC050723672B
:1104D90001FE7FE000FE7FEF88419AC2415577F8E13D
:1104DA0001FE7FE000FE7FEF983804823E77465F0196
:1104DB0001FE7FE000FE7FEFA07724C67E5C482A9762
:1104DC0001FE7FE000FE7FEFA82463B9EA5E884ADC67
:1104DD0001FE7FE000FE7FEFB051EAD36B2D51779690
:1104DE0001FE7FE000FE7FEFB822221A704516DDE99C
:1104DF0001FE7FE000FE7FEFC0519B500D431BD7B74D
:1104E00001FE7FE000FE7FEFC83F2DBA317C83E458E7
:1104E10001FE7FE000FE7FF0900216231B1F16E9E853
:1104E20001FE7FE000FE7FF0A0140E0F763352255AF3
:1104E30001FE7FE000FE7FF0B07FDCC2331BEFD79FBD
:1104E40001FE7FE000FE7FF0C02BB7929B58A2A48748
:1104E50001FE7FE000FE7FF0981190CDE766EF438D29
:1104E60001012FC000012FDEE05052810821857A5784
:1104E7000100D5C00000D5CBA0100F8FCA6590700B46
:1104E80001FE7FE000FE7FF0900216231B1F16E9E84C
:1104E9000100000000000000004B232EE3159C74CF8E
:1104EA0001FE7FE000FE7FF0C83A6F0E78379A5B56BD
:1104EB000100000000000000004B232EE3159C74CF8C
:1104EC0001FE7FE000FE7FF0E00A66E486306235EAC9
:1104ED0001FE7FE000FE7FF0B07FDCC2331BEFD79FB3
:1104EE000100000000000000004B232EE3159C74CF89
:1104EF0001FE7FE000FE7FF0D053B735D529784870F4
:1104F0000100000000000000004B232EE3159C74CF87
:1104F10001FE7FE000FE7FF0E00A66E486306235EAC4
:1104F20001FE7FE000FE7FF0A0140E0F763352255AE3
:1104F3000100000000000000004B232EE3159C74CF84
:1104F40001FE7FE000FE7FF0D053B735D529784870EF
:1104F5000100000000000000004B232EE3159C74CF82
:1104F60001FE7FE000FE7FF0E81187C70F5476DE9894
:1104F70001FE7FE000FE7FF0C02BB7929B58A2A48735
:1104F8000100000000000000004B232EE3159C74CF7F
:1104F90001FE7FE000FE7FF0D84CDCED4C10A30D9C92
:1104FA000100000000000000004B232EE3159C74CF7D
:1104FB0001FE7FE000FE7FF0981190CDE766EF438D13
:1104FC000100AAE00000AAE3005992A02E29EF532D86
:1104FD000100000000000000004B232EE3159C74CF7A
:1104FE0001FE7FE000FE7FF0D84CDCED4C10A30D9C8D
:1104FF000100000000000000004B232EE3159C74CF78
:1105000001FE7FE000FE7FF0E81187C70F5476DE9889
:110501000100E7A00000E7A480475553AB5AB3EA9332
:1105020001012E4000012E58C0672417E15FF6CA0986
:110503000100E7A00000E7A4C05C5B6C3A5D094B8482
:110504000100E7A00000E7A4C05C5B6C3A5D094B8481
:1105050001FE7FE000FE7FF0D84CDCED4C10A30D9C85
:1105060001FE7FE000FE7FF0A0140E0F763352255ACE
:1105070001FE7FE000FE7FF0900216231B1F16E9E82C
:1105080001FE7FE000FE7FF0B07FDCC2331BEFD79F97
:1105090001FE7FE000FE7FF0C02BB7929B58A2A48722
:11050A000100E7A00000E7A480475553AB5AB3EA9329
:11050B0001FE7FE000FE7FEFC83F2DBA317C83E458BB
:11050C0001FE7FE000FE7FEFC0519B500D431BD7B71F
:11050D0001FE7FE000FE7FEF983804823E77465F0162
:11050E0001FE7FE000FE7FEFA07724C67E5C482A972E
:11050F0001FE7FE000FE7FEFA82463B9EA5E884ADC33
:1105100001FE7FE000FE7FEFB051EAD36B2D5177965C
:1105110001FE7FE000FE7FEFB822221A704516DDE968
:1105120001012E4000012E58C0672417E15FF6CA0976
:1105130001FE7FE000FE7FEF983804823E77465F015C
:1105140001FE7FE000FE7FEFA07724C67E5C482A9728
:1105150001FE7FE000FE7FEFA82463B9EA5E884ADC2D
:1105160001FE7FE000FE7FEFB051EAD36B2D51779656
:1105170001FE7FE000FE7FEFB822221A704516DDE962
:1105180001FE7FE000FE7FEFC0519B500D431BD7B713
:1105190001FE7FE000FE7FEFC83F2DBA317C83E458AD
:11051A000100E7A00000E7A4A077633E5E7DA042A3A5
:11051B000100000000000000004B232EE3159C74CF5B
:11051C0001FE7FE000FE7FF0D84CDCED4C10A30D9C6E
:11051D0001FE7FE000FE7FF060238E1F2946E87CCD32
:11051E0001FE7FE000FE7FF0981190CDE766EF438DEF
:11051F000100AAE00000AAE3005992A02E29EF532D62
:1105200001FE7FE000FE7FEFD04E6AFB6625E45D327F
:1105210001FE7FE000FE7FF05074B0DC5119495CFFA0
:1105220001FE7FE000FE7FEFC83F2DBA317C83E458A4
:1105230001FE7FE000FE7FEFA07724C67E5C482A9719
:1105240001FE7FE000FE7FEFB051EAD36B2D51779648
:1105250001FE7FE000FE7FEFB822221A704516DDE954
:1105260001FE7FE000FE7FEFC0519B500D431BD7B705
:1105270001FE7FE000FE7FEFA82463B9EA5E884ADC1B
:1105280001012FE000012FF29070A42016161BC2437F
:1105290001FE7FE000FE7FEFA07724C67E5C482A9713
:11052A0001FE7FE000FE7FEFA82463B9EA5E884ADC18
:11052B0001FE7FE000FE7FEFB051EAD36B2D51779641
:11052C0001FE7FE000FE7FEFB822221A704516DDE94D
:11052D0001FE7FE000FE7FEFC0519B500D431BD7B7FE
:11052E0001FE7FE000FE7FEFC83F2DBA317C83E45898
:11052F0001FE7FE000FE7FF0486B8B4567327B23C670
:1105300001FE7FE000FE7FEFD04E6AFB6625E45D326F
:1105310001FE7FE000FE7FF05074B0DC5119495CFF90
:1105320001012FE000012FF29070A42016161BC24375
:1105330001FE7FE000FE7FEFC83F2DBA317C83E45893
:1105340001FE7FE000FE7FEFC0519B500D431BD7B7F7
:1105350001FE7FE000FE7FEFB822221A704516DDE944
:1105360001FE7FE000FE7FEFB051EAD36B2D51779636
:1105370001FE7FE000FE7FEFA82463B9EA5E884ADC0B
:1105380001FE7FE000FE7FEFA07724C67E5C482A9704
:1105390001FE7FE000FE7FEF983804823E77465F0136
:11053A0001FE7FE000FE7FEF90440BADFC05072367C8
:11053B0001FE7FE000FE7FEF88419AC2415577F8E1DA
:11053C0001012E4000012E58C0672417E15FF6CA094C
:11053D0001012E4000012E58C8330B13332EF32EA675
:11053E000100A2800000A295E0580BD78F153EA4387A
:11053F000100A2800000A291E065968C1C46263DEC3D
:110540000100D5400000D545101F7F42E249D1FEA0F0
:1105410001FE7FE000FE7FEF90440BADFC05072367C1
:110542000100A2800000A295E0580BD78F153EA43876
:110543000100A2800000A295E87A6D8D3C4B588F542F
:1105440001012E4000012E58C8330B13332EF32EA66E
:110545000100D5400000D545101F7F42E249D1FEA0EB
:110546000100A2800000A295E0580BD78F153EA43872
:110547000100A2800000A295E87A6D8D3C4B588F542B
:110548000100D5400000D545101F7F42E249D1FEA0E8
:110549000100A2800000A291906B47F63E5CB44A0576
:11054A00010178600001786468534347A85800E34B76
:11054B000100A2A00000A2A89833DFCCE818C45E1565
:11054C000100E3800000E3861858C05B8A38D82E710D
:11054D000100ECC00000ECD160170EB52B2DFBCB8C4F
:11054E00010159200001593DA82816830232A5C7A8D9
:11054F0001FE7FE000FE7FEF90440BADFC05072367B3
:1105500001FE7FE000FE7FEF90440BADFC05072367B2
:1105510001FE7FE000FE7FEF983804823E77465F011E
:1105520001FE7FE000FE7FEFA07724C67E5C482A97EA
:1105530001FE7FE000FE7FEFA82463B9EA5E884ADCEF
:1105540001FE7FE000FE7FEFB051EAD36B2D51779618
:1105550001FE7FE000FE7FEFB822221A704516DDE924
:1105560001FE7FE000FE7FEFC0519B500D431BD7B7D5
:1105570001FE7FE000FE7FEFC83F2DBA317C83E4586F
:1105580001FE7FE000FE7FEFD04E6AFB6625E45D3247
:1105590001FE7FE000FE7FF05074B0DC5119495CFF68
:11055A0001FE7FE000FE7FEFC83F2DBA317C83E4586C
:11055B0001FE7FE000FE7FEFA07724C67E5C482A97E1
:11055C0001FE7FE000FE7FEFB051EAD36B2D51779610
:11055D0001FE7FE000FE7FEFB822221A704516DDE91C
:11055E0001FE7FE000FE7FEFC0519B500D431BD7B7CD
:11055F0001FE7FE000FE7FEFA82463B9EA5E884ADCE3
:1105600001012FE000012FF29070A42016161BC24347
:1105610001FE7FE000FE7FEFA07724C67E5C482A97DB
:1105620001FE7FE000FE7FEFA82463B9EA5E884ADCE0
:1105630001FE7FE000FE7FEFB051EAD36B2D51779609
:1105640001FE7FE000FE7FEFB822221A704516DDE915
:1105650001FE7FE000FE7FEFC0519B500D431BD7B7C6
:1105660001FE7FE000FE7FEFC83F2DBA317C83E45860
:1105670001FE7FE000FE7FEFC83F2DBA317C83E4585F
:1105680001FE7FE000FE7FEFC0519B500D431BD7B7C3
:110569000100A2A00000A2BAC02E8E9F4776742596DB
:11056A0001FE7FE000FE7FEFB822221A704516DDE90F
:11056B0001FE7FE000FE7FEFB051EAD36B2D51779601
:11056C0001FE7FE000FE7FEFA82463B9EA5E884ADCD6
:11056D0001FE7FE000FE7FEFA07724C67E5C482A97CF
:11056E000100A2A00000A2BAC02E8E9F4776742596D6
