:020000000000FE
:020001000000FD
:020002000000FC
:020003000000FB
:020004000000FA
:020005000000F9
:020006000000F8
:020007000000F7
:020008000000F6
:020009000000F5
:02000A000000F4
:02000B000049AA
:02000C000049A9
:02000D000049A8
:02000E000049A7
:02000F000049A6
:020010000049A5
:020011000049A4
:020012000049A3
:020013000049A2
:020014000049A1
:02001500009257
:02001600009256
:02001700009255
:02001800009254
:02001900009253
:02001A00009252
:02001B00009251
:02001C00009250
:02001D0000924F
:02001E0000924E
:02001F0000DB04
:0200200000DB03
:0200210000DB02
:0200220000DB01
:0200230000DB00
:0200240000DBFF
:0200250000DBFE
:0200260000DBFD
:0200270000DBFC
:020028000124B1
:020029000124B0
:02002A000124AF
:02002B000124AE
:02002C000124AD
:02002D000124AC
:02002E000124AB
:02002F000124AA
:020030000124A9
:020031000124A8
:02003200016D5E
:02003300016D5D
:02003400016D5C
:02003500016D5B
:02003600016D5A
:02003700016D59
:02003800016D58
:02003900016D57
:02003A00016D56
:02003B00016D55
:02003C0001B60B
:02003D0001B60A
:02003E0001B609
:02003F0001B608
:0200400001B607
:0200410001B606
:0200420001B605
:0200430001B604
:0200440001B603
:0200450001B602
:0200460001FFB8
:0200470001FFB7
:0200480001FFB6
:0200490001FFB5
:02004A0001FFB4
:02004B0001FFB3
:02004C0001FFB2
:02004D0001FFB1
:02004E0001FFB0
:02004F0001FFAF
:020050000000AE
:020051000000AD
:020052000000AC
:020053000000AB
:020054000000AA
:020055000000A9
:020056000000A8
:020057000000A7
:020058000000A6
:020059000000A5
:02005A000000A4
:02005B0000495A
:02005C00004959
:02005D00004958
:02005E00004957
:02005F00004956
:02006000004955
:02006100004954
:02006200004953
:02006300004952
:02006400004951
:02006500009207
:02006600009206
:02006700009205
:02006800009204
:02006900009203
:02006A00009202
:02006B00009201
:02006C00009200
:02006D000092FF
:02006E000092FE
:02006F0000DBB4
:0200700000DBB3
:0200710000DBB2
:0200720000DBB1
:0200730000DBB0
:0200740000DBAF
:0200750000DBAE
:0200760000DBAD
:0200770000DBAC
:02007800012461
:02007900012460
:02007A0001245F
:02007B0001245E
:02007C0001245D
:02007D0001245C
:02007E0001245B
:02007F0001245A
:02008000012459
:02008100012458
:02008200016D0E
:02008300016D0D
:02008400016D0C
:02008500016D0B
:02008600016D0A
:02008700016D09
:02008800016D08
:02008900016D07
:02008A00016D06
:02008B00016D05
:02008C0001B6BB
:02008D0001B6BA
:02008E0001B6B9
:02008F0001B6B8
:0200900001B6B7
:0200910001B6B6
:0200920001B6B5
:0200930001B6B4
:0200940001B6B3
:0200950001B6B2
:0200960001FF68
:0200970001FF67
:0200980001FF66
:0200990001FF65
:02009A0001FF64
:02009B0001FF63
:02009C0001FF62
:02009D0001FF61
:02009E0001FF60
:02009F0001FF5F
:0200A00000005E
:0200A10000005D
:0200A20000005C
:0200A30000005B
:0200A40000005A
:0200A500000059
:0200A600000058
:0200A700000057
:0200A800000056
:0200A900000055
:0200AA00000054
:0200AB0000490A
:0200AC00004909
:0200AD00004908
:0200AE00004907
:0200AF00004906
:0200B000004905
:0200B100004904
:0200B200004903
:0200B300004902
:0200B400004901
:0200B5000092B7
:0200B6000092B6
:0200B7000092B5
:0200B8000092B4
:0200B9000092B3
:0200BA000092B2
:0200BB000092B1
:0200BC000092B0
:0200BD000092AF
:0200BE000092AE
:0200BF0000DB64
:0200C00000DB63
:0200C10000DB62
:0200C20000DB61
:0200C30000DB60
:0200C40000DB5F
:0200C50000DB5E
:0200C60000DB5D
:0200C70000DB5C
:0200C800012411
:0200C900012410
:0200CA0001240F
:0200CB0001240E
:0200CC0001240D
:0200CD0001240C
:0200CE0001240B
:0200CF0001240A
:0200D000012409
:0200D100012408
:0200D200016DBE
:0200D300016DBD
:0200D400016DBC
:0200D500016DBB
:0200D600016DBA
:0200D700016DB9
:0200D800016DB8
:0200D900016DB7
:0200DA00016DB6
:0200DB00016DB5
:0200DC0001B66B
:0200DD0001B66A
:0200DE0001B669
:0200DF0001B668
:0200E00001B667
:0200E10001B666
:0200E20001B665
:0200E30001B664
:0200E40001B663
:0200E50001B662
:0200E60001FF18
:0200E70001FF17
:0200E80001FF16
:0200E90001FF15
:0200EA0001FF14
:0200EB0001FF13
:0200EC0001FF12
:0200ED0001FF11
:0200EE0001FF10
:0200EF0001FF0F
:0200F00000000E
:0200F10000000D
:0200F20000000C
:0200F30000000B
:0200F40000000A
:0200F500000009
:0200F600000008
:0200F700000007
:0200F800000006
:0200F900000005
:0200FA00000004
:0200FB000049BA
:0200FC000049B9
:0200FD000049B8
:0200FE000049B7
:0200FF000049B6
:020100000049B4
:020101000049B3
:020102000049B2
:020103000049B1
:020104000049B0
:02010500009266
:02010600009265
:02010700009264
:02010800009263
:02010900009262
:02010A00009261
:02010B00009260
:02010C0000925F
:02010D0000925E
:02010E0000925D
:02010F0000DB13
:0201100000DB12
:0201110000DB11
:0201120000DB10
:0201130000DB0F
:0201140000DB0E
:0201150000DB0D
:0201160000DB0C
:0201170000DB0B
:020118000124C0
:020119000124BF
:02011A000124BE
:02011B000124BD
:02011C000124BC
:02011D000124BB
:02011E000124BA
:02011F000124B9
:020120000124B8
:020121000124B7
:02012200016D6D
:02012300016D6C
:02012400016D6B
:02012500016D6A
:02012600016D69
:02012700016D68
:02012800016D67
:02012900016D66
:02012A00016D65
:02012B00016D64
:02012C0001B61A
:02012D0001B619
:02012E0001B618
:02012F0001B617
:0201300001B616
:0201310001B615
:0201320001B614
:0201330001B613
:0201340001B612
:0201350001B611
:0201360001FFC7
:0201370001FFC6
:0201380001FFC5
:0201390001FFC4
:02013A0001FFC3
:02013B0001FFC2
:02013C0001FFC1
:02013D0001FFC0
:02013E0001FFBF
:02013F0001FFBE
:020140000000BD
:020141000000BC
:020142000000BB
:020143000000BA
:020144000000B9
:020145000000B8
:020146000000B7
:020147000000B6
:020148000000B5
:020149000000B4
:02014A000000B3
:02014B00004969
:02014C00004968
:02014D00004967
:02014E00004966
:02014F00004965
:02015000004964
:02015100004963
:02015200004962
:02015300004961
:02015400004960
:02015500009216
:02015600009215
:02015700009214
:02015800009213
:02015900009212
:02015A00009211
:02015B00009210
:02015C0000920F
:02015D0000920E
:02015E0000920D
:02015F0000DBC3
:0201600000DBC2
:0201610000DBC1
:0201620000DBC0
:0201630000DBBF
:0201640000DBBE
:0201650000DBBD
:0201660000DBBC
:0201670000DBBB
:02016800012470
:0201690001246F
:02016A0001246E
:02016B0001246D
:02016C0001246C
:02016D0001246B
:02016E0001246A
:02016F00012469
:02017000012468
:02017100012467
:02017200016D1D
:02017300016D1C
:02017400016D1B
:02017500016D1A
:02017600016D19
:02017700016D18
:02017800016D17
:02017900016D16
:02017A00016D15
:02017B00016D14
:02017C0001B6CA
:02017D0001B6C9
:02017E0001B6C8
:02017F0001B6C7
:0201800001B6C6
:0201810001B6C5
:0201820001B6C4
:0201830001B6C3
:0201840001B6C2
:0201850001B6C1
:0201860001FF77
:0201870001FF76
:0201880001FF75
:0201890001FF74
:02018A0001FF73
:02018B0001FF72
:02018C0001FF71
:02018D0001FF70
:02018E0001FF6F
:02018F0001FF6E
:0201900000006D
:0201910000006C
:0201920000006B
:0201930000006A
:02019400000069
:02019500000068
:02019600000067
:02019700000066
:02019800000065
:02019900000064
:02019A00000063
:02019B00004919
:02019C00004918
:02019D00004917
:02019E00004916
:02019F00004915
:0201A000004914
:0201A100004913
:0201A200004912
:0201A300004911
:0201A400004910
:0201A5000092C6
:0201A6000092C5
:0201A7000092C4
:0201A8000092C3
:0201A9000092C2
:0201AA000092C1
:0201AB000092C0
:0201AC000092BF
:0201AD000092BE
:0201AE000092BD
:0201AF0000DB73
:0201B00000DB72
:0201B10000DB71
:0201B20000DB70
:0201B30000DB6F
:0201B40000DB6E
:0201B50000DB6D
:0201B60000DB6C
:0201B70000DB6B
:0201B800012420
:0201B90001241F
:0201BA0001241E
:0201BB0001241D
:0201BC0001241C
:0201BD0001241B
:0201BE0001241A
:0201BF00012419
:0201C000012418
:0201C100012417
:0201C200016DCD
:0201C300016DCC
:0201C400016DCB
:0201C500016DCA
:0201C600016DC9
:0201C700016DC8
:0201C800016DC7
:0201C900016DC6
:0201CA00016DC5
:0201CB00016DC4
:0201CC0001B67A
:0201CD0001B679
:0201CE0001B678
:0201CF0001B677
:0201D00001B676
:0201D10001B675
:0201D20001B674
:0201D30001B673
:0201D40001B672
:0201D50001B671
:0201D60001FF27
:0201D70001FF26
:0201D80001FF25
:0201D90001FF24
:0201DA0001FF23
:0201DB0001FF22
:0201DC0001FF21
:0201DD0001FF20
:0201DE0001FF1F
:0201DF0001FF1E
:0201E00000001D
:0201E10000001C
:0201E20000001B
:0201E30000001A
:0201E400000019
:0201E500000018
:0201E600000017
:0201E700000016
:0201E800000015
:0201E900000014
:0201EA00000013
:0201EB000049C9
:0201EC000049C8
:0201ED000049C7
:0201EE000049C6
:0201EF000049C5
:0201F0000049C4
:0201F1000049C3
:0201F2000049C2
:0201F3000049C1
:0201F4000049C0
:0201F500009276
:0201F600009275
:0201F700009274
:0201F800009273
:0201F900009272
:0201FA00009271
:0201FB00009270
:0201FC0000926F
:0201FD0000926E
:0201FE0000926D
:0201FF0000DB23
:0202000000DB21
:0202010000DB20
:0202020000DB1F
:0202030000DB1E
:0202040000DB1D
:0202050000DB1C
:0202060000DB1B
:0202070000DB1A
:020208000124CF
:020209000124CE
:02020A000124CD
:02020B000124CC
:02020C000124CB
:02020D000124CA
:02020E000124C9
:02020F000124C8
:020210000124C7
:020211000124C6
:02021200016D7C
:02021300016D7B
:02021400016D7A
:02021500016D79
:02021600016D78
:02021700016D77
:02021800016D76
:02021900016D75
:02021A00016D74
:02021B00016D73
:02021C0001B629
:02021D0001B628
:02021E0001B627
:02021F0001B626
:0202200001B625
:0202210001B624
:0202220001B623
:0202230001B622
:0202240001B621
:0202250001B620
:0202260001FFD6
:0202270001FFD5
:0202280001FFD4
:0202290001FFD3
:02022A0001FFD2
:02022B0001FFD1
:02022C0001FFD0
:02022D0001FFCF
:02022E0001FFCE
:02022F0001FFCD
:020230000000CC
:020231000000CB
:020232000000CA
:020233000000C9
:020234000000C8
:020235000000C7
:020236000000C6
:020237000000C5
:020238000000C4
:020239000000C3
:02023A000000C2
:02023B00004978
:02023C00004977
:02023D00004976
:02023E00004975
:02023F00004974
:02024000004973
:02024100004972
:02024200004971
:02024300004970
:0202440000496F
:02024500009225
:02024600009224
:02024700009223
:02024800009222
:02024900009221
:02024A00009220
:02024B0000921F
:02024C0000921E
:02024D0000921D
:02024E0000921C
:02024F0000DBD2
:0202500000DBD1
:0202510000DBD0
:0202520000DBCF
:0202530000DBCE
:0202540000DBCD
:0202550000DBCC
:0202560000DBCB
:0202570000DBCA
:0202580001247F
:0202590001247E
:02025A0001247D
:02025B0001247C
:02025C0001247B
:02025D0001247A
:02025E00012479
:02025F00012478
:02026000012477
:02026100012476
:02026200016D2C
:02026300016D2B
:02026400016D2A
:02026500016D29
:02026600016D28
:02026700016D27
:02026800016D26
:02026900016D25
:02026A00016D24
:02026B00016D23
:02026C0001B6D9
:02026D0001B6D8
:02026E0001B6D7
:02026F0001B6D6
:0202700001B6D5
:0202710001B6D4
:0202720001B6D3
:0202730001B6D2
:0202740001B6D1
:0202750001B6D0
:0202760001FF86
:0202770001FF85
:0202780001FF84
:0202790001FF83
:02027A0001FF82
:02027B0001FF81
:02027C0001FF80
:02027D0001FF7F
:02027E0001FF7E
:02027F0001FF7D
:0202800000007C
:0202810000007B
:0202820000007A
:02028300000079
:02028400000078
:02028500000077
:02028600000076
:02028700000075
:02028800000074
:02028900000073
:02028A00000072
:02028B00004928
:02028C00004927
:02028D00004926
:02028E00004925
:02028F00004924
:02029000004923
:02029100004922
:02029200004921
:02029300004920
:0202940000491F
:020295000092D5
:020296000092D4
:020297000092D3
:020298000092D2
:020299000092D1
:02029A000092D0
:02029B000092CF
:02029C000092CE
:02029D000092CD
:02029E000092CC
:02029F0000DB82
:0202A00000DB81
:0202A10000DB80
:0202A20000DB7F
:0202A30000DB7E
:0202A40000DB7D
:0202A50000DB7C
:0202A60000DB7B
:0202A70000DB7A
:0202A80001242F
:0202A90001242E
:0202AA0001242D
:0202AB0001242C
:0202AC0001242B
:0202AD0001242A
:0202AE00012429
:0202AF00012428
:0202B000012427
:0202B100012426
:0202B200016DDC
:0202B300016DDB
:0202B400016DDA
:0202B500016DD9
:0202B600016DD8
:0202B700016DD7
:0202B800016DD6
:0202B900016DD5
:0202BA00016DD4
:0202BB00016DD3
:0202BC0001B689
:0202BD0001B688
:0202BE0001B687
:0202BF0001B686
:0202C00001B685
:0202C10001B684
:0202C20001B683
:0202C30001B682
:0202C40001B681
:0202C50001B680
:0202C60001FF36
:0202C70001FF35
:0202C80001FF34
:0202C90001FF33
:0202CA0001FF32
:0202CB0001FF31
:0202CC0001FF30
:0202CD0001FF2F
:0202CE0001FF2E
:0202CF0001FF2D
:0202D00000002C
:0202D10000002B
:0202D20000002A
:0202D300000029
:0202D400000028
:0202D500000027
:0202D600000026
:0202D700000025
:0202D800000024
:0202D900000023
:0202DA00000022
:0202DB000049D8
:0202DC000049D7
:0202DD000049D6
:0202DE000049D5
:0202DF000049D4
:0202E0000049D3
:0202E1000049D2
:0202E2000049D1
:0202E3000049D0
:0202E4000049CF
:0202E500009285
:0202E600009284
:0202E700009283
:0202E800009282
:0202E900009281
:0202EA00009280
:0202EB0000927F
:0202EC0000927E
:0202ED0000927D
:0202EE0000927C
:0202EF0000DB32
:0202F00000DB31
:0202F10000DB30
:0202F20000DB2F
:0202F30000DB2E
:0202F40000DB2D
:0202F50000DB2C
:0202F60000DB2B
:0202F70000DB2A
:0202F8000124DF
:0202F9000124DE
:0202FA000124DD
:0202FB000124DC
:0202FC000124DB
:0202FD000124DA
:0202FE000124D9
:0202FF000124D8
:020300000124D6
:020301000124D5
:02030200016D8B
:02030300016D8A
:02030400016D89
:02030500016D88
:02030600016D87
:02030700016D86
:02030800016D85
:02030900016D84
:02030A00016D83
:02030B00016D82
:02030C0001B638
:02030D0001B637
:02030E0001B636
:02030F0001B635
:0203100001B634
:0203110001B633
:0203120001B632
:0203130001B631
:0203140001B630
:0203150001B62F
:0203160001FFE5
:0203170001FFE4
:0203180001FFE3
:0203190001FFE2
:02031A0001FFE1
:02031B0001FFE0
:02031C0001FFDF
:02031D0001FFDE
:02031E0001FFDD
:02031F0001FFDC
:020320000000DB
:020321000000DA
:020322000000D9
:020323000000D8
:020324000000D7
:020325000000D6
:020326000000D5
:020327000000D4
:020328000000D3
:020329000000D2
:02032A000000D1
:02032B00004987
:02032C00004986
:02032D00004985
:02032E00004984
:02032F00004983
:02033000004982
:02033100004981
:02033200004980
:0203330000497F
:0203340000497E
:02033500009234
:02033600009233
:02033700009232
:02033800009231
:02033900009230
:02033A0000922F
:02033B0000922E
:02033C0000922D
:02033D0000922C
:02033E0000922B
:02033F0000DBE1
:0203400000DBE0
:0203410000DBDF
:0203420000DBDE
:0203430000DBDD
:0203440000DBDC
:0203450000DBDB
:0203460000DBDA
:0203470000DBD9
:0203480001248E
:0203490001248D
:02034A0001248C
:02034B0001248B
:02034C0001248A
:02034D00012489
:02034E00012488
:02034F00012487
:02035000012486
:02035100012485
:02035200016D3B
:02035300016D3A
:02035400016D39
:02035500016D38
:02035600016D37
:02035700016D36
:02035800016D35
:02035900016D34
:02035A00016D33
:02035B00016D32
:02035C0001B6E8
:02035D0001B6E7
:02035E0001B6E6
:02035F0001B6E5
:0203600001B6E4
:0203610001B6E3
:0203620001B6E2
:0203630001B6E1
:0203640001B6E0
:0203650001B6DF
:0203660001FF95
:0203670001FF94
:0203680001FF93
:0203690001FF92
:02036A0001FF91
:02036B0001FF90
:02036C0001FF8F
:02036D0001FF8E
:02036E0001FF8D
:02036F0001FF8C
:0203700000008B
:0203710000008A
:02037200000089
:02037300000088
:02037400000087
:02037500000086
:02037600000085
:02037700000084
:02037800000083
:02037900000082
:02037A00000081
:02037B00004937
:02037C00004936
:02037D00004935
:02037E00004934
:02037F00004933
:02038000004932
:02038100004931
:02038200004930
:0203830000492F
:0203840000492E
:020385000092E4
:020386000092E3
:020387000092E2
:020388000092E1
:020389000092E0
:02038A000092DF
:02038B000092DE
:02038C000092DD
:02038D000092DC
:02038E000092DB
:02038F0000DB91
:0203900000DB90
:0203910000DB8F
:0203920000DB8E
:0203930000DB8D
:0203940000DB8C
:0203950000DB8B
:0203960000DB8A
:0203970000DB89
:0203980001243E
:0203990001243D
:02039A0001243C
:02039B0001243B
:02039C0001243A
:02039D00012439
:02039E00012438
:02039F00012437
:0203A000012436
:0203A100012435
:0203A200016DEB
:0203A300016DEA
:0203A400016DE9
:0203A500016DE8
:0203A600016DE7
:0203A700016DE6
:0203A800016DE5
:0203A900016DE4
:0203AA00016DE3
:0203AB00016DE2
:0203AC0001B698
:0203AD0001B697
:0203AE0001B696
:0203AF0001B695
:0203B00001B694
:0203B10001B693
:0203B20001B692
:0203B30001B691
:0203B40001B690
:0203B50001B68F
:0203B60001FF45
:0203B70001FF44
:0203B80001FF43
:0203B90001FF42
:0203BA0001FF41
:0203BB0001FF40
:0203BC0001FF3F
:0203BD0001FF3E
:0203BE0001FF3D
:0203BF0001FF3C
:0203C00000003B
:0203C10000003A
:0203C200000039
:0203C300000038
:0203C400000037
:0203C500000036
:0203C600000035
:0203C700000034
:0203C800000033
:0203C900000032
:0203CA00000031
:0203CB000049E7
:0203CC000049E6
:0203CD000049E5
:0203CE000049E4
:0203CF000049E3
:0203D0000049E2
:0203D1000049E1
:0203D2000049E0
:0203D3000049DF
:0203D4000049DE
:0203D500009294
:0203D600009293
:0203D700009292
:0203D800009291
:0203D900009290
:0203DA0000928F
:0203DB0000928E
:0203DC0000928D
:0203DD0000928C
:0203DE0000928B
:0203DF0000DB41
:0203E00000DB40
:0203E10000DB3F
:0203E20000DB3E
:0203E30000DB3D
:0203E40000DB3C
:0203E50000DB3B
:0203E60000DB3A
:0203E70000DB39
:0203E8000124EE
:0203E9000124ED
:0203EA000124EC
:0203EB000124EB
:0203EC000124EA
:0203ED000124E9
:0203EE000124E8
:0203EF000124E7
:0203F0000124E6
:0203F1000124E5
:0203F200016D9B
:0203F300016D9A
:0203F400016D99
:0203F500016D98
:0203F600016D97
:0203F700016D96
:0203F800016D95
:0203F900016D94
:0203FA00016D93
:0203FB00016D92
:0203FC0001B648
:0203FD0001B647
:0203FE0001B646
:0203FF0001B645
:0204000001B643
:0204010001B642
:0204020001B641
:0204030001B640
:0204040001B63F
:0204050001B63E
:0204060001FFF4
:0204070001FFF3
:0204080001FFF2
:0204090001FFF1
:02040A0001FFF0
:02040B0001FFEF
:02040C0001FFEE
:02040D0001FFED
:02040E0001FFEC
:02040F0001FFEB
:020410000000EA
:020411000000E9
:020412000000E8
:020413000000E7
:020414000000E6
:020415000000E5
:020416000000E4
:020417000000E3
:020418000000E2
:020419000000E1
:02041A000000E0
:02041B00004996
:02041C00004995
:02041D00004994
:02041E00004993
:02041F00004992
:02042000004991
:02042100004990
:0204220000498F
:0204230000498E
:0204240000498D
:02042500009243
:02042600009242
:02042700009241
:02042800009240
:0204290000923F
:02042A0000923E
:02042B0000923D
:02042C0000923C
:02042D0000923B
:02042E0000923A
:02042F0000DBF0
:0204300000DBEF
:0204310000DBEE
:0204320000DBED
:0204330000DBEC
:0204340000DBEB
:0204350000DBEA
:0204360000DBE9
:0204370000DBE8
:0204380001249D
:0204390001249C
:02043A0001249B
:02043B0001249A
:02043C00012499
:02043D00012498
:02043E00012497
:02043F00012496
:02044000012495
:02044100012494
:02044200016D4A
:02044300016D49
:02044400016D48
:02044500016D47
:02044600016D46
:02044700016D45
:02044800016D44
:02044900016D43
:02044A00016D42
:02044B00016D41
:02044C0001B6F7
:02044D0001B6F6
:02044E0001B6F5
:02044F0001B6F4
:0204500001B6F3
:0204510001B6F2
:0204520001B6F1
:0204530001B6F0
:0204540001B6EF
:0204550001B6EE
:0204560001FFA4
:0204570001FFA3
:0204580001FFA2
:0204590001FFA1
:02045A0001FFA0
:02045B0001FF9F
:02045C0001FF9E
:02045D0001FF9D
:02045E0001FF9C
:02045F0001FF9B
:0204600000009A
:02046100000099
:02046200000098
:02046300000097
:02046400000096
:02046500000095
:02046600000094
:02046700000093
:02046800000092
:02046900000091
:02046A00000090
:02046B00004946
:02046C00004945
:02046D00004944
:02046E00004943
:02046F00004942
:02047000004941
:02047100004940
:0204720000493F
:0204730000493E
:0204740000493D
:020475000092F3
:020476000092F2
:020477000092F1
:020478000092F0
:020479000092EF
:02047A000092EE
:02047B000092ED
:02047C000092EC
:02047D000092EB
:02047E000092EA
:02047F0000DBA0
:0204800000DB9F
:0204810000DB9E
:0204820000DB9D
:0204830000DB9C
:0204840000DB9B
:0204850000DB9A
:0204860000DB99
:0204870000DB98
:0204880001244D
:0204890001244C
:02048A0001244B
:02048B0001244A
:02048C00012449
:02048D00012448
:02048E00012447
:02048F00012446
:02049000012445
:02049100012444
:02049200016DFA
:02049300016DF9
:02049400016DF8
:02049500016DF7
:02049600016DF6
:02049700016DF5
:02049800016DF4
:02049900016DF3
:02049A00016DF2
:02049B00016DF1
:02049C0001B6A7
:02049D0001B6A6
:02049E0001B6A5
:02049F0001B6A4
:0204A00001B6A3
:0204A10001B6A2
:0204A20001B6A1
:0204A30001B6A0
:0204A40001B69F
:0204A50001B69E
:0204A60001FF54
:0204A70001FF53
:0204A80001FF52
:0204A90001FF51
:0204AA0001FF50
:0204AB0001FF4F
:0204AC0001FF4E
:0204AD0001FF4D
:0204AE0001FF4C
:0204AF0001FF4B
:0204B00000004A
:0204B100000049
:0204B200000048
:0204B300000047
:0204B400000046
:0204B500000045
:0204B600000044
:0204B700000043
:0204B800000042
:0204B900000041
:0204BA00000040
:0204BB000049F6
:0204BC000049F5
:0204BD000049F4
:0204BE000049F3
:0204BF000049F2
:0204C0000049F1
:0204C1000049F0
:0204C2000049EF
:0204C3000049EE
:0204C4000049ED
:0204C5000092A3
:0204C6000092A2
:0204C7000092A1
:0204C8000092A0
:0204C90000929F
:0204CA0000929E
:0204CB0000929D
:0204CC0000929C
:0204CD0000929B
:0204CE0000929A
:0204CF0000DB50
:0204D00000DB4F
:0204D10000DB4E
:0204D20000DB4D
:0204D30000DB4C
:0204D40000DB4B
:0204D50000DB4A
:0204D60000DB49
:0204D70000DB48
:0204D8000124FD
:0204D9000124FC
:0204DA000124FB
:0204DB000124FA
:0204DC000124F9
:0204DD000124F8
:0204DE000124F7
:0204DF000124F6
:0204E0000124F5
:0204E1000124F4
:0204E200016DAA
:0204E300016DA9
:0204E400016DA8
:0204E500016DA7
:0204E600016DA6
:0204E700016DA5
:0204E800016DA4
:0204E900016DA3
:0204EA00016DA2
:0204EB00016DA1
:0204EC0001B657
:0204ED0001B656
:0204EE0001B655
:0204EF0001B654
:0204F00001B653
:0204F10001B652
:0204F20001B651
:0204F30001B650
:0204F40001B64F
:0204F50001B64E
:0204F60001FF04
:0204F70001FF03
:0204F80001FF02
:0204F90001FF01
:0204FA0001FF00
:0204FB0001FFFF
:0204FC0001FFFE
:0204FD0001FFFD
:0204FE0001FFFC
:0204FF0001FFFB
:020500000000F9
:020501000000F8
:020502000000F7
:020503000000F6
:020504000000F5
:020505000000F4
:020506000000F3
:020507000000F2
:020508000000F1
:020509000000F0
:02050A000000EF
:02050B000049A5
:02050C000049A4
:02050D000049A3
:02050E000049A2
:02050F000049A1
:020510000049A0
:0205110000499F
:0205120000499E
:0205130000499D
:0205140000499C
:02051500009252
:02051600009251
:02051700009250
:0205180000924F
:0205190000924E
:02051A0000924D
:02051B0000924C
:02051C0000924B
:02051D0000924A
:02051E00009249
:02051F0000DBFF
:0205200000DBFE
:0205210000DBFD
:0205220000DBFC
:0205230000DBFB
:0205240000DBFA
:0205250000DBF9
:0205260000DBF8
:0205270000DBF7
:020528000124AC
:020529000124AB
:02052A000124AA
:02052B000124A9
:02052C000124A8
:02052D000124A7
:02052E000124A6
:02052F000124A5
:020530000124A4
:020531000124A3
:02053200016D59
:02053300016D58
:02053400016D57
:02053500016D56
:02053600016D55
:02053700016D54
:02053800016D53
:02053900016D52
:02053A00016D51
:02053B00016D50
:02053C0001B606
:02053D0001B605
:02053E0001B604
:02053F0001B603
:0205400001B602
:0205410001B601
:0205420001B600
:0205430001B6FF
:0205440001B6FE
:0205450001B6FD
:0205460001FFB3
:0205470001FFB2
:0205480001FFB1
:0205490001FFB0
:02054A0001FFAF
:02054B0001FFAE
:02054C0001FFAD
:02054D0001FFAC
:02054E0001FFAB
:02054F0001FFAA
:020550000000A9
:020551000000A8
:020552000000A7
:020553000000A6
:020554000000A5
:020555000000A4
:020556000000A3
:020557000000A2
:020558000000A1
:020559000000A0
:02055A0000009F
:02055B00004955
:02055C00004954
:02055D00004953
:02055E00004952
:02055F00004951
:02056000004950
:0205610000494F
:0205620000494E
:0205630000494D
:0205640000494C
:02056500009202
:02056600009201
:02056700009200
:020568000092FF
:020569000092FE
:02056A000092FD
:02056B000092FC
:02056C000092FB
:02056D000092FA
:02056E000092F9
:02056F0000DBAF
:0205700000DBAE
:0205710000DBAD
:0205720000DBAC
:0205730000DBAB
:0205740000DBAA
:0205750000DBA9
:0205760000DBA8
:0205770000DBA7
:0205780001245C
:0205790001245B
:02057A0001245A
:02057B00012459
:02057C00012458
:02057D00012457
:02057E00012456
:02057F00012455
:02058000012454
:02058100012453
:02058200016D09
:02058300016D08
:02058400016D07
:02058500016D06
:02058600016D05
:02058700016D04
:02058800016D03
:02058900016D02
:02058A00016D01
:02058B00016D00
:02058C0001B6B6
:02058D0001B6B5
:02058E0001B6B4
:02058F0001B6B3
:0205900001B6B2
:0205910001B6B1
:0205920001B6B0
:0205930001B6AF
:0205940001B6AE
:0205950001B6AD
:0205960001FF63
:0205970001FF62
:0205980001FF61
:0205990001FF60
:02059A0001FF5F
:02059B0001FF5E
:02059C0001FF5D
:02059D0001FF5C
:02059E0001FF5B
:02059F0001FF5A
:0205A000000059
:0205A100000058
:0205A200000057
:0205A300000056
:0205A400000055
:0205A500000054
:0205A600000053
:0205A700000052
:0205A800000051
:0205A900000050
:0205AA0000004F
:0205AB00004905
:0205AC00004904
:0205AD00004903
:0205AE00004902
:0205AF00004901
:0205B000004900
:0205B1000049FF
:0205B2000049FE
:0205B3000049FD
:0205B4000049FC
:0205B5000092B2
:0205B6000092B1
:0205B7000092B0
:0205B8000092AF
:0205B9000092AE
:0205BA000092AD
:0205BB000092AC
:0205BC000092AB
:0205BD000092AA
:0205BE000092A9
:0205BF0000DB5F
:0205C00000DB5E
:0205C10000DB5D
:0205C20000DB5C
:0205C30000DB5B
:0205C40000DB5A
:0205C50000DB59
:0205C60000DB58
:0205C70000DB57
:0205C80001240C
:0205C90001240B
:0205CA0001240A
:0205CB00012409
:0205CC00012408
:0205CD00012407
:0205CE00012406
:0205CF00012405
:0205D000012404
:0205D100012403
:0205D200016DB9
:0205D300016DB8
:0205D400016DB7
:0205D500016DB6
:0205D600016DB5
:0205D700016DB4
:0205D800016DB3
:0205D900016DB2
:0205DA00016DB1
:0205DB00016DB0
:0205DC0001B666
:0205DD0001B665
:0205DE0001B664
:0205DF0001B663
:0205E00001B662
:0205E10001B661
:0205E20001B660
:0205E30001B65F
:0205E40001B65E
:0205E50001B65D
:0205E60001FF13
:0205E70001FF12
:0205E80001FF11
:0205E90001FF10
:0205EA0001FF0F
:0205EB0001FF0E
:0205EC0001FF0D
:0205ED0001FF0C
:0205EE0001FF0B
:0205EF0001FF0A
:0205F000000009
:0205F100000008
:0205F200000007
:0205F300000006
:0205F400000005
:0205F500000004
:0205F600000003
:0205F700000002
:0205F800000001
:0205F900000000
:0205FA000000FF
:0205FB000049B5
:0205FC000049B4
:0205FD000049B3
:0205FE000049B2
:0205FF000049B1
:020600000049AF
:020601000049AE
:020602000049AD
:020603000049AC
:020604000049AB
:02060500009261
:02060600009260
:0206070000925F
:0206080000925E
:0206090000925D
:02060A0000925C
:02060B0000925B
:02060C0000925A
:02060D00009259
:02060E00009258
:02060F0000DB0E
:0206100000DB0D
:0206110000DB0C
:0206120000DB0B
:0206130000DB0A
:0206140000DB09
:0206150000DB08
:0206160000DB07
:0206170000DB06
:020618000124BB
:020619000124BA
:02061A000124B9
:02061B000124B8
:02061C000124B7
:02061D000124B6
:02061E000124B5
:02061F000124B4
:020620000124B3
:020621000124B2
:02062200016D68
:02062300016D67
:02062400016D66
:02062500016D65
:02062600016D64
:02062700016D63
:02062800016D62
:02062900016D61
:02062A00016D60
:02062B00016D5F
:02062C0001B615
:02062D0001B614
:02062E0001B613
:02062F0001B612
:0206300001B611
:0206310001B610
:0206320001B60F
:0206330001B60E
:0206340001B60D
:0206350001B60C
:0206360001FFC2
:0206370001FFC1
:0206380001FFC0
:0206390001FFBF
:02063A0001FFBE
:02063B0001FFBD
:02063C0001FFBC
:02063D0001FFBB
:02063E0001FFBA
:02063F0001FFB9
:020640000000B8
:020641000000B7
:020642000000B6
:020643000000B5
:020644000000B4
:020645000000B3
:020646000000B2
:020647000000B1
:020648000000B0
:020649000000AF
:02064A000000AE
:02064B00004964
:02064C00004963
:02064D00004962
:02064E00004961
:02064F00004960
:0206500000495F
:0206510000495E
:0206520000495D
:0206530000495C
:0206540000495B
:02065500009211
:02065600009210
:0206570000920F
:0206580000920E
:0206590000920D
:02065A0000920C
:02065B0000920B
:02065C0000920A
:02065D00009209
:02065E00009208
:02065F0000DBBE
:0206600000DBBD
:0206610000DBBC
:0206620000DBBB
:0206630000DBBA
:0206640000DBB9
:0206650000DBB8
:0206660000DBB7
:0206670000DBB6
:0206680001246B
:0206690001246A
:02066A00012469
:02066B00012468
:02066C00012467
:02066D00012466
:02066E00012465
:02066F00012464
:02067000012463
:02067100012462
:02067200016D18
:02067300016D17
:02067400016D16
:02067500016D15
:02067600016D14
:02067700016D13
:02067800016D12
:02067900016D11
:02067A00016D10
:02067B00016D0F
:02067C0001B6C5
:02067D0001B6C4
:02067E0001B6C3
:02067F0001B6C2
:0206800001B6C1
:0206810001B6C0
:0206820001B6BF
:0206830001B6BE
:0206840001B6BD
:0206850001B6BC
:0206860001FF72
:0206870001FF71
:0206880001FF70
:0206890001FF6F
:02068A0001FF6E
:02068B0001FF6D
:02068C0001FF6C
:02068D0001FF6B
:02068E0001FF6A
:02068F0001FF69
:02069000000068
:02069100000067
:02069200000066
:02069300000065
:02069400000064
:02069500000063
:02069600000062
:02069700000061
:02069800000060
:0206990000005F
:02069A0000005E
:02069B00004914
:02069C00004913
:02069D00004912
:02069E00004911
:02069F00004910
:0206A00000490F
:0206A10000490E
:0206A20000490D
:0206A30000490C
:0206A40000490B
:0206A5000092C1
:0206A6000092C0
:0206A7000092BF
:0206A8000092BE
:0206A9000092BD
:0206AA000092BC
:0206AB000092BB
:0206AC000092BA
:0206AD000092B9
:0206AE000092B8
:0206AF0000DB6E
:0206B00000DB6D
:0206B10000DB6C
:0206B20000DB6B
:0206B30000DB6A
:0206B40000DB69
:0206B50000DB68
:0206B60000DB67
:0206B70000DB66
:0206B80001241B
:0206B90001241A
:0206BA00012419
:0206BB00012418
:0206BC00012417
:0206BD00012416
:0206BE00012415
:0206BF00012414
:0206C000012413
:0206C100012412
:0206C200016DC8
:0206C300016DC7
:0206C400016DC6
:0206C500016DC5
:0206C600016DC4
:0206C700016DC3
:0206C800016DC2
:0206C900016DC1
:0206CA00016DC0
:0206CB00016DBF
:0206CC0001B675
:0206CD0001B674
:0206CE0001B673
:0206CF0001B672
:0206D00001B671
:0206D10001B670
:0206D20001B66F
:0206D30001B66E
:0206D40001B66D
:0206D50001B66C
:0206D60001FF22
:0206D70001FF21
:0206D80001FF20
:0206D90001FF1F
:0206DA0001FF1E
:0206DB0001FF1D
:0206DC0001FF1C
:0206DD0001FF1B
:0206DE0001FF1A
:0206DF0001FF19
:0206E000000018
:0206E100000017
:0206E200000016
:0206E300000015
:0206E400000014
:0206E500000013
:0206E600000012
:0206E700000011
:0206E800000010
:0206E90000000F
:0206EA0000000E
:0206EB000049C4
:0206EC000049C3
:0206ED000049C2
:0206EE000049C1
:0206EF000049C0
:0206F0000049BF
:0206F1000049BE
:0206F2000049BD
:0206F3000049BC
:0206F4000049BB
:0206F500009271
:0206F600009270
:0206F70000926F
:0206F80000926E
:0206F90000926D
:0206FA0000926C
:0206FB0000926B
:0206FC0000926A
:0206FD00009269
:0206FE00009268
:0206FF0000DB1E
:0207000000DB1C
:0207010000DB1B
:0207020000DB1A
:0207030000DB19
:0207040000DB18
:0207050000DB17
:0207060000DB16
:0207070000DB15
:020708000124CA
:020709000124C9
:02070A000124C8
:02070B000124C7
:02070C000124C6
:02070D000124C5
:02070E000124C4
:02070F000124C3
:020710000124C2
:020711000124C1
:02071200016D77
:02071300016D76
:02071400016D75
:02071500016D74
:02071600016D73
:02071700016D72
:02071800016D71
:02071900016D70
:02071A00016D6F
:02071B00016D6E
:02071C0001B624
:02071D0001B623
:02071E0001B622
:02071F0001B621
:0207200001B620
:0207210001B61F
:0207220001B61E
:0207230001B61D
:0207240001B61C
:0207250001B61B
:0207260001FFD1
:0207270001FFD0
:0207280001FFCF
:0207290001FFCE
:02072A0001FFCD
:02072B0001FFCC
:02072C0001FFCB
:02072D0001FFCA
:02072E0001FFC9
:02072F0001FFC8
:020730000000C7
:020731000000C6
:020732000000C5
:020733000000C4
:020734000000C3
:020735000000C2
:020736000000C1
:020737000000C0
:020738000000BF
:020739000000BE
:02073A000000BD
:02073B00004973
:02073C00004972
:02073D00004971
:02073E00004970
:02073F0000496F
:0207400000496E
:0207410000496D
:0207420000496C
:0207430000496B
:0207440000496A
:02074500009220
:0207460000921F
:0207470000921E
:0207480000921D
:0207490000921C
:02074A0000921B
:02074B0000921A
:02074C00009219
:02074D00009218
:02074E00009217
:02074F0000DBCD
:0207500000DBCC
:0207510000DBCB
:0207520000DBCA
:0207530000DBC9
:0207540000DBC8
:0207550000DBC7
:0207560000DBC6
:0207570000DBC5
:0207580001247A
:02075900012479
:02075A00012478
:02075B00012477
:02075C00012476
:02075D00012475
:02075E00012474
:02075F00012473
:02076000012472
:02076100012471
:02076200016D27
:02076300016D26
:02076400016D25
:02076500016D24
:02076600016D23
:02076700016D22
:02076800016D21
:02076900016D20
:02076A00016D1F
:02076B00016D1E
:02076C0001B6D4
:02076D0001B6D3
:02076E0001B6D2
:02076F0001B6D1
:0207700001B6D0
:0207710001B6CF
:0207720001B6CE
:0207730001B6CD
:0207740001B6CC
:0207750001B6CB
:0207760001FF81
:0207770001FF80
:0207780001FF7F
:0207790001FF7E
:02077A0001FF7D
:02077B0001FF7C
:02077C0001FF7B
:02077D0001FF7A
:02077E0001FF79
:02077F0001FF78
:02078000000077
:02078100000076
:02078200000075
:02078300000074
:02078400000073
:02078500000072
:02078600000071
:02078700000070
:0207880000006F
:0207890000006E
:02078A0000006D
:02078B00004923
:02078C00004922
:02078D00004921
:02078E00004920
:02078F0000491F
:0207900000491E
:0207910000491D
:0207920000491C
:0207930000491B
:0207940000491A
:020795000092D0
:020796000092CF
:020797000092CE
:020798000092CD
:020799000092CC
:02079A000092CB
:02079B000092CA
:02079C000092C9
:02079D000092C8
:02079E000092C7
:02079F0000DB7D
:0207A00000DB7C
:0207A10000DB7B
:0207A20000DB7A
:0207A30000DB79
:0207A40000DB78
:0207A50000DB77
:0207A60000DB76
:0207A70000DB75
:0207A80001242A
:0207A900012429
:0207AA00012428
:0207AB00012427
:0207AC00012426
:0207AD00012425
:0207AE00012424
:0207AF00012423
:0207B000012422
:0207B100012421
:0207B200016DD7
:0207B300016DD6
:0207B400016DD5
:0207B500016DD4
:0207B600016DD3
:0207B700016DD2
:0207B800016DD1
:0207B900016DD0
:0207BA00016DCF
:0207BB00016DCE
:0207BC0001B684
:0207BD0001B683
:0207BE0001B682
:0207BF0001B681
:0207C00001B680
:0207C10001B67F
:0207C20001B67E
:0207C30001B67D
:0207C40001B67C
:0207C50001B67B
:0207C60001FF31
:0207C70001FF30
:0207C80001FF2F
:0207C90001FF2E
:0207CA0001FF2D
:0207CB0001FF2C
:0207CC0001FF2B
:0207CD0001FF2A
:0207CE0001FF29
:0207CF0001FF28
:0207D000000027
:0207D100000026
:0207D200000025
:0207D300000024
:0207D400000023
:0207D500000022
:0207D600000021
:0207D700000020
:0207D80000001F
:0207D90000001E
:0207DA0000001D
:0207DB000049D3
:0207DC000049D2
:0207DD000049D1
:0207DE000049D0
:0207DF000049CF
:0207E0000049CE
:0207E1000049CD
:0207E2000049CC
:0207E3000049CB
:0207E4000049CA
:0207E500009280
:0207E60000927F
:0207E70000927E
:0207E80000927D
:0207E90000927C
:0207EA0000927B
:0207EB0000927A
:0207EC00009279
:0207ED00009278
:0207EE00009277
:0207EF0000DB2D
:0207F00000DB2C
:0207F10000DB2B
:0207F20000DB2A
:0207F30000DB29
:0207F40000DB28
:0207F50000DB27
:0207F60000DB26
:0207F70000DB25
:0207F8000124DA
:0207F9000124D9
:0207FA000124D8
:0207FB000124D7
:0207FC000124D6
:0207FD000124D5
:0207FE000124D4
:0207FF000124D3
:020800000124D1
:020801000124D0
:02080200016D86
:02080300016D85
:02080400016D84
:02080500016D83
:02080600016D82
:02080700016D81
:02080800016D80
:02080900016D7F
:02080A00016D7E
:02080B00016D7D
:02080C0001B633
:02080D0001B632
:02080E0001B631
:02080F0001B630
:0208100001B62F
:0208110001B62E
:0208120001B62D
:0208130001B62C
:0208140001B62B
:0208150001B62A
:0208160001FFE0
:0208170001FFDF
:0208180001FFDE
:0208190001FFDD
:02081A0001FFDC
:02081B0001FFDB
:02081C0001FFDA
:02081D0001FFD9
:02081E0001FFD8
:02081F0001FFD7
:020820000000D6
:020821000000D5
:020822000000D4
:020823000000D3
:020824000000D2
:020825000000D1
:020826000000D0
:020827000000CF
:020828000000CE
:020829000000CD
:02082A000000CC
:02082B00004982
:02082C00004981
:02082D00004980
:02082E0000497F
:02082F0000497E
:0208300000497D
:0208310000497C
:0208320000497B
:0208330000497A
:02083400004979
:0208350000922F
:0208360000922E
:0208370000922D
:0208380000922C
:0208390000922B
:02083A0000922A
:02083B00009229
:02083C00009228
:02083D00009227
:02083E00009226
:02083F0000DBDC
:0208400000DBDB
:0208410000DBDA
:0208420000DBD9
:0208430000DBD8
:0208440000DBD7
:0208450000DBD6
:0208460000DBD5
:0208470000DBD4
:02084800012489
:02084900012488
:02084A00012487
:02084B00012486
:02084C00012485
:02084D00012484
:02084E00012483
:02084F00012482
:02085000012481
:02085100012480
:02085200016D36
:02085300016D35
:02085400016D34
:02085500016D33
:02085600016D32
:02085700016D31
:02085800016D30
:02085900016D2F
:02085A00016D2E
:02085B00016D2D
:02085C0001B6E3
:02085D0001B6E2
:02085E0001B6E1
:02085F0001B6E0
:0208600001B6DF
:0208610001B6DE
:0208620001B6DD
:0208630001B6DC
:0208640001B6DB
:0208650001B6DA
:0208660001FF90
:0208670001FF8F
:0208680001FF8E
:0208690001FF8D
:02086A0001FF8C
:02086B0001FF8B
:02086C0001FF8A
:02086D0001FF89
:02086E0001FF88
:02086F0001FF87
:02087000000086
:02087100000085
:02087200000084
:02087300000083
:02087400000082
:02087500000081
:02087600000080
:0208770000007F
:0208780000007E
:0208790000007D
:02087A0000007C
:02087B00004932
:02087C00004931
:02087D00004930
:02087E0000492F
:02087F0000492E
:0208800000492D
:0208810000492C
:0208820000492B
:0208830000492A
:02088400004929
:020885000092DF
:020886000092DE
:020887000092DD
:020888000092DC
:020889000092DB
:02088A000092DA
:02088B000092D9
:02088C000092D8
:02088D000092D7
:02088E000092D6
:02088F0000DB8C
:0208900000DB8B
:0208910000DB8A
:0208920000DB89
:0208930000DB88
:0208940000DB87
:0208950000DB86
:0208960000DB85
:0208970000DB84
:02089800012439
:02089900012438
:02089A00012437
:02089B00012436
:02089C00012435
:02089D00012434
:02089E00012433
:02089F00012432
:0208A000012431
:0208A100012430
:0208A200016DE6
:0208A300016DE5
:0208A400016DE4
:0208A500016DE3
:0208A600016DE2
:0208A700016DE1
:0208A800016DE0
:0208A900016DDF
:0208AA00016DDE
:0208AB00016DDD
:0208AC0001B693
:0208AD0001B692
:0208AE0001B691
:0208AF0001B690
:0208B00001B68F
:0208B10001B68E
:0208B20001B68D
:0208B30001B68C
:0208B40001B68B
:0208B50001B68A
:0208B60001FF40
:0208B70001FF3F
:0208B80001FF3E
:0208B90001FF3D
:0208BA0001FF3C
:0208BB0001FF3B
:0208BC0001FF3A
:0208BD0001FF39
:0208BE0001FF38
:0208BF0001FF37
:0208C000000036
:0208C100000035
:0208C200000034
:0208C300000033
:0208C400000032
:0208C500000031
:0208C600000030
:0208C70000002F
:0208C80000002E
:0208C90000002D
:0208CA0000002C
:0208CB000049E2
:0208CC000049E1
:0208CD000049E0
:0208CE000049DF
:0208CF000049DE
:0208D0000049DD
:0208D1000049DC
:0208D2000049DB
:0208D3000049DA
:0208D4000049D9
:0208D50000928F
:0208D60000928E
:0208D70000928D
:0208D80000928C
:0208D90000928B
:0208DA0000928A
:0208DB00009289
:0208DC00009288
:0208DD00009287
:0208DE00009286
:0208DF0000DB3C
:0208E00000DB3B
:0208E10000DB3A
:0208E20000DB39
:0208E30000DB38
:0208E40000DB37
:0208E50000DB36
:0208E60000DB35
:0208E70000DB34
:0208E8000124E9
:0208E9000124E8
:0208EA000124E7
:0208EB000124E6
:0208EC000124E5
:0208ED000124E4
:0208EE000124E3
:0208EF000124E2
:0208F0000124E1
:0208F1000124E0
:0208F200016D96
:0208F300016D95
:0208F400016D94
:0208F500016D93
:0208F600016D92
:0208F700016D91
:0208F800016D90
:0208F900016D8F
:0208FA00016D8E
:0208FB00016D8D
:0208FC0001B643
:0208FD0001B642
:0208FE0001B641
:0208FF0001B640
:0209000001B63E
:0209010001B63D
:0209020001B63C
:0209030001B63B
:0209040001B63A
:0209050001B639
:0209060001FFEF
:0209070001FFEE
:0209080001FFED
:0209090001FFEC
:02090A0001FFEB
:02090B0001FFEA
:02090C0001FFE9
:02090D0001FFE8
:02090E0001FFE7
:02090F0001FFE6
:020910000000E5
:020911000000E4
:020912000000E3
:020913000000E2
:020914000000E1
:020915000000E0
:020916000000DF
:020917000000DE
:020918000000DD
:020919000000DC
:02091A000000DB
:02091B00004991
:02091C00004990
:02091D0000498F
:02091E0000498E
:02091F0000498D
:0209200000498C
:0209210000498B
:0209220000498A
:02092300004989
:02092400004988
:0209250000923E
:0209260000923D
:0209270000923C
:0209280000923B
:0209290000923A
:02092A00009239
:02092B00009238
:02092C00009237
:02092D00009236
:02092E00009235
:02092F0000DBEB
:0209300000DBEA
:0209310000DBE9
:0209320000DBE8
:0209330000DBE7
:0209340000DBE6
:0209350000DBE5
:0209360000DBE4
:0209370000DBE3
:02093800012498
:02093900012497
:02093A00012496
:02093B00012495
:02093C00012494
:02093D00012493
:02093E00012492
:02093F00012491
:02094000012490
:0209410001248F
:02094200016D45
:02094300016D44
:02094400016D43
:02094500016D42
:02094600016D41
:02094700016D40
:02094800016D3F
:02094900016D3E
:02094A00016D3D
:02094B00016D3C
:02094C0001B6F2
:02094D0001B6F1
:02094E0001B6F0
:02094F0001B6EF
:0209500001B6EE
:0209510001B6ED
:0209520001B6EC
:0209530001B6EB
:0209540001B6EA
:0209550001B6E9
:0209560001FF9F
:0209570001FF9E
:0209580001FF9D
:0209590001FF9C
:02095A0001FF9B
:02095B0001FF9A
:02095C0001FF99
:02095D0001FF98
:02095E0001FF97
:02095F0001FF96
:02096000000095
:02096100000094
:02096200000093
:02096300000092
:02096400000091
:02096500000090
:0209660000008F
:0209670000008E
:0209680000008D
:0209690000008C
:02096A0000008B
:02096B00004941
:02096C00004940
:02096D0000493F
:02096E0000493E
:02096F0000493D
:0209700000493C
:0209710000493B
:0209720000493A
:02097300004939
:02097400004938
:020975000092EE
:020976000092ED
:020977000092EC
:020978000092EB
:020979000092EA
:02097A000092E9
:02097B000092E8
:02097C000092E7
:02097D000092E6
:02097E000092E5
:02097F0000DB9B
:0209800000DB9A
:0209810000DB99
:0209820000DB98
:0209830000DB97
:0209840000DB96
:0209850000DB95
:0209860000DB94
:0209870000DB93
:02098800012448
:02098900012447
:02098A00012446
:02098B00012445
:02098C00012444
:02098D00012443
:02098E00012442
:02098F00012441
:02099000012440
:0209910001243F
:02099200016DF5
:02099300016DF4
:02099400016DF3
:02099500016DF2
:02099600016DF1
:02099700016DF0
:02099800016DEF
:02099900016DEE
:02099A00016DED
:02099B00016DEC
:02099C0001B6A2
:02099D0001B6A1
:02099E0001B6A0
:02099F0001B69F
:0209A00001B69E
:0209A10001B69D
:0209A20001B69C
:0209A30001B69B
:0209A40001B69A
:0209A50001B699
:0209A60001FF4F
:0209A70001FF4E
:0209A80001FF4D
:0209A90001FF4C
:0209AA0001FF4B
:0209AB0001FF4A
:0209AC0001FF49
:0209AD0001FF48
:0209AE0001FF47
:0209AF0001FF46
:0209B00001C084
:0209B10001C083
:0209B20001C082
:0209B30001C081
:0209B40001C080
:0209B50001C07F
:0209B60001C07E
:0209B70001C07D
:0209B80001C07C
:0209B90001C07B
:0209BA0001C07A
:0209BB000181B8
:0209BC000181B7
:0209BD000181B6
:0209BE000181B5
:0209BF000181B4
:0209C0000181B3
:0209C1000181B2
:0209C2000181B1
:0209C3000181B0
:0209C4000141EF
:0209C5000142ED
:0209C6000142EC
:0209C7000142EB
:0209C8000142EA
:0209C9000142E9
:0209CA000142E8
:0209CB000142E7
:0209CC000142E6
:0209CD000142E5
:0209CE00010224
:0209CF00010322
:0209D000010321
:0209D100010320
:0209D20001031F
:0209D30001031E
:0209D40001031D
:0209D50001031C
:0209D60001031B
:0209D70001031A
:0209D80000C459
:0209D90000C458
:0209DA0000C457
:0209DB0000C456
:0209DC0000C455
:0209DD0000C454
:0209DE0000C453
:0209DF0000C452
:0209E00000C451
:0209E10000C450
:0209E20000858E
:0209E30000858D
:0209E40000858C
:0209E50000858B
:0209E60000858A
:0209E700008589
:0209E800008588
:0209E900008587
:0209EA00008586
:0209EB000045C5
:0209EC000046C3
:0209ED000046C2
:0209EE000046C1
:0209EF000046C0
:0209F0000046BF
:0209F1000046BE
:0209F2000046BD
:0209F3000046BC
:0209F4000046BB
:0209F5000006FA
:0209F6000007F8
:0209F7000007F7
:0209F8000007F6
:0209F9000007F5
:0209FA000007F4
:0209FB000007F3
:0209FC000007F2
:0209FD000007F1
:0209FE000007F0
:0209FF000007EF
:020A000001C033
:020A010001C032
:020A020001C031
:020A030001C030
:020A040001C02F
:020A050001C02E
:020A060001C02D
:020A070001C02C
:020A080001C02B
:020A090001C02A
:020A0A0001C029
:020A0B00018167
:020A0C00018166
:020A0D00018165
:020A0E00018164
:020A0F00018163
:020A1000018162
:020A1100018161
:020A1200018160
:020A130001815F
:020A140001419E
:020A150001429C
:020A160001429B
:020A170001429A
:020A1800014299
:020A1900014298
:020A1A00014297
:020A1B00014296
:020A1C00014295
:020A1D00014294
:020A1E000102D3
:020A1F000103D1
:020A20000103D0
:020A21000103CF
:020A22000103CE
:020A23000103CD
:020A24000103CC
:020A25000103CB
:020A26000103CA
:020A27000103C9
:020A280000C408
:020A290000C407
:020A2A0000C406
:020A2B0000C405
:020A2C0000C404
:020A2D0000C403
:020A2E0000C402
:020A2F0000C401
:020A300000C400
:020A310000C4FF
:020A320000853D
:020A330000853C
:020A340000853B
:020A350000853A
:020A3600008539
:020A3700008538
:020A3800008537
:020A3900008536
:020A3A00008535
:020A3B00004574
:020A3C00004672
:020A3D00004671
:020A3E00004670
:020A3F0000466F
:020A400000466E
:020A410000466D
:020A420000466C
:020A430000466B
:020A440000466A
:020A45000006A9
:020A46000007A7
:020A47000007A6
:020A48000007A5
:020A49000007A4
:020A4A000007A3
:020A4B000007A2
:020A4C000007A1
:020A4D000007A0
:020A4E0000079F
:020A4F0000079E
:020A500001C0E3
:020A510001C0E2
:020A520001C0E1
:020A530001C0E0
:020A540001C0DF
:020A550001C0DE
:020A560001C0DD
:020A570001C0DC
:020A580001C0DB
:020A590001C0DA
:020A5A0001C0D9
:020A5B00018117
:020A5C00018116
:020A5D00018115
:020A5E00018114
:020A5F00018113
:020A6000018112
:020A6100018111
:020A6200018110
:020A630001810F
:020A640001414E
:020A650001424C
:020A660001424B
:020A670001424A
:020A6800014249
:020A6900014248
:020A6A00014247
:020A6B00014246
:020A6C00014245
:020A6D00014244
:020A6E00010283
:020A6F00010381
:020A7000010380
:020A710001037F
:020A720001037E
:020A730001037D
:020A740001037C
:020A750001037B
:020A760001037A
:020A7700010379
:020A780000C4B8
:020A790000C4B7
:020A7A0000C4B6
:020A7B0000C4B5
:020A7C0000C4B4
:020A7D0000C4B3
:020A7E0000C4B2
:020A7F0000C4B1
:020A800000C4B0
:020A810000C4AF
:020A82000085ED
:020A83000085EC
:020A84000085EB
:020A85000085EA
:020A86000085E9
:020A87000085E8
:020A88000085E7
:020A89000085E6
:020A8A000085E5
:020A8B00004524
:020A8C00004622
:020A8D00004621
:020A8E00004620
:020A8F0000461F
:020A900000461E
:020A910000461D
:020A920000461C
:020A930000461B
:020A940000461A
:020A9500000659
:020A9600000757
:020A9700000756
:020A9800000755
:020A9900000754
:020A9A00000753
:020A9B00000752
:020A9C00000751
:020A9D00000750
:020A9E0000074F
:020A9F0000074E
:020AA00001C093
:020AA10001C092
:020AA20001C091
:020AA30001C090
:020AA40001C08F
:020AA50001C08E
:020AA60001C08D
:020AA70001C08C
:020AA80001C08B
:020AA90001C08A
:020AAA0001C089
:020AAB000181C7
:020AAC000181C6
:020AAD000181C5
:020AAE000181C4
:020AAF000181C3
:020AB0000181C2
:020AB1000181C1
:020AB2000181C0
:020AB3000181BF
:020AB4000141FE
:020AB5000142FC
:020AB6000142FB
:020AB7000142FA
:020AB8000142F9
:020AB9000142F8
:020ABA000142F7
:020ABB000142F6
:020ABC000142F5
:020ABD000142F4
:020ABE00010233
:020ABF00010331
:020AC000010330
:020AC10001032F
:020AC20001032E
:020AC30001032D
:020AC40001032C
:020AC50001032B
:020AC60001032A
:020AC700010329
:020AC80000C468
:020AC90000C467
:020ACA0000C466
:020ACB0000C465
:020ACC0000C464
:020ACD0000C463
:020ACE0000C462
:020ACF0000C461
:020AD00000C460
:020AD10000C45F
:020AD20000859D
:020AD30000859C
:020AD40000859B
:020AD50000859A
:020AD600008599
:020AD700008598
:020AD800008597
:020AD900008596
:020ADA00008595
:020ADB000045D4
:020ADC000046D2
:020ADD000046D1
:020ADE000046D0
:020ADF000046CF
:020AE0000046CE
:020AE1000046CD
:020AE2000046CC
:020AE3000046CB
:020AE4000046CA
:020AE500000609
:020AE600000707
:020AE700000706
:020AE800000705
:020AE900000704
:020AEA00000703
:020AEB00000702
:020AEC00000701
:020AED00000700
:020AEE000007FF
:020AEF000007FE
:020AF00001C043
:020AF10001C042
:020AF20001C041
:020AF30001C040
:020AF40001C03F
:020AF50001C03E
:020AF60001C03D
:020AF70001C03C
:020AF80001C03B
:020AF90001C03A
:020AFA0001C039
:020AFB00018177
:020AFC00018176
:020AFD00018175
:020AFE00018174
:020AFF00018173
:020B0000018171
:020B0100018170
:020B020001816F
:020B030001816E
:020B04000141AD
:020B05000142AB
:020B06000142AA
:020B07000142A9
:020B08000142A8
:020B09000142A7
:020B0A000142A6
:020B0B000142A5
:020B0C000142A4
:020B0D000142A3
:020B0E000102E2
:020B0F000103E0
:020B10000103DF
:020B11000103DE
:020B12000103DD
:020B13000103DC
:020B14000103DB
:020B15000103DA
:020B16000103D9
:020B17000103D8
:020B180000C417
:020B190000C416
:020B1A0000C415
:020B1B0000C414
:020B1C0000C413
:020B1D0000C412
:020B1E0000C411
:020B1F0000C410
:020B200000C40F
:020B210000C40E
:020B220000854C
:020B230000854B
:020B240000854A
:020B2500008549
:020B2600008548
:020B2700008547
:020B2800008546
:020B2900008545
:020B2A00008544
:020B2B00004583
:020B2C00004681
:020B2D00004680
:020B2E0000467F
:020B2F0000467E
:020B300000467D
:020B310000467C
:020B320000467B
:020B330000467A
:020B3400004679
:020B35000006B8
:020B36000007B6
:020B37000007B5
:020B38000007B4
:020B39000007B3
:020B3A000007B2
:020B3B000007B1
:020B3C000007B0
:020B3D000007AF
:020B3E000007AE
:020B3F000007AD
:020B400001C0F2
:020B410001C0F1
:020B420001C0F0
:020B430001C0EF
:020B440001C0EE
:020B450001C0ED
:020B460001C0EC
:020B470001C0EB
:020B480001C0EA
:020B490001C0E9
:020B4A0001C0E8
:020B4B00018126
:020B4C00018125
:020B4D00018124
:020B4E00018123
:020B4F00018122
:020B5000018121
:020B5100018120
:020B520001811F
:020B530001811E
:020B540001415D
:020B550001425B
:020B560001425A
:020B5700014259
:020B5800014258
:020B5900014257
:020B5A00014256
:020B5B00014255
:020B5C00014254
:020B5D00014253
:020B5E00010292
:020B5F00010390
:020B600001038F
:020B610001038E
:020B620001038D
:020B630001038C
:020B640001038B
:020B650001038A
:020B6600010389
:020B6700010388
:020B680000C4C7
:020B690000C4C6
:020B6A0000C4C5
:020B6B0000C4C4
:020B6C0000C4C3
:020B6D0000C4C2
:020B6E0000C4C1
:020B6F0000C4C0
:020B700000C4BF
:020B710000C4BE
:020B72000085FC
:020B73000085FB
:020B74000085FA
:020B75000085F9
:020B76000085F8
:020B77000085F7
:020B78000085F6
:020B79000085F5
:020B7A000085F4
:020B7B00004533
:020B7C00004631
:020B7D00004630
:020B7E0000462F
:020B7F0000462E
:020B800000462D
:020B810000462C
:020B820000462B
:020B830000462A
:020B8400004629
:020B8500000668
:020B8600000766
:020B8700000765
:020B8800000764
:020B8900000763
:020B8A00000762
:020B8B00000761
:020B8C00000760
:020B8D0000075F
:020B8E0000075E
:020B8F0000075D
:020B900001C0A2
:020B910001C0A1
:020B920001C0A0
:020B930001C09F
:020B940001C09E
:020B950001C09D
:020B960001C09C
:020B970001C09B
:020B980001C09A
:020B990001C099
:020B9A0001C098
:020B9B000181D6
:020B9C000181D5
:020B9D000181D4
:020B9E000181D3
:020B9F000181D2
:020BA0000181D1
:020BA1000181D0
:020BA2000181CF
:020BA3000181CE
:020BA40001410D
:020BA50001420B
:020BA60001420A
:020BA700014209
:020BA800014208
:020BA900014207
:020BAA00014206
:020BAB00014205
:020BAC00014204
:020BAD00014203
:020BAE00010242
:020BAF00010340
:020BB00001033F
:020BB10001033E
:020BB20001033D
:020BB30001033C
:020BB40001033B
:020BB50001033A
:020BB600010339
:020BB700010338
:020BB80000C477
:020BB90000C476
:020BBA0000C475
:020BBB0000C474
:020BBC0000C473
:020BBD0000C472
:020BBE0000C471
:020BBF0000C470
:020BC00000C46F
:020BC10000C46E
:020BC2000085AC
:020BC3000085AB
:020BC4000085AA
:020BC5000085A9
:020BC6000085A8
:020BC7000085A7
:020BC8000085A6
:020BC9000085A5
:020BCA000085A4
:020BCB000045E3
:020BCC000046E1
:020BCD000046E0
:020BCE000046DF
:020BCF000046DE
:020BD0000046DD
:020BD1000046DC
:020BD2000046DB
:020BD3000046DA
:020BD4000046D9
:020BD500000618
:020BD600000716
:020BD700000715
:020BD800000714
:020BD900000713
:020BDA00000712
:020BDB00000711
:020BDC00000710
:020BDD0000070F
:020BDE0000070E
:020BDF0000070D
:020BE00001C052
:020BE10001C051
:020BE20001C050
:020BE30001C04F
:020BE40001C04E
:020BE50001C04D
:020BE60001C04C
:020BE70001C04B
:020BE80001C04A
:020BE90001C049
:020BEA0001C048
:020BEB00018186
:020BEC00018185
:020BED00018184
:020BEE00018183
:020BEF00018182
:020BF000018181
:020BF100018180
:020BF20001817F
:020BF30001817E
:020BF4000141BD
:020BF5000142BB
:020BF6000142BA
:020BF7000142B9
:020BF8000142B8
:020BF9000142B7
:020BFA000142B6
:020BFB000142B5
:020BFC000142B4
:020BFD000142B3
:020BFE000102F2
:020BFF000103F0
:020C00000103EE
:020C01000103ED
:020C02000103EC
:020C03000103EB
:020C04000103EA
:020C05000103E9
:020C06000103E8
:020C07000103E7
:020C080000C426
:020C090000C425
:020C0A0000C424
:020C0B0000C423
:020C0C0000C422
:020C0D0000C421
:020C0E0000C420
:020C0F0000C41F
:020C100000C41E
:020C110000C41D
:020C120000855B
:020C130000855A
:020C1400008559
:020C1500008558
:020C1600008557
:020C1700008556
:020C1800008555
:020C1900008554
:020C1A00008553
:020C1B00004592
:020C1C00004690
:020C1D0000468F
:020C1E0000468E
:020C1F0000468D
:020C200000468C
:020C210000468B
:020C220000468A
:020C2300004689
:020C2400004688
:020C25000006C7
:020C26000007C5
:020C27000007C4
:020C28000007C3
:020C29000007C2
:020C2A000007C1
:020C2B000007C0
:020C2C000007BF
:020C2D000007BE
:020C2E000007BD
:020C2F000007BC
:020C300001C001
:020C310001C000
:020C320001C0FF
:020C330001C0FE
:020C340001C0FD
:020C350001C0FC
:020C360001C0FB
:020C370001C0FA
:020C380001C0F9
:020C390001C0F8
:020C3A0001C0F7
:020C3B00018135
:020C3C00018134
:020C3D00018133
:020C3E00018132
:020C3F00018131
:020C4000018130
:020C410001812F
:020C420001812E
:020C430001812D
:020C440001416C
:020C450001426A
:020C4600014269
:020C4700014268
:020C4800014267
:020C4900014266
:020C4A00014265
:020C4B00014264
:020C4C00014263
:020C4D00014262
:020C4E000102A1
:020C4F0001039F
:020C500001039E
:020C510001039D
:020C520001039C
:020C530001039B
:020C540001039A
:020C5500010399
:020C5600010398
:020C5700010397
:020C580000C4D6
:020C590000C4D5
:020C5A0000C4D4
:020C5B0000C4D3
:020C5C0000C4D2
:020C5D0000C4D1
:020C5E0000C4D0
:020C5F0000C4CF
:020C600000C4CE
:020C610000C4CD
:020C620000850B
:020C630000850A
:020C6400008509
:020C6500008508
:020C6600008507
:020C6700008506
:020C6800008505
:020C6900008504
:020C6A00008503
:020C6B00004542
:020C6C00004640
:020C6D0000463F
:020C6E0000463E
:020C6F0000463D
:020C700000463C
:020C710000463B
:020C720000463A
:020C7300004639
:020C7400004638
:020C7500000677
:020C7600000775
:020C7700000774
:020C7800000773
:020C7900000772
:020C7A00000771
:020C7B00000770
:020C7C0000076F
:020C7D0000076E
:020C7E0000076D
:020C7F0000076C
:020C800001C0B1
:020C810001C0B0
:020C820001C0AF
:020C830001C0AE
:020C840001C0AD
:020C850001C0AC
:020C860001C0AB
:020C870001C0AA
:020C880001C0A9
:020C890001C0A8
:020C8A0001C0A7
:020C8B000181E5
:020C8C000181E4
:020C8D000181E3
:020C8E000181E2
:020C8F000181E1
:020C90000181E0
:020C91000181DF
:020C92000181DE
:020C93000181DD
:020C940001411C
:020C950001421A
:020C9600014219
:020C9700014218
:020C9800014217
:020C9900014216
:020C9A00014215
:020C9B00014214
:020C9C00014213
:020C9D00014212
:020C9E00010251
:020C9F0001034F
:020CA00001034E
:020CA10001034D
:020CA20001034C
:020CA30001034B
:020CA40001034A
:020CA500010349
:020CA600010348
:020CA700010347
:020CA80000C486
:020CA90000C485
:020CAA0000C484
:020CAB0000C483
:020CAC0000C482
:020CAD0000C481
:020CAE0000C480
:020CAF0000C47F
:020CB00000C47E
:020CB10000C47D
:020CB2000085BB
:020CB3000085BA
:020CB4000085B9
:020CB5000085B8
:020CB6000085B7
:020CB7000085B6
:020CB8000085B5
:020CB9000085B4
:020CBA000085B3
:020CBB000045F2
:020CBC000046F0
:020CBD000046EF
:020CBE000046EE
:020CBF000046ED
:020CC0000046EC
:020CC1000046EB
:020CC2000046EA
:020CC3000046E9
:020CC4000046E8
:020CC500000627
:020CC600000725
:020CC700000724
:020CC800000723
:020CC900000722
:020CCA00000721
:020CCB00000720
:020CCC0000071F
:020CCD0000071E
:020CCE0000071D
:020CCF0000071C
:020CD00001C061
:020CD10001C060
:020CD20001C05F
:020CD30001C05E
:020CD40001C05D
:020CD50001C05C
:020CD60001C05B
:020CD70001C05A
:020CD80001C059
:020CD90001C058
:020CDA0001C057
:020CDB00018195
:020CDC00018194
:020CDD00018193
:020CDE00018192
:020CDF00018191
:020CE000018190
:020CE10001818F
:020CE20001818E
:020CE30001818D
:020CE4000141CC
:020CE5000142CA
:020CE6000142C9
:020CE7000142C8
:020CE8000142C7
:020CE9000142C6
:020CEA000142C5
:020CEB000142C4
:020CEC000142C3
:020CED000142C2
:020CEE00010201
:020CEF000103FF
:020CF0000103FE
:020CF1000103FD
:020CF2000103FC
:020CF3000103FB
:020CF4000103FA
:020CF5000103F9
:020CF6000103F8
:020CF7000103F7
:020CF80000C436
:020CF90000C435
:020CFA0000C434
:020CFB0000C433
:020CFC0000C432
:020CFD0000C431
:020CFE0000C430
:020CFF0000C42F
:020D000000C42D
:020D010000C42C
:020D020000856A
:020D0300008569
:020D0400008568
:020D0500008567
:020D0600008566
:020D0700008565
:020D0800008564
:020D0900008563
:020D0A00008562
:020D0B000045A1
:020D0C0000469F
:020D0D0000469E
:020D0E0000469D
:020D0F0000469C
:020D100000469B
:020D110000469A
:020D1200004699
:020D1300004698
:020D1400004697
:020D15000006D6
:020D16000007D4
:020D17000007D3
:020D18000007D2
:020D19000007D1
:020D1A000007D0
:020D1B000007CF
:020D1C000007CE
:020D1D000007CD
:020D1E000007CC
:020D1F000007CB
:020D200001C010
:020D210001C00F
:020D220001C00E
:020D230001C00D
:020D240001C00C
:020D250001C00B
:020D260001C00A
:020D270001C009
:020D280001C008
:020D290001C007
:020D2A0001C006
:020D2B00018144
:020D2C00018143
:020D2D00018142
:020D2E00018141
:020D2F00018140
:020D300001813F
:020D310001813E
:020D320001813D
:020D330001813C
:020D340001417B
:020D3500014279
:020D3600014278
:020D3700014277
:020D3800014276
:020D3900014275
:020D3A00014274
:020D3B00014273
:020D3C00014272
:020D3D00014271
:020D3E000102B0
:020D3F000103AE
:020D40000103AD
:020D41000103AC
:020D42000103AB
:020D43000103AA
:020D44000103A9
:020D45000103A8
:020D46000103A7
:020D47000103A6
:020D480000C4E5
:020D490000C4E4
:020D4A0000C4E3
:020D4B0000C4E2
:020D4C0000C4E1
:020D4D0000C4E0
:020D4E0000C4DF
:020D4F0000C4DE
:020D500000C4DD
:020D510000C4DC
:020D520000851A
:020D5300008519
:020D5400008518
:020D5500008517
:020D5600008516
:020D5700008515
:020D5800008514
:020D5900008513
:020D5A00008512
:020D5B00004551
:020D5C0000464F
:020D5D0000464E
:020D5E0000464D
:020D5F0000464C
:020D600000464B
:020D610000464A
:020D6200004649
:020D6300004648
:020D6400004647
:020D6500000686
:020D6600000784
:020D6700000783
:020D6800000782
:020D6900000781
:020D6A00000780
:020D6B0000077F
:020D6C0000077E
:020D6D0000077D
:020D6E0000077C
:020D6F0000077B
:020D700001C0C0
:020D710001C0BF
:020D720001C0BE
:020D730001C0BD
:020D740001C0BC
:020D750001C0BB
:020D760001C0BA
:020D770001C0B9
:020D780001C0B8
:020D790001C0B7
:020D7A0001C0B6
:020D7B000181F4
:020D7C000181F3
:020D7D000181F2
:020D7E000181F1
:020D7F000181F0
:020D80000181EF
:020D81000181EE
:020D82000181ED
:020D83000181EC
:020D840001412B
:020D8500014229
:020D8600014228
:020D8700014227
:020D8800014226
:020D8900014225
:020D8A00014224
:020D8B00014223
:020D8C00014222
:020D8D00014221
:020D8E00010260
:020D8F0001035E
:020D900001035D
:020D910001035C
:020D920001035B
:020D930001035A
:020D9400010359
:020D9500010358
:020D9600010357
:020D9700010356
:020D980000C495
:020D990000C494
:020D9A0000C493
:020D9B0000C492
:020D9C0000C491
:020D9D0000C490
:020D9E0000C48F
:020D9F0000C48E
:020DA00000C48D
:020DA10000C48C
:020DA2000085CA
:020DA3000085C9
:020DA4000085C8
:020DA5000085C7
:020DA6000085C6
:020DA7000085C5
:020DA8000085C4
:020DA9000085C3
:020DAA000085C2
:020DAB00004501
:020DAC000046FF
:020DAD000046FE
:020DAE000046FD
:020DAF000046FC
:020DB0000046FB
:020DB1000046FA
:020DB2000046F9
:020DB3000046F8
:020DB4000046F7
:020DB500000636
:020DB600000734
:020DB700000733
:020DB800000732
:020DB900000731
:020DBA00000730
:020DBB0000072F
:020DBC0000072E
:020DBD0000072D
:020DBE0000072C
:020DBF0000072B
:020DC00001C070
:020DC10001C06F
:020DC20001C06E
:020DC30001C06D
:020DC40001C06C
:020DC50001C06B
:020DC60001C06A
:020DC70001C069
:020DC80001C068
:020DC90001C067
:020DCA0001C066
:020DCB000181A4
:020DCC000181A3
:020DCD000181A2
:020DCE000181A1
:020DCF000181A0
:020DD00001819F
:020DD10001819E
:020DD20001819D
:020DD30001819C
:020DD4000141DB
:020DD5000142D9
:020DD6000142D8
:020DD7000142D7
:020DD8000142D6
:020DD9000142D5
:020DDA000142D4
:020DDB000142D3
:020DDC000142D2
:020DDD000142D1
:020DDE00010210
:020DDF0001030E
:020DE00001030D
:020DE10001030C
:020DE20001030B
:020DE30001030A
:020DE400010309
:020DE500010308
:020DE600010307
:020DE700010306
:020DE80000C445
:020DE90000C444
:020DEA0000C443
:020DEB0000C442
:020DEC0000C441
:020DED0000C440
:020DEE0000C43F
:020DEF0000C43E
:020DF00000C43D
:020DF10000C43C
:020DF20000857A
:020DF300008579
:020DF400008578
:020DF500008577
:020DF600008576
:020DF700008575
:020DF800008574
:020DF900008573
:020DFA00008572
:020DFB000045B1
:020DFC000046AF
:020DFD000046AE
:020DFE000046AD
:020DFF000046AC
:020E00000046AA
:020E01000046A9
:020E02000046A8
:020E03000046A7
:020E04000046A6
:020E05000006E5
:020E06000007E3
:020E07000007E2
:020E08000007E1
:020E09000007E0
:020E0A000007DF
:020E0B000007DE
:020E0C000007DD
:020E0D000007DC
:020E0E000007DB
:020E0F000007DA
:020E100001C01F
:020E110001C01E
:020E120001C01D
:020E130001C01C
:020E140001C01B
:020E150001C01A
:020E160001C019
:020E170001C018
:020E180001C017
:020E190001C016
:020E1A0001C015
:020E1B00018153
:020E1C00018152
:020E1D00018151
:020E1E00018150
:020E1F0001814F
:020E200001814E
:020E210001814D
:020E220001814C
:020E230001814B
:020E240001418A
:020E2500014288
:020E2600014287
:020E2700014286
:020E2800014285
:020E2900014284
:020E2A00014283
:020E2B00014282
:020E2C00014281
:020E2D00014280
:020E2E000102BF
:020E2F000103BD
:020E30000103BC
:020E31000103BB
:020E32000103BA
:020E33000103B9
:020E34000103B8
:020E35000103B7
:020E36000103B6
:020E37000103B5
:020E380000C4F4
:020E390000C4F3
:020E3A0000C4F2
:020E3B0000C4F1
:020E3C0000C4F0
:020E3D0000C4EF
:020E3E0000C4EE
:020E3F0000C4ED
:020E400000C4EC
:020E410000C4EB
:020E4200008529
:020E4300008528
:020E4400008527
:020E4500008526
:020E4600008525
:020E4700008524
:020E4800008523
:020E4900008522
:020E4A00008521
:020E4B00004560
:020E4C0000465E
:020E4D0000465D
:020E4E0000465C
:020E4F0000465B
:020E500000465A
:020E5100004659
:020E5200004658
:020E5300004657
:020E5400004656
:020E5500000695
:020E5600000793
:020E5700000792
:020E5800000791
:020E5900000790
:020E5A0000078F
:020E5B0000078E
:020E5C0000078D
:020E5D0000078C
:020E5E0000078B
:020E5F0000078A
:020E600001C0CF
:020E610001C0CE
:020E620001C0CD
:020E630001C0CC
:020E640001C0CB
:020E650001C0CA
:020E660001C0C9
:020E670001C0C8
:020E680001C0C7
:020E690001C0C6
:020E6A0001C0C5
:020E6B00018103
:020E6C00018102
:020E6D00018101
:020E6E00018100
:020E6F000181FF
:020E70000181FE
:020E71000181FD
:020E72000181FC
:020E73000181FB
:020E740001413A
:020E7500014238
:020E7600014237
:020E7700014236
:020E7800014235
:020E7900014234
:020E7A00014233
:020E7B00014232
:020E7C00014231
:020E7D00014230
:020E7E0001026F
:020E7F0001036D
:020E800001036C
:020E810001036B
:020E820001036A
:020E8300010369
:020E8400010368
:020E8500010367
:020E8600010366
:020E8700010365
:020E880000C4A4
:020E890000C4A3
:020E8A0000C4A2
:020E8B0000C4A1
:020E8C0000C4A0
:020E8D0000C49F
:020E8E0000C49E
:020E8F0000C49D
:020E900000C49C
:020E910000C49B
:020E92000085D9
:020E93000085D8
:020E94000085D7
:020E95000085D6
:020E96000085D5
:020E97000085D4
:020E98000085D3
:020E99000085D2
:020E9A000085D1
:020E9B00004510
:020E9C0000460E
:020E9D0000460D
:020E9E0000460C
:020E9F0000460B
:020EA00000460A
:020EA100004609
:020EA200004608
:020EA300004607
:020EA400004606
:020EA500000645
:020EA600000743
:020EA700000742
:020EA800000741
:020EA900000740
:020EAA0000073F
:020EAB0000073E
:020EAC0000073D
:020EAD0000073C
:020EAE0000073B
:020EAF0000073A
:020EB00001C07F
:020EB10001C07E
:020EB20001C07D
:020EB30001C07C
:020EB40001C07B
:020EB50001C07A
:020EB60001C079
:020EB70001C078
:020EB80001C077
:020EB90001C076
:020EBA0001C075
:020EBB000181B3
:020EBC000181B2
:020EBD000181B1
:020EBE000181B0
:020EBF000181AF
:020EC0000181AE
:020EC1000181AD
:020EC2000181AC
:020EC3000181AB
:020EC4000141EA
:020EC5000142E8
:020EC6000142E7
:020EC7000142E6
:020EC8000142E5
:020EC9000142E4
:020ECA000142E3
:020ECB000142E2
:020ECC000142E1
:020ECD000142E0
:020ECE0001021F
:020ECF0001031D
:020ED00001031C
:020ED10001031B
:020ED20001031A
:020ED300010319
:020ED400010318
:020ED500010317
:020ED600010316
:020ED700010315
:020ED80000C454
:020ED90000C453
:020EDA0000C452
:020EDB0000C451
:020EDC0000C450
:020EDD0000C44F
:020EDE0000C44E
:020EDF0000C44D
:020EE00000C44C
:020EE10000C44B
:020EE200008589
:020EE300008588
:020EE400008587
:020EE500008586
:020EE600008585
:020EE700008584
:020EE800008583
:020EE900008582
:020EEA00008581
:020EEB000045C0
:020EEC000046BE
:020EED000046BD
:020EEE000046BC
:020EEF000046BB
:020EF0000046BA
:020EF1000046B9
:020EF2000046B8
:020EF3000046B7
:020EF4000046B6
:020EF5000006F5
:020EF6000007F3
:020EF7000007F2
:020EF8000007F1
:020EF9000007F0
:020EFA000007EF
:020EFB000007EE
:020EFC000007ED
:020EFD000007EC
:020EFE000007EB
:020EFF000007EA
:020F000001C02E
:020F010001C02D
:020F020001C02C
:020F030001C02B
:020F040001C02A
:020F050001C029
:020F060001C028
:020F070001C027
:020F080001C026
:020F090001C025
:020F0A0001C024
:020F0B00018162
:020F0C00018161
:020F0D00018160
:020F0E0001815F
:020F0F0001815E
:020F100001815D
:020F110001815C
:020F120001815B
:020F130001815A
:020F1400014199
:020F1500014297
:020F1600014296
:020F1700014295
:020F1800014294
:020F1900014293
:020F1A00014292
:020F1B00014291
:020F1C00014290
:020F1D0001428F
:020F1E000102CE
:020F1F000103CC
:020F20000103CB
:020F21000103CA
:020F22000103C9
:020F23000103C8
:020F24000103C7
:020F25000103C6
:020F26000103C5
:020F27000103C4
:020F280000C403
:020F290000C402
:020F2A0000C401
:020F2B0000C400
:020F2C0000C4FF
:020F2D0000C4FE
:020F2E0000C4FD
:020F2F0000C4FC
:020F300000C4FB
:020F310000C4FA
:020F3200008538
:020F3300008537
:020F3400008536
:020F3500008535
:020F3600008534
:020F3700008533
:020F3800008532
:020F3900008531
:020F3A00008530
:020F3B0000456F
:020F3C0000466D
:020F3D0000466C
:020F3E0000466B
:020F3F0000466A
:020F4000004669
:020F4100004668
:020F4200004667
:020F4300004666
:020F4400004665
:020F45000006A4
:020F46000007A2
:020F47000007A1
:020F48000007A0
:020F490000079F
:020F4A0000079E
:020F4B0000079D
:020F4C0000079C
:020F4D0000079B
:020F4E0000079A
:020F4F00000799
:020F500001C0DE
:020F510001C0DD
:020F520001C0DC
:020F530001C0DB
:020F540001C0DA
:020F550001C0D9
:020F560001C0D8
:020F570001C0D7
:020F580001C0D6
:020F590001C0D5
:020F5A0001C0D4
:020F5B00018112
:020F5C00018111
:020F5D00018110
:020F5E0001810F
:020F5F0001810E
:020F600001810D
:020F610001810C
:020F620001810B
:020F630001810A
:020F6400014149
:020F6500014247
:020F6600014246
:020F6700014245
:020F6800014244
:020F6900014243
:020F6A00014242
:020F6B00014241
:020F6C00014240
:020F6D0001423F
:020F6E0001027E
:020F6F0001037C
:020F700001037B
:020F710001037A
:020F7200010379
:020F7300010378
:020F7400010377
:020F7500010376
:020F7600010375
:020F7700010374
:020F780000C4B3
:020F790000C4B2
:020F7A0000C4B1
:020F7B0000C4B0
:020F7C0000C4AF
:020F7D0000C4AE
:020F7E0000C4AD
:020F7F0000C4AC
:020F800000C4AB
:020F810000C4AA
:020F82000085E8
:020F83000085E7
:020F84000085E6
:020F85000085E5
:020F86000085E4
:020F87000085E3
:020F88000085E2
:020F89000085E1
:020F8A000085E0
:020F8B0000451F
:020F8C0000461D
:020F8D0000461C
:020F8E0000461B
:020F8F0000461A
:020F9000004619
:020F9100004618
:020F9200004617
:020F9300004616
:020F9400004615
:020F9500000654
:020F9600000752
:020F9700000751
:020F9800000750
:020F990000074F
:020F9A0000074E
:020F9B0000074D
:020F9C0000074C
:020F9D0000074B
:020F9E0000074A
:020F9F00000749
